{"contracts/ScopePayment.sol":{"BlockscopePayment":{"abi":[{"anonymous":false,"inputs":[],"name":"EIP712DomainChanged","type":"event"},{"anonymous":false,"inputs":[{"indexed":false,"internalType":"uint8","name":"version","type":"uint8"}],"name":"Initialized","type":"event"},{"anonymous":false,"inputs":[{"indexed":false,"internalType":"address","name":"account","type":"address"}],"name":"Paused","type":"event"},{"anonymous":false,"inputs":[{"indexed":true,"internalType":"address","name":"payer","type":"address"},{"indexed":false,"internalType":"uint256","name":"amount","type":"uint256"},{"indexed":false,"internalType":"uint256","name":"daoShare","type":"uint256"},{"indexed":false,"internalType":"uint256","name":"burned","type":"uint256"}],"name":"PaymentReceived","type":"event"},{"anonymous":false,"inputs":[{"indexed":true,"internalType":"bytes32","name":"role","type":"bytes32"},{"indexed":true,"internalType":"bytes32","name":"previousAdminRole","type":"bytes32"},{"indexed":true,"internalType":"bytes32","name":"newAdminRole","type":"bytes32"}],"name":"RoleAdminChanged","type":"event"},{"anonymous":false,"inputs":[{"indexed":true,"internalType":"bytes32","name":"role","type":"bytes32"},{"indexed":true,"internalType":"address","name":"account","type":"address"},{"indexed":true,"internalType":"address","name":"sender","type":"address"}],"name":"RoleGranted","type":"event"},{"anonymous":false,"inputs":[{"indexed":true,"internalType":"bytes32","name":"role","type":"bytes32"},{"indexed":true,"internalType":"address","name":"account","type":"address"},{"indexed":true,"internalType":"address","name":"sender","type":"address"}],"name":"RoleRevoked","type":"event"},{"anonymous":false,"inputs":[{"indexed":false,"internalType":"address","name":"account","type":"address"}],"name":"Unpaused","type":"event"},{"inputs":[],"name":"DEFAULT_ADMIN_ROLE","outputs":[{"internalType":"bytes32","name":"","type":"bytes32"}],"stateMutability":"view","type":"function"},{"inputs":[],"name":"DOMAIN_SEPARATOR","outputs":[{"internalType":"bytes32","name":"","type":"bytes32"}],"stateMutability":"view","type":"function"},{"inputs":[],"name":"EIP712_DOMAIN_TYPEHASH","outputs":[{"internalType":"string","name":"","type":"string"}],"stateMutability":"view","type":"function"},{"inputs":[],"name":"PAUSER_ROLE","outputs":[{"internalType":"bytes32","name":"","type":"bytes32"}],"stateMutability":"view","type":"function"},{"inputs":[],"name":"PAYMENT_TYPEHASH","outputs":[{"internalType":"bytes32","name":"","type":"bytes32"}],"stateMutability":"view","type":"function"},{"inputs":[{"internalType":"address","name":"_account","type":"address"}],"name":"addAdmin","outputs":[],"stateMutability":"nonpayable","type":"function"},{"inputs":[{"internalType":"address","name":"_account","type":"address"}],"name":"addPauser","outputs":[],"stateMutability":"nonpayable","type":"function"},{"inputs":[],"name":"daoTreasury","outputs":[{"internalType":"address","name":"","type":"address"}],"stateMutability":"view","type":"function"},{"inputs":[],"name":"eip712Domain","outputs":[{"internalType":"bytes1","name":"fields","type":"bytes1"},{"internalType":"string","name":"name","type":"string"},{"internalType":"string","name":"version","type":"string"},{"internalType":"uint256","name":"chainId","type":"uint256"},{"internalType":"address","name":"verifyingContract","type":"address"},{"internalType":"bytes32","name":"salt","type":"bytes32"},{"internalType":"uint256[]","name":"extensions","type":"uint256[]"}],"stateMutability":"view","type":"function"},{"inputs":[{"internalType":"bytes32","name":"role","type":"bytes32"}],"name":"getRoleAdmin","outputs":[{"internalType":"bytes32","name":"","type":"bytes32"}],"stateMutability":"view","type":"function"},{"inputs":[{"internalType":"bytes32","name":"role","type":"bytes32"},{"internalType":"address","name":"account","type":"address"}],"name":"grantRole","outputs":[],"stateMutability":"nonpayable","type":"function"},{"inputs":[{"internalType":"bytes32","name":"role","type":"bytes32"},{"internalType":"address","name":"account","type":"address"}],"name":"hasRole","outputs":[{"internalType":"bool","name":"","type":"bool"}],"stateMutability":"view","type":"function"},{"inputs":[{"internalType":"address","name":"_admin","type":"address"},{"internalType":"address","name":"_daoTreasury","type":"address"},{"components":[{"internalType":"string","name":"name","type":"string"},{"internalType":"uint256","name":"price","type":"uint256"}],"internalType":"struct IBlockscopePayment.Tier[]","name":"_tiers","type":"tuple[]"}],"name":"initialize","outputs":[],"stateMutability":"nonpayable","type":"function"},{"inputs":[{"internalType":"address","name":"_account","type":"address"}],"name":"isAdmin","outputs":[{"internalType":"bool","name":"","type":"bool"}],"stateMutability":"view","type":"function"},{"inputs":[{"internalType":"address","name":"_account","type":"address"}],"name":"isPauser","outputs":[{"internalType":"bool","name":"","type":"bool"}],"stateMutability":"view","type":"function"},{"inputs":[{"internalType":"address","name":"","type":"address"}],"name":"nonces","outputs":[{"internalType":"uint256","name":"","type":"uint256"}],"stateMutability":"view","type":"function"},{"inputs":[],"name":"paginationSize","outputs":[{"internalType":"uint256","name":"","type":"uint256"}],"stateMutability":"view","type":"function"},{"inputs":[],"name":"pause","outputs":[],"stateMutability":"nonpayable","type":"function"},{"inputs":[],"name":"paused","outputs":[{"internalType":"bool","name":"","type":"bool"}],"stateMutability":"view","type":"function"},{"inputs":[{"internalType":"uint256","name":"amount","type":"uint256"},{"internalType":"uint256","name":"tierIndex","type":"uint256"},{"internalType":"bytes","name":"signature","type":"bytes"}],"name":"payWithSignature","outputs":[],"stateMutability":"nonpayable","type":"function"},{"inputs":[{"internalType":"address","name":"_account","type":"address"}],"name":"removeAdmin","outputs":[],"stateMutability":"nonpayable","type":"function"},{"inputs":[{"internalType":"address","name":"_account","type":"address"}],"name":"removePauser","outputs":[],"stateMutability":"nonpayable","type":"function"},{"inputs":[{"internalType":"bytes32","name":"role","type":"bytes32"},{"internalType":"address","name":"account","type":"address"}],"name":"renounceRole","outputs":[],"stateMutability":"nonpayable","type":"function"},{"inputs":[{"internalType":"bytes32","name":"role","type":"bytes32"},{"internalType":"address","name":"account","type":"address"}],"name":"revokeRole","outputs":[],"stateMutability":"nonpayable","type":"function"},{"inputs":[{"internalType":"address","name":"_newDAOTreasury","type":"address"}],"name":"setDAOTreasury","outputs":[],"stateMutability":"nonpayable","type":"function"},{"inputs":[{"internalType":"uint256","name":"_paginationSize","type":"uint256"}],"name":"setPaginationSize","outputs":[],"stateMutability":"nonpayable","type":"function"},{"inputs":[{"internalType":"uint256","name":"_tierIndex","type":"uint256"},{"components":[{"internalType":"string","name":"name","type":"string"},{"internalType":"uint256","name":"price","type":"uint256"}],"internalType":"struct IBlockscopePayment.Tier","name":"newTier","type":"tuple"}],"name":"setTierPrice","outputs":[],"stateMutability":"nonpayable","type":"function"},{"inputs":[{"internalType":"bytes4","name":"interfaceId","type":"bytes4"}],"name":"supportsInterface","outputs":[{"internalType":"bool","name":"","type":"bool"}],"stateMutability":"view","type":"function"},{"inputs":[{"internalType":"uint256","name":"","type":"uint256"}],"name":"tiers","outputs":[{"internalType":"string","name":"name","type":"string"},{"internalType":"uint256","name":"price","type":"uint256"}],"stateMutability":"view","type":"function"},{"inputs":[],"name":"unpause","outputs":[],"stateMutability":"nonpayable","type":"function"}],"evm":{"bytecode":{"linkReferences":{},"object":"608060405234801561001057600080fd5b50613cd7806100206000396000f3fe608060405234801561001057600080fd5b50600436106101da5760003560e01c80636d3298cb116101045780638456cb59116100a2578063c7977be711610071578063c7977be714610534578063d547741f14610552578063e63ab1e91461056e578063f2407ca41461058c576101da565b80638456cb59146104b857806384b0196e146104c257806391d14854146104e6578063a217fddf14610516576101da565b806376fe8ead116100de57806376fe8ead1461043257806379022a9f1461044e5780637ecebe001461046c57806382dc1ec41461049c576101da565b80636d3298cb146103dc57806370480275146103fa57806373c7698014610416576101da565b80633644e5151161017c57806346fbf68e1161014b57806346fbf68e146103565780635c975abb146103865780635f429c1b146103a45780636b2c0f55146103c0576101da565b80633644e515146102f457806336568abe146103125780633d538ecf1461032e5780633f4ba83a1461034c576101da565b8063248a9ca3116101b8578063248a9ca31461025c57806324d7806c1461028c5780632978dc3c146102bc5780632f2ff15d146102d8576101da565b806301ffc9a7146101df578063039af9eb1461020f5780631785f53c14610240575b600080fd5b6101f960048036038101906101f49190612434565b6105a8565b604051610206919061247c565b60405180910390f35b610229600480360381019061022491906124cd565b610622565b6040516102379291906125a2565b60405180910390f35b61025a60048036038101906102559190612630565b6106de565b005b61027660048036038101906102719190612693565b6106ee565b60405161028391906126cf565b60405180910390f35b6102a660048036038101906102a19190612630565b61070e565b6040516102b3919061247c565b60405180910390f35b6102d660048036038101906102d19190612630565b610724565b005b6102f260048036038101906102ed91906126ea565b610824565b005b6102fc610845565b60405161030991906126cf565b60405180910390f35b61032c600480360381019061032791906126ea565b61084c565b005b6103366108cf565b604051610343919061272a565b60405180910390f35b6103546108d5565b005b610370600480360381019061036b9190612630565b610948565b60405161037d919061247c565b60405180910390f35b61038e61097b565b60405161039b919061247c565b60405180910390f35b6103be60048036038101906103b991906127aa565b610992565b005b6103da60048036038101906103d59190612630565b610cc0565b005b6103e4610ced565b6040516103f191906126cf565b60405180910390f35b610414600480360381019061040f9190612630565b610d11565b005b610430600480360381019061042b9190612842565b610d21565b005b61044c600480360381019061044791906128f4565b610da3565b005b610456611066565b6040516104639190612977565b60405180910390f35b61048660048036038101906104819190612630565b61108c565b604051610493919061272a565b60405180910390f35b6104b660048036038101906104b19190612630565b6110a5565b005b6104c06110d2565b005b6104ca611145565b6040516104dd9796959493929190612a8b565b60405180910390f35b61050060048036038101906104fb91906126ea565b611246565b60405161050d919061247c565b60405180910390f35b61051e6112b1565b60405161052b91906126cf565b60405180910390f35b61053c6112b8565b6040516105499190612b0f565b60405180910390f35b61056c600480360381019061056791906126ea565b6112d4565b005b6105766112f5565b60405161058391906126cf565b60405180910390f35b6105a660048036038101906105a191906124cd565b611319565b005b60007f7965db0b000000000000000000000000000000000000000000000000000000007bffffffffffffffffffffffffffffffffffffffffffffffffffffffff1916827bffffffffffffffffffffffffffffffffffffffffffffffffffffffff1916148061061b575061061a826113b2565b5b9050919050565b60ff818154811061063257600080fd5b906000526020600020906002020160009150905080600001805461065590612b60565b80601f016020809104026020016040519081016040528092919081815260200182805461068190612b60565b80156106ce5780601f106106a3576101008083540402835291602001916106ce565b820191906000526020600020905b8154815290600101906020018083116106b157829003601f168201915b5050505050908060010154905082565b6106eb6000801b826112d4565b50565b600060cb6000838152602001908152602001600020600101549050919050565b600061071d6000801b83611246565b9050919050565b6107316000801b33611246565b610770576040517f08c379a000000000000000000000000000000000000000000000000000000000815260040161076790612bde565b60405180910390fd5b600073ffffffffffffffffffffffffffffffffffffffff168173ffffffffffffffffffffffffffffffffffffffff1614156107e0576040517f08c379a00000000000000000000000000000000000000000000000000000000081526004016107d790612c4a565b60405180910390fd5b8060fe60006101000a81548173ffffffffffffffffffffffffffffffffffffffff021916908373ffffffffffffffffffffffffffffffffffffffff16021790555050565b61082d826106ee565b6108368161141c565b6108408383611430565b505050565b6101005481565b610854611511565b73ffffffffffffffffffffffffffffffffffffffff168173ffffffffffffffffffffffffffffffffffffffff16146108c1576040517f08c379a00000000000000000000000000000000000000000000000000000000081526004016108b890612cdc565b60405180910390fd5b6108cb8282611519565b5050565b60fd5481565b6108ff7f65d7a28e3265b37a6474929f336521b332c1681b933f6cb9f3376673440d862a33611246565b61093e576040517f08c379a000000000000000000000000000000000000000000000000000000000815260040161093590612bde565b60405180910390fd5b6109466115fb565b565b60006109747f65d7a28e3265b37a6474929f336521b332c1681b933f6cb9f3376673440d862a83611246565b9050919050565b6000606760009054906101000a900460ff16905090565b60008060019054906101000a900460ff161590508080156109c35750600160008054906101000a900460ff1660ff16105b806109f057506109d23061165e565b1580156109ef5750600160008054906101000a900460ff1660ff16145b5b610a2f576040517f08c379a0000000000000000000000000000000000000000000000000000000008152600401610a2690612d6e565b60405180910390fd5b60016000806101000a81548160ff021916908360ff1602179055508015610a6c576001600060016101000a81548160ff0219169083151502179055505b600073ffffffffffffffffffffffffffffffffffffffff168473ffffffffffffffffffffffffffffffffffffffff161415610adc576040517f08c379a0000000000000000000000000000000000000000000000000000000008152600401610ad390612c4a565b60405180910390fd5b60018383905011610b22576040517f08c379a0000000000000000000000000000000000000000000000000000000008152600401610b1990612dda565b60405180910390fd5b610b2b85611681565b610b9f6040518060400160405280601181526020017f426c6f636b73636f70655061796d656e740000000000000000000000000000008152506040518060400160405280600181526020017f31000000000000000000000000000000000000000000000000000000000000008152506117e1565b8360fe60006101000a81548173ffffffffffffffffffffffffffffffffffffffff021916908373ffffffffffffffffffffffffffffffffffffffff16021790555060005b83839050811015610c5f5760ff848483818110610c0357610c02612dfa565b5b9050602002810190610c159190612e38565b90806001815401808255809150506001900390600052602060002090600202016000909190919091508181610c4a9190613257565b50508080610c5790613294565b915050610be3565b508015610cb95760008060016101000a81548160ff0219169083151502179055507f7f26b83ff96e1f2b6a682f133852f6798a09c465da95921460cefb38474024986001604051610cb09190613325565b60405180910390a15b5050505050565b610cea7f65d7a28e3265b37a6474929f336521b332c1681b933f6cb9f3376673440d862a826112d4565b50565b7fc3dc13d682bb4baf646a38a970d2b8630ee8847786806b062c7ead58f976df8181565b610d1e6000801b82610824565b50565b610d2e6000801b33611246565b610d6d576040517f08c379a0000000000000000000000000000000000000000000000000000000008152600401610d6490612bde565b60405180910390fd5b8060ff8381548110610d8257610d81612dfa565b5b90600052602060002090600202018181610d9c9190613257565b9050505050565b60ff8381548110610db757610db6612dfa565b5b906000526020600020906002020160010154841015610e0b576040517f08c379a0000000000000000000000000000000000000000000000000000000008152600401610e029061338c565b60405180910390fd5b6000610100547fc3dc13d682bb4baf646a38a970d2b8630ee8847786806b062c7ead58f976df81338761010160003373ffffffffffffffffffffffffffffffffffffffff1673ffffffffffffffffffffffffffffffffffffffff1681526020019081526020016000206000815480929190610e8590613294565b91905055604051602001610e9c94939291906133ac565b60405160208183030381529060405280519060200120604051602001610ec3929190613469565b6040516020818303038152906040528051906020012090506000610f3484848080601f016020809104026020016040519081016040528093929190818152602001838380828437600081840152601f19601f820116905080830192505050505050508361183e90919063ffffffff16565b9050600073ffffffffffffffffffffffffffffffffffffffff168173ffffffffffffffffffffffffffffffffffffffff1614158015610f9e57503373ffffffffffffffffffffffffffffffffffffffff168173ffffffffffffffffffffffffffffffffffffffff16145b610fdd576040517f08c379a0000000000000000000000000000000000000000000000000000000008152600401610fd4906134ec565b60405180910390fd5b60006064605588610fee919061350c565b610ff89190613595565b90506000818861100891906135c6565b90503373ffffffffffffffffffffffffffffffffffffffff167f750e6bbedd4312ada35caa75e07fc0b85f1a6fc9c675e6962aef846918711097898484604051611054939291906135fa565b60405180910390a25050505050505050565b60fe60009054906101000a900473ffffffffffffffffffffffffffffffffffffffff1681565b6101016020528060005260406000206000915090505481565b6110cf7f65d7a28e3265b37a6474929f336521b332c1681b933f6cb9f3376673440d862a82610824565b50565b6110fc7f65d7a28e3265b37a6474929f336521b332c1681b933f6cb9f3376673440d862a33611246565b61113b576040517f08c379a000000000000000000000000000000000000000000000000000000000815260040161113290612bde565b60405180910390fd5b611143611865565b565b6000606080600080600060606000801b60015414801561116957506000801b600254145b6111a8576040517f08c379a000000000000000000000000000000000000000000000000000000000815260040161119f9061367d565b60405180910390fd5b6111b06118c8565b6111b861195a565b46306000801b600067ffffffffffffffff8111156111d9576111d8612ece565b5b6040519080825280602002602001820160405280156112075781602001602082028036833780820191505090505b507f0f00000000000000000000000000000000000000000000000000000000000000959493929190965096509650965096509650965090919293949596565b600060cb600084815260200190815260200160002060000160008373ffffffffffffffffffffffffffffffffffffffff1673ffffffffffffffffffffffffffffffffffffffff16815260200190815260200160002060009054906101000a900460ff16905092915050565b6000801b81565b604051806080016040528060528152602001613c506052913981565b6112dd826106ee565b6112e68161141c565b6112f08383611519565b505050565b7f65d7a28e3265b37a6474929f336521b332c1681b933f6cb9f3376673440d862a81565b6113266000801b33611246565b611365576040517f08c379a000000000000000000000000000000000000000000000000000000000815260040161135c90612bde565b60405180910390fd5b600081116113a8576040517f08c379a000000000000000000000000000000000000000000000000000000000815260040161139f906136e9565b60405180910390fd5b8060fd8190555050565b60007f01ffc9a7000000000000000000000000000000000000000000000000000000007bffffffffffffffffffffffffffffffffffffffffffffffffffffffff1916827bffffffffffffffffffffffffffffffffffffffffffffffffffffffff1916149050919050565b61142d81611428611511565b6119ec565b50565b61143a8282611246565b61150d57600160cb600084815260200190815260200160002060000160008373ffffffffffffffffffffffffffffffffffffffff1673ffffffffffffffffffffffffffffffffffffffff16815260200190815260200160002060006101000a81548160ff0219169083151502179055506114b2611511565b73ffffffffffffffffffffffffffffffffffffffff168173ffffffffffffffffffffffffffffffffffffffff16837f2f8788117e7eff1d82e926ec794901d17c78024a50270940304540a733656f0d60405160405180910390a45b5050565b600033905090565b6115238282611246565b156115f757600060cb600084815260200190815260200160002060000160008373ffffffffffffffffffffffffffffffffffffffff1673ffffffffffffffffffffffffffffffffffffffff16815260200190815260200160002060006101000a81548160ff02191690831515021790555061159c611511565b73ffffffffffffffffffffffffffffffffffffffff168173ffffffffffffffffffffffffffffffffffffffff16837ff6391f5c32d9c69d2a47ea670b442974b53935d1edc7fd64eb21e047a839171b60405160405180910390a45b5050565b611603611a71565b6000606760006101000a81548160ff0219169083151502179055507f5db9ee0a495bf2e6ff9c91a7834c1ba4fdd244a5e8aa4e537bd38aeae4b073aa611647611511565b6040516116549190612977565b60405180910390a1565b6000808273ffffffffffffffffffffffffffffffffffffffff163b119050919050565b60008060019054906101000a900460ff161590508080156116b25750600160008054906101000a900460ff1660ff16105b806116df57506116c13061165e565b1580156116de5750600160008054906101000a900460ff1660ff16145b5b61171e576040517f08c379a000000000000000000000000000000000000000000000000000000000815260040161171590612d6e565b60405180910390fd5b60016000806101000a81548160ff021916908360ff160217905550801561175b576001600060016101000a81548160ff0219169083151502179055505b611763611aba565b61176b611b0b565b611773611b5c565b61177c82611bc8565b606460fd8190555080156117dd5760008060016101000a81548160ff0219169083151502179055507f7f26b83ff96e1f2b6a682f133852f6798a09c465da95921460cefb384740249860016040516117d49190613325565b60405180910390a15b5050565b600060019054906101000a900460ff16611830576040517f08c379a00000000000000000000000000000000000000000000000000000000081526004016118279061377b565b60405180910390fd5b61183a8282611d36565b5050565b600080600061184d8585611dcb565b9150915061185a81611e1d565b819250505092915050565b61186d611f8b565b6001606760006101000a81548160ff0219169083151502179055507f62e78cea01bee320cd4e420270b5ea74000d11b0c9f74754ebdbfc544b05a2586118b1611511565b6040516118be9190612977565b60405180910390a1565b6060600380546118d790612b60565b80601f016020809104026020016040519081016040528092919081815260200182805461190390612b60565b80156119505780601f1061192557610100808354040283529160200191611950565b820191906000526020600020905b81548152906001019060200180831161193357829003601f168201915b5050505050905090565b60606004805461196990612b60565b80601f016020809104026020016040519081016040528092919081815260200182805461199590612b60565b80156119e25780601f106119b7576101008083540402835291602001916119e2565b820191906000526020600020905b8154815290600101906020018083116119c557829003601f168201915b5050505050905090565b6119f68282611246565b611a6d57611a0381611fd5565b611a118360001c6020612002565b604051602001611a22929190613864565b6040516020818303038152906040526040517f08c379a0000000000000000000000000000000000000000000000000000000008152600401611a649190612b0f565b60405180910390fd5b5050565b611a7961097b565b611ab8576040517f08c379a0000000000000000000000000000000000000000000000000000000008152600401611aaf906138ea565b60405180910390fd5b565b600060019054906101000a900460ff16611b09576040517f08c379a0000000000000000000000000000000000000000000000000000000008152600401611b009061377b565b60405180910390fd5b565b600060019054906101000a900460ff16611b5a576040517f08c379a0000000000000000000000000000000000000000000000000000000008152600401611b519061377b565b60405180910390fd5b565b600060019054906101000a900460ff16611bab576040517f08c379a0000000000000000000000000000000000000000000000000000000008152600401611ba29061377b565b60405180910390fd5b6000606760006101000a81548160ff021916908315150217905550565b60008060019054906101000a900460ff16159050808015611bf95750600160008054906101000a900460ff1660ff16105b80611c265750611c083061165e565b158015611c255750600160008054906101000a900460ff1660ff16145b5b611c65576040517f08c379a0000000000000000000000000000000000000000000000000000000008152600401611c5c90612d6e565b60405180910390fd5b60016000806101000a81548160ff021916908360ff1602179055508015611ca2576001600060016101000a81548160ff0219169083151502179055505b611caf6000801b8361223e565b611cd97f65d7a28e3265b37a6474929f336521b332c1681b933f6cb9f3376673440d862a8361223e565b8015611d325760008060016101000a81548160ff0219169083151502179055507f7f26b83ff96e1f2b6a682f133852f6798a09c465da95921460cefb38474024986001604051611d299190613325565b60405180910390a15b5050565b600060019054906101000a900460ff16611d85576040517f08c379a0000000000000000000000000000000000000000000000000000000008152600401611d7c9061377b565b60405180910390fd5b8160039080519060200190611d9b92919061232f565b508060049080519060200190611db292919061232f565b506000801b6001819055506000801b6002819055505050565b600080604183511415611e0d5760008060006020860151925060408601519150606086015160001a9050611e018782858561224c565b94509450505050611e16565b60006002915091505b9250929050565b60006004811115611e3157611e3061390a565b5b816004811115611e4457611e4361390a565b5b1415611e4f57611f88565b60016004811115611e6357611e6261390a565b5b816004811115611e7657611e7561390a565b5b1415611eb7576040517f08c379a0000000000000000000000000000000000000000000000000000000008152600401611eae90613985565b60405180910390fd5b60026004811115611ecb57611eca61390a565b5b816004811115611ede57611edd61390a565b5b1415611f1f576040517f08c379a0000000000000000000000000000000000000000000000000000000008152600401611f16906139f1565b60405180910390fd5b60036004811115611f3357611f3261390a565b5b816004811115611f4657611f4561390a565b5b1415611f87576040517f08c379a0000000000000000000000000000000000000000000000000000000008152600401611f7e90613a83565b60405180910390fd5b5b50565b611f9361097b565b15611fd3576040517f08c379a0000000000000000000000000000000000000000000000000000000008152600401611fca90613aef565b60405180910390fd5b565b6060611ffb8273ffffffffffffffffffffffffffffffffffffffff16601460ff16612002565b9050919050565b606060006002836002612015919061350c565b61201f9190613b0f565b67ffffffffffffffff81111561203857612037612ece565b5b6040519080825280601f01601f19166020018201604052801561206a5781602001600182028036833780820191505090505b5090507f3000000000000000000000000000000000000000000000000000000000000000816000815181106120a2576120a1612dfa565b5b60200101907effffffffffffffffffffffffffffffffffffffffffffffffffffffffffffff1916908160001a9053507f78000000000000000000000000000000000000000000000000000000000000008160018151811061210657612105612dfa565b5b60200101907effffffffffffffffffffffffffffffffffffffffffffffffffffffffffffff1916908160001a90535060006001846002612146919061350c565b6121509190613b0f565b90505b60018111156121f0577f3031323334353637383961626364656600000000000000000000000000000000600f86166010811061219257612191612dfa565b5b1a60f81b8282815181106121a9576121a8612dfa565b5b60200101907effffffffffffffffffffffffffffffffffffffffffffffffffffffffffffff1916908160001a905350600485901c9450806121e990613b65565b9050612153565b5060008414612234576040517f08c379a000000000000000000000000000000000000000000000000000000000815260040161222b90613bdb565b60405180910390fd5b8091505092915050565b6122488282611430565b5050565b6000807f7fffffffffffffffffffffffffffffff5d576e7357a4501ddfe92f46681b20a08360001c1115612287576000600391509150612326565b6000600187878787604051600081526020016040526040516122ac9493929190613c0a565b6020604051602081039080840390855afa1580156122ce573d6000803e3d6000fd5b505050602060405103519050600073ffffffffffffffffffffffffffffffffffffffff168173ffffffffffffffffffffffffffffffffffffffff16141561231d57600060019250925050612326565b80600092509250505b94509492505050565b82805461233b90612b60565b90600052602060002090601f01602090048101928261235d57600085556123a4565b82601f1061237657805160ff19168380011785556123a4565b828001600101855582156123a4579182015b828111156123a3578251825591602001919060010190612388565b5b5090506123b191906123b5565b5090565b5b808211156123ce5760008160009055506001016123b6565b5090565b600080fd5b600080fd5b60007fffffffff0000000000000000000000000000000000000000000000000000000082169050919050565b612411816123dc565b811461241c57600080fd5b50565b60008135905061242e81612408565b92915050565b60006020828403121561244a576124496123d2565b5b60006124588482850161241f565b91505092915050565b60008115159050919050565b61247681612461565b82525050565b6000602082019050612491600083018461246d565b92915050565b6000819050919050565b6124aa81612497565b81146124b557600080fd5b50565b6000813590506124c7816124a1565b92915050565b6000602082840312156124e3576124e26123d2565b5b60006124f1848285016124b8565b91505092915050565b600081519050919050565b600082825260208201905092915050565b60005b83811015612534578082015181840152602081019050612519565b83811115612543576000848401525b50505050565b6000601f19601f8301169050919050565b6000612565826124fa565b61256f8185612505565b935061257f818560208601612516565b61258881612549565b840191505092915050565b61259c81612497565b82525050565b600060408201905081810360008301526125bc818561255a565b90506125cb6020830184612593565b9392505050565b600073ffffffffffffffffffffffffffffffffffffffff82169050919050565b60006125fd826125d2565b9050919050565b61260d816125f2565b811461261857600080fd5b50565b60008135905061262a81612604565b92915050565b600060208284031215612646576126456123d2565b5b60006126548482850161261b565b91505092915050565b6000819050919050565b6126708161265d565b811461267b57600080fd5b50565b60008135905061268d81612667565b92915050565b6000602082840312156126a9576126a86123d2565b5b60006126b78482850161267e565b91505092915050565b6126c98161265d565b82525050565b60006020820190506126e460008301846126c0565b92915050565b60008060408385031215612701576127006123d2565b5b600061270f8582860161267e565b92505060206127208582860161261b565b9150509250929050565b600060208201905061273f6000830184612593565b92915050565b600080fd5b600080fd5b600080fd5b60008083601f84011261276a57612769612745565b5b8235905067ffffffffffffffff8111156127875761278661274a565b5b6020830191508360208202830111156127a3576127a261274f565b5b9250929050565b600080600080606085870312156127c4576127c36123d2565b5b60006127d28782880161261b565b94505060206127e38782880161261b565b935050604085013567ffffffffffffffff811115612804576128036123d7565b5b61281087828801612754565b925092505092959194509250565b600080fd5b6000604082840312156128395761283861281e565b5b81905092915050565b60008060408385031215612859576128586123d2565b5b6000612867858286016124b8565b925050602083013567ffffffffffffffff811115612888576128876123d7565b5b61289485828601612823565b9150509250929050565b60008083601f8401126128b4576128b3612745565b5b8235905067ffffffffffffffff8111156128d1576128d061274a565b5b6020830191508360018202830111156128ed576128ec61274f565b5b9250929050565b6000806000806060858703121561290e5761290d6123d2565b5b600061291c878288016124b8565b945050602061292d878288016124b8565b935050604085013567ffffffffffffffff81111561294e5761294d6123d7565b5b61295a8782880161289e565b925092505092959194509250565b612971816125f2565b82525050565b600060208201905061298c6000830184612968565b92915050565b60007fff0000000000000000000000000000000000000000000000000000000000000082169050919050565b6129c781612992565b82525050565b600081519050919050565b600082825260208201905092915050565b6000819050602082019050919050565b612a0281612497565b82525050565b6000612a1483836129f9565b60208301905092915050565b6000602082019050919050565b6000612a38826129cd565b612a4281856129d8565b9350612a4d836129e9565b8060005b83811015612a7e578151612a658882612a08565b9750612a7083612a20565b925050600181019050612a51565b5085935050505092915050565b600060e082019050612aa0600083018a6129be565b8181036020830152612ab2818961255a565b90508181036040830152612ac6818861255a565b9050612ad56060830187612593565b612ae26080830186612968565b612aef60a08301856126c0565b81810360c0830152612b018184612a2d565b905098975050505050505050565b60006020820190508181036000830152612b29818461255a565b905092915050565b7f4e487b7100000000000000000000000000000000000000000000000000000000600052602260045260246000fd5b60006002820490506001821680612b7857607f821691505b60208210811415612b8c57612b8b612b31565b5b50919050565b7f4f776e61626c655061757361626c653a206163636573732064656e6965640000600082015250565b6000612bc8601e83612505565b9150612bd382612b92565b602082019050919050565b60006020820190508181036000830152612bf781612bbb565b9050919050565b7f496e76616c69642044414f207472656173757279206164647265737300000000600082015250565b6000612c34601c83612505565b9150612c3f82612bfe565b602082019050919050565b60006020820190508181036000830152612c6381612c27565b9050919050565b7f416363657373436f6e74726f6c3a2063616e206f6e6c792072656e6f756e636560008201527f20726f6c657320666f722073656c660000000000000000000000000000000000602082015250565b6000612cc6602f83612505565b9150612cd182612c6a565b604082019050919050565b60006020820190508181036000830152612cf581612cb9565b9050919050565b7f496e697469616c697a61626c653a20636f6e747261637420697320616c72656160008201527f647920696e697469616c697a6564000000000000000000000000000000000000602082015250565b6000612d58602e83612505565b9150612d6382612cfc565b604082019050919050565b60006020820190508181036000830152612d8781612d4b565b9050919050565b7f496e76616c69642053756273637269626520706c616e73000000000000000000600082015250565b6000612dc4601783612505565b9150612dcf82612d8e565b602082019050919050565b60006020820190508181036000830152612df381612db7565b9050919050565b7f4e487b7100000000000000000000000000000000000000000000000000000000600052603260045260246000fd5b600080fd5b600080fd5b600080fd5b600082356001604003833603038112612e5457612e53612e29565b5b80830191505092915050565b60008083356001602003843603038112612e7d57612e7c612e29565b5b80840192508235915067ffffffffffffffff821115612e9f57612e9e612e2e565b5b602083019250600182023603831315612ebb57612eba612e33565b5b509250929050565b600082905092915050565b7f4e487b7100000000000000000000000000000000000000000000000000000000600052604160045260246000fd5b60008190508160005260206000209050919050565b60006020601f8301049050919050565b600082821b905092915050565b600060088302612f5f7fffffffffffffffffffffffffffffffffffffffffffffffffffffffffffffffff82612f22565b612f698683612f22565b95508019841693508086168417925050509392505050565b6000819050919050565b6000612fa6612fa1612f9c84612497565b612f81565b612497565b9050919050565b6000819050919050565b612fc083612f8b565b612fd4612fcc82612fad565b848454612f2f565b825550505050565b600090565b612fe9612fdc565b612ff4818484612fb7565b505050565b5b818110156130185761300d600082612fe1565b600181019050612ffa565b5050565b601f82111561305d5761302e81612efd565b61303784612f12565b81016020851015613046578190505b61305a61305285612f12565b830182612ff9565b50505b505050565b600082821c905092915050565b600061308060001984600802613062565b1980831691505092915050565b6000613099838361306f565b9150826002028217905092915050565b6130b38383612ec3565b67ffffffffffffffff8111156130cc576130cb612ece565b5b6130d68254612b60565b6130e182828561301c565b6000601f83116001811461311057600084156130fe578287013590505b613108858261308d565b865550613170565b601f19841661311e86612efd565b60005b8281101561314657848901358255600182019150602085019450602081019050613121565b86831015613163578489013561315f601f89168261306f565b8355505b6001600288020188555050505b50505050505050565b6131848383836130a9565b505050565b60008135613196816124a1565b80915050919050565b60008160001b9050919050565b60007fffffffffffffffffffffffffffffffffffffffffffffffffffffffffffffffff6131d88461319f565b9350801983169250808416831791505092915050565b6131f782612f8b565b61320a61320382612fad565b83546131ac565b8255505050565b60008101600083016132238185612e60565b61322e818386613179565b5050505060018101602083018061324481613189565b905061325081846131ee565b5050505050565b6132618282613211565b5050565b7f4e487b7100000000000000000000000000000000000000000000000000000000600052601160045260246000fd5b600061329f82612497565b91507fffffffffffffffffffffffffffffffffffffffffffffffffffffffffffffffff8214156132d2576132d1613265565b5b600182019050919050565b6000819050919050565b600060ff82169050919050565b600061330f61330a613305846132dd565b612f81565b6132e7565b9050919050565b61331f816132f4565b82525050565b600060208201905061333a6000830184613316565b92915050565b7f496e73756666696369656e74207061796d656e74000000000000000000000000600082015250565b6000613376601483612505565b915061338182613340565b602082019050919050565b600060208201905081810360008301526133a581613369565b9050919050565b60006080820190506133c160008301876126c0565b6133ce6020830186612968565b6133db6040830185612593565b6133e86060830184612593565b95945050505050565b600081905092915050565b7f1901000000000000000000000000000000000000000000000000000000000000600082015250565b60006134326002836133f1565b915061343d826133fc565b600282019050919050565b6000819050919050565b61346361345e8261265d565b613448565b82525050565b600061347482613425565b91506134808285613452565b6020820191506134908284613452565b6020820191508190509392505050565b7f496e76616c6964207369676e6174757265000000000000000000000000000000600082015250565b60006134d6601183612505565b91506134e1826134a0565b602082019050919050565b60006020820190508181036000830152613505816134c9565b9050919050565b600061351782612497565b915061352283612497565b9250817fffffffffffffffffffffffffffffffffffffffffffffffffffffffffffffffff048311821515161561355b5761355a613265565b5b828202905092915050565b7f4e487b7100000000000000000000000000000000000000000000000000000000600052601260045260246000fd5b60006135a082612497565b91506135ab83612497565b9250826135bb576135ba613566565b5b828204905092915050565b60006135d182612497565b91506135dc83612497565b9250828210156135ef576135ee613265565b5b828203905092915050565b600060608201905061360f6000830186612593565b61361c6020830185612593565b6136296040830184612593565b949350505050565b7f4549503731323a20556e696e697469616c697a65640000000000000000000000600082015250565b6000613667601583612505565b915061367282613631565b602082019050919050565b600060208201905081810360008301526136968161365a565b9050919050565b7f4d6f726967696e4170703a20696e76616c69642076616c756521000000000000600082015250565b60006136d3601a83612505565b91506136de8261369d565b602082019050919050565b60006020820190508181036000830152613702816136c6565b9050919050565b7f496e697469616c697a61626c653a20636f6e7472616374206973206e6f74206960008201527f6e697469616c697a696e67000000000000000000000000000000000000000000602082015250565b6000613765602b83612505565b915061377082613709565b604082019050919050565b6000602082019050818103600083015261379481613758565b9050919050565b7f416363657373436f6e74726f6c3a206163636f756e7420000000000000000000600082015250565b60006137d16017836133f1565b91506137dc8261379b565b601782019050919050565b60006137f2826124fa565b6137fc81856133f1565b935061380c818560208601612516565b80840191505092915050565b7f206973206d697373696e6720726f6c6520000000000000000000000000000000600082015250565b600061384e6011836133f1565b915061385982613818565b601182019050919050565b600061386f826137c4565b915061387b82856137e7565b915061388682613841565b915061389282846137e7565b91508190509392505050565b7f5061757361626c653a206e6f7420706175736564000000000000000000000000600082015250565b60006138d4601483612505565b91506138df8261389e565b602082019050919050565b60006020820190508181036000830152613903816138c7565b9050919050565b7f4e487b7100000000000000000000000000000000000000000000000000000000600052602160045260246000fd5b7f45434453413a20696e76616c6964207369676e61747572650000000000000000600082015250565b600061396f601883612505565b915061397a82613939565b602082019050919050565b6000602082019050818103600083015261399e81613962565b9050919050565b7f45434453413a20696e76616c6964207369676e6174757265206c656e67746800600082015250565b60006139db601f83612505565b91506139e6826139a5565b602082019050919050565b60006020820190508181036000830152613a0a816139ce565b9050919050565b7f45434453413a20696e76616c6964207369676e6174757265202773272076616c60008201527f7565000000000000000000000000000000000000000000000000000000000000602082015250565b6000613a6d602283612505565b9150613a7882613a11565b604082019050919050565b60006020820190508181036000830152613a9c81613a60565b9050919050565b7f5061757361626c653a2070617573656400000000000000000000000000000000600082015250565b6000613ad9601083612505565b9150613ae482613aa3565b602082019050919050565b60006020820190508181036000830152613b0881613acc565b9050919050565b6000613b1a82612497565b9150613b2583612497565b9250827fffffffffffffffffffffffffffffffffffffffffffffffffffffffffffffffff03821115613b5a57613b59613265565b5b828201905092915050565b6000613b7082612497565b91506000821415613b8457613b83613265565b5b600182039050919050565b7f537472696e67733a20686578206c656e67746820696e73756666696369656e74600082015250565b6000613bc5602083612505565b9150613bd082613b8f565b602082019050919050565b60006020820190508181036000830152613bf481613bb8565b9050919050565b613c04816132e7565b82525050565b6000608082019050613c1f60008301876126c0565b613c2c6020830186613bfb565b613c3960408301856126c0565b613c4660608301846126c0565b9594505050505056fe454950373132446f6d61696e28737472696e67206e616d652c737472696e672076657273696f6e2c75696e7432353620636861696e49642c6164647265737320766572696679696e67436f6e747261637429a2646970667358221220f74bbf1c9551feec564beaf41e9373eb6888c05775b51507370509a0afc206c664736f6c63430008090033","opcodes":"PUSH1 0x80 PUSH1 0x40 MSTORE CALLVALUE DUP1 ISZERO PUSH2 0x10 JUMPI PUSH1 0x0 DUP1 REVERT JUMPDEST POP PUSH2 0x3CD7 DUP1 PUSH2 0x20 PUSH1 0x0 CODECOPY PUSH1 0x0 RETURN INVALID PUSH1 0x80 PUSH1 0x40 MSTORE CALLVALUE DUP1 ISZERO PUSH2 0x10 JUMPI PUSH1 0x0 DUP1 REVERT JUMPDEST POP PUSH1 0x4 CALLDATASIZE LT PUSH2 0x1DA JUMPI PUSH1 0x0 CALLDATALOAD PUSH1 0xE0 SHR DUP1 PUSH4 0x6D3298CB GT PUSH2 0x104 JUMPI DUP1 PUSH4 0x8456CB59 GT PUSH2 0xA2 JUMPI DUP1 PUSH4 0xC7977BE7 GT PUSH2 0x71 JUMPI DUP1 PUSH4 0xC7977BE7 EQ PUSH2 0x534 JUMPI DUP1 PUSH4 0xD547741F EQ PUSH2 0x552 JUMPI DUP1 PUSH4 0xE63AB1E9 EQ PUSH2 0x56E JUMPI DUP1 PUSH4 0xF2407CA4 EQ PUSH2 0x58C JUMPI PUSH2 0x1DA JUMP JUMPDEST DUP1 PUSH4 0x8456CB59 EQ PUSH2 0x4B8 JUMPI DUP1 PUSH4 0x84B0196E EQ PUSH2 0x4C2 JUMPI DUP1 PUSH4 0x91D14854 EQ PUSH2 0x4E6 JUMPI DUP1 PUSH4 0xA217FDDF EQ PUSH2 0x516 JUMPI PUSH2 0x1DA JUMP JUMPDEST DUP1 PUSH4 0x76FE8EAD GT PUSH2 0xDE JUMPI DUP1 PUSH4 0x76FE8EAD EQ PUSH2 0x432 JUMPI DUP1 PUSH4 0x79022A9F EQ PUSH2 0x44E JUMPI DUP1 PUSH4 0x7ECEBE00 EQ PUSH2 0x46C JUMPI DUP1 PUSH4 0x82DC1EC4 EQ PUSH2 0x49C JUMPI PUSH2 0x1DA JUMP JUMPDEST DUP1 PUSH4 0x6D3298CB EQ PUSH2 0x3DC JUMPI DUP1 PUSH4 0x70480275 EQ PUSH2 0x3FA JUMPI DUP1 PUSH4 0x73C76980 EQ PUSH2 0x416 JUMPI PUSH2 0x1DA JUMP JUMPDEST DUP1 PUSH4 0x3644E515 GT PUSH2 0x17C JUMPI DUP1 PUSH4 0x46FBF68E GT PUSH2 0x14B JUMPI DUP1 PUSH4 0x46FBF68E EQ PUSH2 0x356 JUMPI DUP1 PUSH4 0x5C975ABB EQ PUSH2 0x386 JUMPI DUP1 PUSH4 0x5F429C1B EQ PUSH2 0x3A4 JUMPI DUP1 PUSH4 0x6B2C0F55 EQ PUSH2 0x3C0 JUMPI PUSH2 0x1DA JUMP JUMPDEST DUP1 PUSH4 0x3644E515 EQ PUSH2 0x2F4 JUMPI DUP1 PUSH4 0x36568ABE EQ PUSH2 0x312 JUMPI DUP1 PUSH4 0x3D538ECF EQ PUSH2 0x32E JUMPI DUP1 PUSH4 0x3F4BA83A EQ PUSH2 0x34C JUMPI PUSH2 0x1DA JUMP JUMPDEST DUP1 PUSH4 0x248A9CA3 GT PUSH2 0x1B8 JUMPI DUP1 PUSH4 0x248A9CA3 EQ PUSH2 0x25C JUMPI DUP1 PUSH4 0x24D7806C EQ PUSH2 0x28C JUMPI DUP1 PUSH4 0x2978DC3C EQ PUSH2 0x2BC JUMPI DUP1 PUSH4 0x2F2FF15D EQ PUSH2 0x2D8 JUMPI PUSH2 0x1DA JUMP JUMPDEST DUP1 PUSH4 0x1FFC9A7 EQ PUSH2 0x1DF JUMPI DUP1 PUSH4 0x39AF9EB EQ PUSH2 0x20F JUMPI DUP1 PUSH4 0x1785F53C EQ PUSH2 0x240 JUMPI JUMPDEST PUSH1 0x0 DUP1 REVERT JUMPDEST PUSH2 0x1F9 PUSH1 0x4 DUP1 CALLDATASIZE SUB DUP2 ADD SWAP1 PUSH2 0x1F4 SWAP2 SWAP1 PUSH2 0x2434 JUMP JUMPDEST PUSH2 0x5A8 JUMP JUMPDEST PUSH1 0x40 MLOAD PUSH2 0x206 SWAP2 SWAP1 PUSH2 0x247C JUMP JUMPDEST PUSH1 0x40 MLOAD DUP1 SWAP2 SUB SWAP1 RETURN JUMPDEST PUSH2 0x229 PUSH1 0x4 DUP1 CALLDATASIZE SUB DUP2 ADD SWAP1 PUSH2 0x224 SWAP2 SWAP1 PUSH2 0x24CD JUMP JUMPDEST PUSH2 0x622 JUMP JUMPDEST PUSH1 0x40 MLOAD PUSH2 0x237 SWAP3 SWAP2 SWAP1 PUSH2 0x25A2 JUMP JUMPDEST PUSH1 0x40 MLOAD DUP1 SWAP2 SUB SWAP1 RETURN JUMPDEST PUSH2 0x25A PUSH1 0x4 DUP1 CALLDATASIZE SUB DUP2 ADD SWAP1 PUSH2 0x255 SWAP2 SWAP1 PUSH2 0x2630 JUMP JUMPDEST PUSH2 0x6DE JUMP JUMPDEST STOP JUMPDEST PUSH2 0x276 PUSH1 0x4 DUP1 CALLDATASIZE SUB DUP2 ADD SWAP1 PUSH2 0x271 SWAP2 SWAP1 PUSH2 0x2693 JUMP JUMPDEST PUSH2 0x6EE JUMP JUMPDEST PUSH1 0x40 MLOAD PUSH2 0x283 SWAP2 SWAP1 PUSH2 0x26CF JUMP JUMPDEST PUSH1 0x40 MLOAD DUP1 SWAP2 SUB SWAP1 RETURN JUMPDEST PUSH2 0x2A6 PUSH1 0x4 DUP1 CALLDATASIZE SUB DUP2 ADD SWAP1 PUSH2 0x2A1 SWAP2 SWAP1 PUSH2 0x2630 JUMP JUMPDEST PUSH2 0x70E JUMP JUMPDEST PUSH1 0x40 MLOAD PUSH2 0x2B3 SWAP2 SWAP1 PUSH2 0x247C JUMP JUMPDEST PUSH1 0x40 MLOAD DUP1 SWAP2 SUB SWAP1 RETURN JUMPDEST PUSH2 0x2D6 PUSH1 0x4 DUP1 CALLDATASIZE SUB DUP2 ADD SWAP1 PUSH2 0x2D1 SWAP2 SWAP1 PUSH2 0x2630 JUMP JUMPDEST PUSH2 0x724 JUMP JUMPDEST STOP JUMPDEST PUSH2 0x2F2 PUSH1 0x4 DUP1 CALLDATASIZE SUB DUP2 ADD SWAP1 PUSH2 0x2ED SWAP2 SWAP1 PUSH2 0x26EA JUMP JUMPDEST PUSH2 0x824 JUMP JUMPDEST STOP JUMPDEST PUSH2 0x2FC PUSH2 0x845 JUMP JUMPDEST PUSH1 0x40 MLOAD PUSH2 0x309 SWAP2 SWAP1 PUSH2 0x26CF JUMP JUMPDEST PUSH1 0x40 MLOAD DUP1 SWAP2 SUB SWAP1 RETURN JUMPDEST PUSH2 0x32C PUSH1 0x4 DUP1 CALLDATASIZE SUB DUP2 ADD SWAP1 PUSH2 0x327 SWAP2 SWAP1 PUSH2 0x26EA JUMP JUMPDEST PUSH2 0x84C JUMP JUMPDEST STOP JUMPDEST PUSH2 0x336 PUSH2 0x8CF JUMP JUMPDEST PUSH1 0x40 MLOAD PUSH2 0x343 SWAP2 SWAP1 PUSH2 0x272A JUMP JUMPDEST PUSH1 0x40 MLOAD DUP1 SWAP2 SUB SWAP1 RETURN JUMPDEST PUSH2 0x354 PUSH2 0x8D5 JUMP JUMPDEST STOP JUMPDEST PUSH2 0x370 PUSH1 0x4 DUP1 CALLDATASIZE SUB DUP2 ADD SWAP1 PUSH2 0x36B SWAP2 SWAP1 PUSH2 0x2630 JUMP JUMPDEST PUSH2 0x948 JUMP JUMPDEST PUSH1 0x40 MLOAD PUSH2 0x37D SWAP2 SWAP1 PUSH2 0x247C JUMP JUMPDEST PUSH1 0x40 MLOAD DUP1 SWAP2 SUB SWAP1 RETURN JUMPDEST PUSH2 0x38E PUSH2 0x97B JUMP JUMPDEST PUSH1 0x40 MLOAD PUSH2 0x39B SWAP2 SWAP1 PUSH2 0x247C JUMP JUMPDEST PUSH1 0x40 MLOAD DUP1 SWAP2 SUB SWAP1 RETURN JUMPDEST PUSH2 0x3BE PUSH1 0x4 DUP1 CALLDATASIZE SUB DUP2 ADD SWAP1 PUSH2 0x3B9 SWAP2 SWAP1 PUSH2 0x27AA JUMP JUMPDEST PUSH2 0x992 JUMP JUMPDEST STOP JUMPDEST PUSH2 0x3DA PUSH1 0x4 DUP1 CALLDATASIZE SUB DUP2 ADD SWAP1 PUSH2 0x3D5 SWAP2 SWAP1 PUSH2 0x2630 JUMP JUMPDEST PUSH2 0xCC0 JUMP JUMPDEST STOP JUMPDEST PUSH2 0x3E4 PUSH2 0xCED JUMP JUMPDEST PUSH1 0x40 MLOAD PUSH2 0x3F1 SWAP2 SWAP1 PUSH2 0x26CF JUMP JUMPDEST PUSH1 0x40 MLOAD DUP1 SWAP2 SUB SWAP1 RETURN JUMPDEST PUSH2 0x414 PUSH1 0x4 DUP1 CALLDATASIZE SUB DUP2 ADD SWAP1 PUSH2 0x40F SWAP2 SWAP1 PUSH2 0x2630 JUMP JUMPDEST PUSH2 0xD11 JUMP JUMPDEST STOP JUMPDEST PUSH2 0x430 PUSH1 0x4 DUP1 CALLDATASIZE SUB DUP2 ADD SWAP1 PUSH2 0x42B SWAP2 SWAP1 PUSH2 0x2842 JUMP JUMPDEST PUSH2 0xD21 JUMP JUMPDEST STOP JUMPDEST PUSH2 0x44C PUSH1 0x4 DUP1 CALLDATASIZE SUB DUP2 ADD SWAP1 PUSH2 0x447 SWAP2 SWAP1 PUSH2 0x28F4 JUMP JUMPDEST PUSH2 0xDA3 JUMP JUMPDEST STOP JUMPDEST PUSH2 0x456 PUSH2 0x1066 JUMP JUMPDEST PUSH1 0x40 MLOAD PUSH2 0x463 SWAP2 SWAP1 PUSH2 0x2977 JUMP JUMPDEST PUSH1 0x40 MLOAD DUP1 SWAP2 SUB SWAP1 RETURN JUMPDEST PUSH2 0x486 PUSH1 0x4 DUP1 CALLDATASIZE SUB DUP2 ADD SWAP1 PUSH2 0x481 SWAP2 SWAP1 PUSH2 0x2630 JUMP JUMPDEST PUSH2 0x108C JUMP JUMPDEST PUSH1 0x40 MLOAD PUSH2 0x493 SWAP2 SWAP1 PUSH2 0x272A JUMP JUMPDEST PUSH1 0x40 MLOAD DUP1 SWAP2 SUB SWAP1 RETURN JUMPDEST PUSH2 0x4B6 PUSH1 0x4 DUP1 CALLDATASIZE SUB DUP2 ADD SWAP1 PUSH2 0x4B1 SWAP2 SWAP1 PUSH2 0x2630 JUMP JUMPDEST PUSH2 0x10A5 JUMP JUMPDEST STOP JUMPDEST PUSH2 0x4C0 PUSH2 0x10D2 JUMP JUMPDEST STOP JUMPDEST PUSH2 0x4CA PUSH2 0x1145 JUMP JUMPDEST PUSH1 0x40 MLOAD PUSH2 0x4DD SWAP8 SWAP7 SWAP6 SWAP5 SWAP4 SWAP3 SWAP2 SWAP1 PUSH2 0x2A8B JUMP JUMPDEST PUSH1 0x40 MLOAD DUP1 SWAP2 SUB SWAP1 RETURN JUMPDEST PUSH2 0x500 PUSH1 0x4 DUP1 CALLDATASIZE SUB DUP2 ADD SWAP1 PUSH2 0x4FB SWAP2 SWAP1 PUSH2 0x26EA JUMP JUMPDEST PUSH2 0x1246 JUMP JUMPDEST PUSH1 0x40 MLOAD PUSH2 0x50D SWAP2 SWAP1 PUSH2 0x247C JUMP JUMPDEST PUSH1 0x40 MLOAD DUP1 SWAP2 SUB SWAP1 RETURN JUMPDEST PUSH2 0x51E PUSH2 0x12B1 JUMP JUMPDEST PUSH1 0x40 MLOAD PUSH2 0x52B SWAP2 SWAP1 PUSH2 0x26CF JUMP JUMPDEST PUSH1 0x40 MLOAD DUP1 SWAP2 SUB SWAP1 RETURN JUMPDEST PUSH2 0x53C PUSH2 0x12B8 JUMP JUMPDEST PUSH1 0x40 MLOAD PUSH2 0x549 SWAP2 SWAP1 PUSH2 0x2B0F JUMP JUMPDEST PUSH1 0x40 MLOAD DUP1 SWAP2 SUB SWAP1 RETURN JUMPDEST PUSH2 0x56C PUSH1 0x4 DUP1 CALLDATASIZE SUB DUP2 ADD SWAP1 PUSH2 0x567 SWAP2 SWAP1 PUSH2 0x26EA JUMP JUMPDEST PUSH2 0x12D4 JUMP JUMPDEST STOP JUMPDEST PUSH2 0x576 PUSH2 0x12F5 JUMP JUMPDEST PUSH1 0x40 MLOAD PUSH2 0x583 SWAP2 SWAP1 PUSH2 0x26CF JUMP JUMPDEST PUSH1 0x40 MLOAD DUP1 SWAP2 SUB SWAP1 RETURN JUMPDEST PUSH2 0x5A6 PUSH1 0x4 DUP1 CALLDATASIZE SUB DUP2 ADD SWAP1 PUSH2 0x5A1 SWAP2 SWAP1 PUSH2 0x24CD JUMP JUMPDEST PUSH2 0x1319 JUMP JUMPDEST STOP JUMPDEST PUSH1 0x0 PUSH32 0x7965DB0B00000000000000000000000000000000000000000000000000000000 PUSH28 0xFFFFFFFFFFFFFFFFFFFFFFFFFFFFFFFFFFFFFFFFFFFFFFFFFFFFFFFF NOT AND DUP3 PUSH28 0xFFFFFFFFFFFFFFFFFFFFFFFFFFFFFFFFFFFFFFFFFFFFFFFFFFFFFFFF NOT AND EQ DUP1 PUSH2 0x61B JUMPI POP PUSH2 0x61A DUP3 PUSH2 0x13B2 JUMP JUMPDEST JUMPDEST SWAP1 POP SWAP2 SWAP1 POP JUMP JUMPDEST PUSH1 0xFF DUP2 DUP2 SLOAD DUP2 LT PUSH2 0x632 JUMPI PUSH1 0x0 DUP1 REVERT JUMPDEST SWAP1 PUSH1 0x0 MSTORE PUSH1 0x20 PUSH1 0x0 KECCAK256 SWAP1 PUSH1 0x2 MUL ADD PUSH1 0x0 SWAP2 POP SWAP1 POP DUP1 PUSH1 0x0 ADD DUP1 SLOAD PUSH2 0x655 SWAP1 PUSH2 0x2B60 JUMP JUMPDEST DUP1 PUSH1 0x1F ADD PUSH1 0x20 DUP1 SWAP2 DIV MUL PUSH1 0x20 ADD PUSH1 0x40 MLOAD SWAP1 DUP2 ADD PUSH1 0x40 MSTORE DUP1 SWAP3 SWAP2 SWAP1 DUP2 DUP2 MSTORE PUSH1 0x20 ADD DUP3 DUP1 SLOAD PUSH2 0x681 SWAP1 PUSH2 0x2B60 JUMP JUMPDEST DUP1 ISZERO PUSH2 0x6CE JUMPI DUP1 PUSH1 0x1F LT PUSH2 0x6A3 JUMPI PUSH2 0x100 DUP1 DUP4 SLOAD DIV MUL DUP4 MSTORE SWAP2 PUSH1 0x20 ADD SWAP2 PUSH2 0x6CE JUMP JUMPDEST DUP3 ADD SWAP2 SWAP1 PUSH1 0x0 MSTORE PUSH1 0x20 PUSH1 0x0 KECCAK256 SWAP1 JUMPDEST DUP2 SLOAD DUP2 MSTORE SWAP1 PUSH1 0x1 ADD SWAP1 PUSH1 0x20 ADD DUP1 DUP4 GT PUSH2 0x6B1 JUMPI DUP3 SWAP1 SUB PUSH1 0x1F AND DUP3 ADD SWAP2 JUMPDEST POP POP POP POP POP SWAP1 DUP1 PUSH1 0x1 ADD SLOAD SWAP1 POP DUP3 JUMP JUMPDEST PUSH2 0x6EB PUSH1 0x0 DUP1 SHL DUP3 PUSH2 0x12D4 JUMP JUMPDEST POP JUMP JUMPDEST PUSH1 0x0 PUSH1 0xCB PUSH1 0x0 DUP4 DUP2 MSTORE PUSH1 0x20 ADD SWAP1 DUP2 MSTORE PUSH1 0x20 ADD PUSH1 0x0 KECCAK256 PUSH1 0x1 ADD SLOAD SWAP1 POP SWAP2 SWAP1 POP JUMP JUMPDEST PUSH1 0x0 PUSH2 0x71D PUSH1 0x0 DUP1 SHL DUP4 PUSH2 0x1246 JUMP JUMPDEST SWAP1 POP SWAP2 SWAP1 POP JUMP JUMPDEST PUSH2 0x731 PUSH1 0x0 DUP1 SHL CALLER PUSH2 0x1246 JUMP JUMPDEST PUSH2 0x770 JUMPI PUSH1 0x40 MLOAD PUSH32 0x8C379A000000000000000000000000000000000000000000000000000000000 DUP2 MSTORE PUSH1 0x4 ADD PUSH2 0x767 SWAP1 PUSH2 0x2BDE JUMP JUMPDEST PUSH1 0x40 MLOAD DUP1 SWAP2 SUB SWAP1 REVERT JUMPDEST PUSH1 0x0 PUSH20 0xFFFFFFFFFFFFFFFFFFFFFFFFFFFFFFFFFFFFFFFF AND DUP2 PUSH20 0xFFFFFFFFFFFFFFFFFFFFFFFFFFFFFFFFFFFFFFFF AND EQ ISZERO PUSH2 0x7E0 JUMPI PUSH1 0x40 MLOAD PUSH32 0x8C379A000000000000000000000000000000000000000000000000000000000 DUP2 MSTORE PUSH1 0x4 ADD PUSH2 0x7D7 SWAP1 PUSH2 0x2C4A JUMP JUMPDEST PUSH1 0x40 MLOAD DUP1 SWAP2 SUB SWAP1 REVERT JUMPDEST DUP1 PUSH1 0xFE PUSH1 0x0 PUSH2 0x100 EXP DUP2 SLOAD DUP2 PUSH20 0xFFFFFFFFFFFFFFFFFFFFFFFFFFFFFFFFFFFFFFFF MUL NOT AND SWAP1 DUP4 PUSH20 0xFFFFFFFFFFFFFFFFFFFFFFFFFFFFFFFFFFFFFFFF AND MUL OR SWAP1 SSTORE POP POP JUMP JUMPDEST PUSH2 0x82D DUP3 PUSH2 0x6EE JUMP JUMPDEST PUSH2 0x836 DUP2 PUSH2 0x141C JUMP JUMPDEST PUSH2 0x840 DUP4 DUP4 PUSH2 0x1430 JUMP JUMPDEST POP POP POP JUMP JUMPDEST PUSH2 0x100 SLOAD DUP2 JUMP JUMPDEST PUSH2 0x854 PUSH2 0x1511 JUMP JUMPDEST PUSH20 0xFFFFFFFFFFFFFFFFFFFFFFFFFFFFFFFFFFFFFFFF AND DUP2 PUSH20 0xFFFFFFFFFFFFFFFFFFFFFFFFFFFFFFFFFFFFFFFF AND EQ PUSH2 0x8C1 JUMPI PUSH1 0x40 MLOAD PUSH32 0x8C379A000000000000000000000000000000000000000000000000000000000 DUP2 MSTORE PUSH1 0x4 ADD PUSH2 0x8B8 SWAP1 PUSH2 0x2CDC JUMP JUMPDEST PUSH1 0x40 MLOAD DUP1 SWAP2 SUB SWAP1 REVERT JUMPDEST PUSH2 0x8CB DUP3 DUP3 PUSH2 0x1519 JUMP JUMPDEST POP POP JUMP JUMPDEST PUSH1 0xFD SLOAD DUP2 JUMP JUMPDEST PUSH2 0x8FF PUSH32 0x65D7A28E3265B37A6474929F336521B332C1681B933F6CB9F3376673440D862A CALLER PUSH2 0x1246 JUMP JUMPDEST PUSH2 0x93E JUMPI PUSH1 0x40 MLOAD PUSH32 0x8C379A000000000000000000000000000000000000000000000000000000000 DUP2 MSTORE PUSH1 0x4 ADD PUSH2 0x935 SWAP1 PUSH2 0x2BDE JUMP JUMPDEST PUSH1 0x40 MLOAD DUP1 SWAP2 SUB SWAP1 REVERT JUMPDEST PUSH2 0x946 PUSH2 0x15FB JUMP JUMPDEST JUMP JUMPDEST PUSH1 0x0 PUSH2 0x974 PUSH32 0x65D7A28E3265B37A6474929F336521B332C1681B933F6CB9F3376673440D862A DUP4 PUSH2 0x1246 JUMP JUMPDEST SWAP1 POP SWAP2 SWAP1 POP JUMP JUMPDEST PUSH1 0x0 PUSH1 0x67 PUSH1 0x0 SWAP1 SLOAD SWAP1 PUSH2 0x100 EXP SWAP1 DIV PUSH1 0xFF AND SWAP1 POP SWAP1 JUMP JUMPDEST PUSH1 0x0 DUP1 PUSH1 0x1 SWAP1 SLOAD SWAP1 PUSH2 0x100 EXP SWAP1 DIV PUSH1 0xFF AND ISZERO SWAP1 POP DUP1 DUP1 ISZERO PUSH2 0x9C3 JUMPI POP PUSH1 0x1 PUSH1 0x0 DUP1 SLOAD SWAP1 PUSH2 0x100 EXP SWAP1 DIV PUSH1 0xFF AND PUSH1 0xFF AND LT JUMPDEST DUP1 PUSH2 0x9F0 JUMPI POP PUSH2 0x9D2 ADDRESS PUSH2 0x165E JUMP JUMPDEST ISZERO DUP1 ISZERO PUSH2 0x9EF JUMPI POP PUSH1 0x1 PUSH1 0x0 DUP1 SLOAD SWAP1 PUSH2 0x100 EXP SWAP1 DIV PUSH1 0xFF AND PUSH1 0xFF AND EQ JUMPDEST JUMPDEST PUSH2 0xA2F JUMPI PUSH1 0x40 MLOAD PUSH32 0x8C379A000000000000000000000000000000000000000000000000000000000 DUP2 MSTORE PUSH1 0x4 ADD PUSH2 0xA26 SWAP1 PUSH2 0x2D6E JUMP JUMPDEST PUSH1 0x40 MLOAD DUP1 SWAP2 SUB SWAP1 REVERT JUMPDEST PUSH1 0x1 PUSH1 0x0 DUP1 PUSH2 0x100 EXP DUP2 SLOAD DUP2 PUSH1 0xFF MUL NOT AND SWAP1 DUP4 PUSH1 0xFF AND MUL OR SWAP1 SSTORE POP DUP1 ISZERO PUSH2 0xA6C JUMPI PUSH1 0x1 PUSH1 0x0 PUSH1 0x1 PUSH2 0x100 EXP DUP2 SLOAD DUP2 PUSH1 0xFF MUL NOT AND SWAP1 DUP4 ISZERO ISZERO MUL OR SWAP1 SSTORE POP JUMPDEST PUSH1 0x0 PUSH20 0xFFFFFFFFFFFFFFFFFFFFFFFFFFFFFFFFFFFFFFFF AND DUP5 PUSH20 0xFFFFFFFFFFFFFFFFFFFFFFFFFFFFFFFFFFFFFFFF AND EQ ISZERO PUSH2 0xADC JUMPI PUSH1 0x40 MLOAD PUSH32 0x8C379A000000000000000000000000000000000000000000000000000000000 DUP2 MSTORE PUSH1 0x4 ADD PUSH2 0xAD3 SWAP1 PUSH2 0x2C4A JUMP JUMPDEST PUSH1 0x40 MLOAD DUP1 SWAP2 SUB SWAP1 REVERT JUMPDEST PUSH1 0x1 DUP4 DUP4 SWAP1 POP GT PUSH2 0xB22 JUMPI PUSH1 0x40 MLOAD PUSH32 0x8C379A000000000000000000000000000000000000000000000000000000000 DUP2 MSTORE PUSH1 0x4 ADD PUSH2 0xB19 SWAP1 PUSH2 0x2DDA JUMP JUMPDEST PUSH1 0x40 MLOAD DUP1 SWAP2 SUB SWAP1 REVERT JUMPDEST PUSH2 0xB2B DUP6 PUSH2 0x1681 JUMP JUMPDEST PUSH2 0xB9F PUSH1 0x40 MLOAD DUP1 PUSH1 0x40 ADD PUSH1 0x40 MSTORE DUP1 PUSH1 0x11 DUP2 MSTORE PUSH1 0x20 ADD PUSH32 0x426C6F636B73636F70655061796D656E74000000000000000000000000000000 DUP2 MSTORE POP PUSH1 0x40 MLOAD DUP1 PUSH1 0x40 ADD PUSH1 0x40 MSTORE DUP1 PUSH1 0x1 DUP2 MSTORE PUSH1 0x20 ADD PUSH32 0x3100000000000000000000000000000000000000000000000000000000000000 DUP2 MSTORE POP PUSH2 0x17E1 JUMP JUMPDEST DUP4 PUSH1 0xFE PUSH1 0x0 PUSH2 0x100 EXP DUP2 SLOAD DUP2 PUSH20 0xFFFFFFFFFFFFFFFFFFFFFFFFFFFFFFFFFFFFFFFF MUL NOT AND SWAP1 DUP4 PUSH20 0xFFFFFFFFFFFFFFFFFFFFFFFFFFFFFFFFFFFFFFFF AND MUL OR SWAP1 SSTORE POP PUSH1 0x0 JUMPDEST DUP4 DUP4 SWAP1 POP DUP2 LT ISZERO PUSH2 0xC5F JUMPI PUSH1 0xFF DUP5 DUP5 DUP4 DUP2 DUP2 LT PUSH2 0xC03 JUMPI PUSH2 0xC02 PUSH2 0x2DFA JUMP JUMPDEST JUMPDEST SWAP1 POP PUSH1 0x20 MUL DUP2 ADD SWAP1 PUSH2 0xC15 SWAP2 SWAP1 PUSH2 0x2E38 JUMP JUMPDEST SWAP1 DUP1 PUSH1 0x1 DUP2 SLOAD ADD DUP1 DUP3 SSTORE DUP1 SWAP2 POP POP PUSH1 0x1 SWAP1 SUB SWAP1 PUSH1 0x0 MSTORE PUSH1 0x20 PUSH1 0x0 KECCAK256 SWAP1 PUSH1 0x2 MUL ADD PUSH1 0x0 SWAP1 SWAP2 SWAP1 SWAP2 SWAP1 SWAP2 POP DUP2 DUP2 PUSH2 0xC4A SWAP2 SWAP1 PUSH2 0x3257 JUMP JUMPDEST POP POP DUP1 DUP1 PUSH2 0xC57 SWAP1 PUSH2 0x3294 JUMP JUMPDEST SWAP2 POP POP PUSH2 0xBE3 JUMP JUMPDEST POP DUP1 ISZERO PUSH2 0xCB9 JUMPI PUSH1 0x0 DUP1 PUSH1 0x1 PUSH2 0x100 EXP DUP2 SLOAD DUP2 PUSH1 0xFF MUL NOT AND SWAP1 DUP4 ISZERO ISZERO MUL OR SWAP1 SSTORE POP PUSH32 0x7F26B83FF96E1F2B6A682F133852F6798A09C465DA95921460CEFB3847402498 PUSH1 0x1 PUSH1 0x40 MLOAD PUSH2 0xCB0 SWAP2 SWAP1 PUSH2 0x3325 JUMP JUMPDEST PUSH1 0x40 MLOAD DUP1 SWAP2 SUB SWAP1 LOG1 JUMPDEST POP POP POP POP POP JUMP JUMPDEST PUSH2 0xCEA PUSH32 0x65D7A28E3265B37A6474929F336521B332C1681B933F6CB9F3376673440D862A DUP3 PUSH2 0x12D4 JUMP JUMPDEST POP JUMP JUMPDEST PUSH32 0xC3DC13D682BB4BAF646A38A970D2B8630EE8847786806B062C7EAD58F976DF81 DUP2 JUMP JUMPDEST PUSH2 0xD1E PUSH1 0x0 DUP1 SHL DUP3 PUSH2 0x824 JUMP JUMPDEST POP JUMP JUMPDEST PUSH2 0xD2E PUSH1 0x0 DUP1 SHL CALLER PUSH2 0x1246 JUMP JUMPDEST PUSH2 0xD6D JUMPI PUSH1 0x40 MLOAD PUSH32 0x8C379A000000000000000000000000000000000000000000000000000000000 DUP2 MSTORE PUSH1 0x4 ADD PUSH2 0xD64 SWAP1 PUSH2 0x2BDE JUMP JUMPDEST PUSH1 0x40 MLOAD DUP1 SWAP2 SUB SWAP1 REVERT JUMPDEST DUP1 PUSH1 0xFF DUP4 DUP2 SLOAD DUP2 LT PUSH2 0xD82 JUMPI PUSH2 0xD81 PUSH2 0x2DFA JUMP JUMPDEST JUMPDEST SWAP1 PUSH1 0x0 MSTORE PUSH1 0x20 PUSH1 0x0 KECCAK256 SWAP1 PUSH1 0x2 MUL ADD DUP2 DUP2 PUSH2 0xD9C SWAP2 SWAP1 PUSH2 0x3257 JUMP JUMPDEST SWAP1 POP POP POP POP JUMP JUMPDEST PUSH1 0xFF DUP4 DUP2 SLOAD DUP2 LT PUSH2 0xDB7 JUMPI PUSH2 0xDB6 PUSH2 0x2DFA JUMP JUMPDEST JUMPDEST SWAP1 PUSH1 0x0 MSTORE PUSH1 0x20 PUSH1 0x0 KECCAK256 SWAP1 PUSH1 0x2 MUL ADD PUSH1 0x1 ADD SLOAD DUP5 LT ISZERO PUSH2 0xE0B JUMPI PUSH1 0x40 MLOAD PUSH32 0x8C379A000000000000000000000000000000000000000000000000000000000 DUP2 MSTORE PUSH1 0x4 ADD PUSH2 0xE02 SWAP1 PUSH2 0x338C JUMP JUMPDEST PUSH1 0x40 MLOAD DUP1 SWAP2 SUB SWAP1 REVERT JUMPDEST PUSH1 0x0 PUSH2 0x100 SLOAD PUSH32 0xC3DC13D682BB4BAF646A38A970D2B8630EE8847786806B062C7EAD58F976DF81 CALLER DUP8 PUSH2 0x101 PUSH1 0x0 CALLER PUSH20 0xFFFFFFFFFFFFFFFFFFFFFFFFFFFFFFFFFFFFFFFF AND PUSH20 0xFFFFFFFFFFFFFFFFFFFFFFFFFFFFFFFFFFFFFFFF AND DUP2 MSTORE PUSH1 0x20 ADD SWAP1 DUP2 MSTORE PUSH1 0x20 ADD PUSH1 0x0 KECCAK256 PUSH1 0x0 DUP2 SLOAD DUP1 SWAP3 SWAP2 SWAP1 PUSH2 0xE85 SWAP1 PUSH2 0x3294 JUMP JUMPDEST SWAP2 SWAP1 POP SSTORE PUSH1 0x40 MLOAD PUSH1 0x20 ADD PUSH2 0xE9C SWAP5 SWAP4 SWAP3 SWAP2 SWAP1 PUSH2 0x33AC JUMP JUMPDEST PUSH1 0x40 MLOAD PUSH1 0x20 DUP2 DUP4 SUB SUB DUP2 MSTORE SWAP1 PUSH1 0x40 MSTORE DUP1 MLOAD SWAP1 PUSH1 0x20 ADD KECCAK256 PUSH1 0x40 MLOAD PUSH1 0x20 ADD PUSH2 0xEC3 SWAP3 SWAP2 SWAP1 PUSH2 0x3469 JUMP JUMPDEST PUSH1 0x40 MLOAD PUSH1 0x20 DUP2 DUP4 SUB SUB DUP2 MSTORE SWAP1 PUSH1 0x40 MSTORE DUP1 MLOAD SWAP1 PUSH1 0x20 ADD KECCAK256 SWAP1 POP PUSH1 0x0 PUSH2 0xF34 DUP5 DUP5 DUP1 DUP1 PUSH1 0x1F ADD PUSH1 0x20 DUP1 SWAP2 DIV MUL PUSH1 0x20 ADD PUSH1 0x40 MLOAD SWAP1 DUP2 ADD PUSH1 0x40 MSTORE DUP1 SWAP4 SWAP3 SWAP2 SWAP1 DUP2 DUP2 MSTORE PUSH1 0x20 ADD DUP4 DUP4 DUP1 DUP3 DUP5 CALLDATACOPY PUSH1 0x0 DUP2 DUP5 ADD MSTORE PUSH1 0x1F NOT PUSH1 0x1F DUP3 ADD AND SWAP1 POP DUP1 DUP4 ADD SWAP3 POP POP POP POP POP POP POP DUP4 PUSH2 0x183E SWAP1 SWAP2 SWAP1 PUSH4 0xFFFFFFFF AND JUMP JUMPDEST SWAP1 POP PUSH1 0x0 PUSH20 0xFFFFFFFFFFFFFFFFFFFFFFFFFFFFFFFFFFFFFFFF AND DUP2 PUSH20 0xFFFFFFFFFFFFFFFFFFFFFFFFFFFFFFFFFFFFFFFF AND EQ ISZERO DUP1 ISZERO PUSH2 0xF9E JUMPI POP CALLER PUSH20 0xFFFFFFFFFFFFFFFFFFFFFFFFFFFFFFFFFFFFFFFF AND DUP2 PUSH20 0xFFFFFFFFFFFFFFFFFFFFFFFFFFFFFFFFFFFFFFFF AND EQ JUMPDEST PUSH2 0xFDD JUMPI PUSH1 0x40 MLOAD PUSH32 0x8C379A000000000000000000000000000000000000000000000000000000000 DUP2 MSTORE PUSH1 0x4 ADD PUSH2 0xFD4 SWAP1 PUSH2 0x34EC JUMP JUMPDEST PUSH1 0x40 MLOAD DUP1 SWAP2 SUB SWAP1 REVERT JUMPDEST PUSH1 0x0 PUSH1 0x64 PUSH1 0x55 DUP9 PUSH2 0xFEE SWAP2 SWAP1 PUSH2 0x350C JUMP JUMPDEST PUSH2 0xFF8 SWAP2 SWAP1 PUSH2 0x3595 JUMP JUMPDEST SWAP1 POP PUSH1 0x0 DUP2 DUP9 PUSH2 0x1008 SWAP2 SWAP1 PUSH2 0x35C6 JUMP JUMPDEST SWAP1 POP CALLER PUSH20 0xFFFFFFFFFFFFFFFFFFFFFFFFFFFFFFFFFFFFFFFF AND PUSH32 0x750E6BBEDD4312ADA35CAA75E07FC0B85F1A6FC9C675E6962AEF846918711097 DUP10 DUP5 DUP5 PUSH1 0x40 MLOAD PUSH2 0x1054 SWAP4 SWAP3 SWAP2 SWAP1 PUSH2 0x35FA JUMP JUMPDEST PUSH1 0x40 MLOAD DUP1 SWAP2 SUB SWAP1 LOG2 POP POP POP POP POP POP POP POP JUMP JUMPDEST PUSH1 0xFE PUSH1 0x0 SWAP1 SLOAD SWAP1 PUSH2 0x100 EXP SWAP1 DIV PUSH20 0xFFFFFFFFFFFFFFFFFFFFFFFFFFFFFFFFFFFFFFFF AND DUP2 JUMP JUMPDEST PUSH2 0x101 PUSH1 0x20 MSTORE DUP1 PUSH1 0x0 MSTORE PUSH1 0x40 PUSH1 0x0 KECCAK256 PUSH1 0x0 SWAP2 POP SWAP1 POP SLOAD DUP2 JUMP JUMPDEST PUSH2 0x10CF PUSH32 0x65D7A28E3265B37A6474929F336521B332C1681B933F6CB9F3376673440D862A DUP3 PUSH2 0x824 JUMP JUMPDEST POP JUMP JUMPDEST PUSH2 0x10FC PUSH32 0x65D7A28E3265B37A6474929F336521B332C1681B933F6CB9F3376673440D862A CALLER PUSH2 0x1246 JUMP JUMPDEST PUSH2 0x113B JUMPI PUSH1 0x40 MLOAD PUSH32 0x8C379A000000000000000000000000000000000000000000000000000000000 DUP2 MSTORE PUSH1 0x4 ADD PUSH2 0x1132 SWAP1 PUSH2 0x2BDE JUMP JUMPDEST PUSH1 0x40 MLOAD DUP1 SWAP2 SUB SWAP1 REVERT JUMPDEST PUSH2 0x1143 PUSH2 0x1865 JUMP JUMPDEST JUMP JUMPDEST PUSH1 0x0 PUSH1 0x60 DUP1 PUSH1 0x0 DUP1 PUSH1 0x0 PUSH1 0x60 PUSH1 0x0 DUP1 SHL PUSH1 0x1 SLOAD EQ DUP1 ISZERO PUSH2 0x1169 JUMPI POP PUSH1 0x0 DUP1 SHL PUSH1 0x2 SLOAD EQ JUMPDEST PUSH2 0x11A8 JUMPI PUSH1 0x40 MLOAD PUSH32 0x8C379A000000000000000000000000000000000000000000000000000000000 DUP2 MSTORE PUSH1 0x4 ADD PUSH2 0x119F SWAP1 PUSH2 0x367D JUMP JUMPDEST PUSH1 0x40 MLOAD DUP1 SWAP2 SUB SWAP1 REVERT JUMPDEST PUSH2 0x11B0 PUSH2 0x18C8 JUMP JUMPDEST PUSH2 0x11B8 PUSH2 0x195A JUMP JUMPDEST CHAINID ADDRESS PUSH1 0x0 DUP1 SHL PUSH1 0x0 PUSH8 0xFFFFFFFFFFFFFFFF DUP2 GT ISZERO PUSH2 0x11D9 JUMPI PUSH2 0x11D8 PUSH2 0x2ECE JUMP JUMPDEST JUMPDEST PUSH1 0x40 MLOAD SWAP1 DUP1 DUP3 MSTORE DUP1 PUSH1 0x20 MUL PUSH1 0x20 ADD DUP3 ADD PUSH1 0x40 MSTORE DUP1 ISZERO PUSH2 0x1207 JUMPI DUP2 PUSH1 0x20 ADD PUSH1 0x20 DUP3 MUL DUP1 CALLDATASIZE DUP4 CALLDATACOPY DUP1 DUP3 ADD SWAP2 POP POP SWAP1 POP JUMPDEST POP PUSH32 0xF00000000000000000000000000000000000000000000000000000000000000 SWAP6 SWAP5 SWAP4 SWAP3 SWAP2 SWAP1 SWAP7 POP SWAP7 POP SWAP7 POP SWAP7 POP SWAP7 POP SWAP7 POP SWAP7 POP SWAP1 SWAP2 SWAP3 SWAP4 SWAP5 SWAP6 SWAP7 JUMP JUMPDEST PUSH1 0x0 PUSH1 0xCB PUSH1 0x0 DUP5 DUP2 MSTORE PUSH1 0x20 ADD SWAP1 DUP2 MSTORE PUSH1 0x20 ADD PUSH1 0x0 KECCAK256 PUSH1 0x0 ADD PUSH1 0x0 DUP4 PUSH20 0xFFFFFFFFFFFFFFFFFFFFFFFFFFFFFFFFFFFFFFFF AND PUSH20 0xFFFFFFFFFFFFFFFFFFFFFFFFFFFFFFFFFFFFFFFF AND DUP2 MSTORE PUSH1 0x20 ADD SWAP1 DUP2 MSTORE PUSH1 0x20 ADD PUSH1 0x0 KECCAK256 PUSH1 0x0 SWAP1 SLOAD SWAP1 PUSH2 0x100 EXP SWAP1 DIV PUSH1 0xFF AND SWAP1 POP SWAP3 SWAP2 POP POP JUMP JUMPDEST PUSH1 0x0 DUP1 SHL DUP2 JUMP JUMPDEST PUSH1 0x40 MLOAD DUP1 PUSH1 0x80 ADD PUSH1 0x40 MSTORE DUP1 PUSH1 0x52 DUP2 MSTORE PUSH1 0x20 ADD PUSH2 0x3C50 PUSH1 0x52 SWAP2 CODECOPY DUP2 JUMP JUMPDEST PUSH2 0x12DD DUP3 PUSH2 0x6EE JUMP JUMPDEST PUSH2 0x12E6 DUP2 PUSH2 0x141C JUMP JUMPDEST PUSH2 0x12F0 DUP4 DUP4 PUSH2 0x1519 JUMP JUMPDEST POP POP POP JUMP JUMPDEST PUSH32 0x65D7A28E3265B37A6474929F336521B332C1681B933F6CB9F3376673440D862A DUP2 JUMP JUMPDEST PUSH2 0x1326 PUSH1 0x0 DUP1 SHL CALLER PUSH2 0x1246 JUMP JUMPDEST PUSH2 0x1365 JUMPI PUSH1 0x40 MLOAD PUSH32 0x8C379A000000000000000000000000000000000000000000000000000000000 DUP2 MSTORE PUSH1 0x4 ADD PUSH2 0x135C SWAP1 PUSH2 0x2BDE JUMP JUMPDEST PUSH1 0x40 MLOAD DUP1 SWAP2 SUB SWAP1 REVERT JUMPDEST PUSH1 0x0 DUP2 GT PUSH2 0x13A8 JUMPI PUSH1 0x40 MLOAD PUSH32 0x8C379A000000000000000000000000000000000000000000000000000000000 DUP2 MSTORE PUSH1 0x4 ADD PUSH2 0x139F SWAP1 PUSH2 0x36E9 JUMP JUMPDEST PUSH1 0x40 MLOAD DUP1 SWAP2 SUB SWAP1 REVERT JUMPDEST DUP1 PUSH1 0xFD DUP2 SWAP1 SSTORE POP POP JUMP JUMPDEST PUSH1 0x0 PUSH32 0x1FFC9A700000000000000000000000000000000000000000000000000000000 PUSH28 0xFFFFFFFFFFFFFFFFFFFFFFFFFFFFFFFFFFFFFFFFFFFFFFFFFFFFFFFF NOT AND DUP3 PUSH28 0xFFFFFFFFFFFFFFFFFFFFFFFFFFFFFFFFFFFFFFFFFFFFFFFFFFFFFFFF NOT AND EQ SWAP1 POP SWAP2 SWAP1 POP JUMP JUMPDEST PUSH2 0x142D DUP2 PUSH2 0x1428 PUSH2 0x1511 JUMP JUMPDEST PUSH2 0x19EC JUMP JUMPDEST POP JUMP JUMPDEST PUSH2 0x143A DUP3 DUP3 PUSH2 0x1246 JUMP JUMPDEST PUSH2 0x150D JUMPI PUSH1 0x1 PUSH1 0xCB PUSH1 0x0 DUP5 DUP2 MSTORE PUSH1 0x20 ADD SWAP1 DUP2 MSTORE PUSH1 0x20 ADD PUSH1 0x0 KECCAK256 PUSH1 0x0 ADD PUSH1 0x0 DUP4 PUSH20 0xFFFFFFFFFFFFFFFFFFFFFFFFFFFFFFFFFFFFFFFF AND PUSH20 0xFFFFFFFFFFFFFFFFFFFFFFFFFFFFFFFFFFFFFFFF AND DUP2 MSTORE PUSH1 0x20 ADD SWAP1 DUP2 MSTORE PUSH1 0x20 ADD PUSH1 0x0 KECCAK256 PUSH1 0x0 PUSH2 0x100 EXP DUP2 SLOAD DUP2 PUSH1 0xFF MUL NOT AND SWAP1 DUP4 ISZERO ISZERO MUL OR SWAP1 SSTORE POP PUSH2 0x14B2 PUSH2 0x1511 JUMP JUMPDEST PUSH20 0xFFFFFFFFFFFFFFFFFFFFFFFFFFFFFFFFFFFFFFFF AND DUP2 PUSH20 0xFFFFFFFFFFFFFFFFFFFFFFFFFFFFFFFFFFFFFFFF AND DUP4 PUSH32 0x2F8788117E7EFF1D82E926EC794901D17C78024A50270940304540A733656F0D PUSH1 0x40 MLOAD PUSH1 0x40 MLOAD DUP1 SWAP2 SUB SWAP1 LOG4 JUMPDEST POP POP JUMP JUMPDEST PUSH1 0x0 CALLER SWAP1 POP SWAP1 JUMP JUMPDEST PUSH2 0x1523 DUP3 DUP3 PUSH2 0x1246 JUMP JUMPDEST ISZERO PUSH2 0x15F7 JUMPI PUSH1 0x0 PUSH1 0xCB PUSH1 0x0 DUP5 DUP2 MSTORE PUSH1 0x20 ADD SWAP1 DUP2 MSTORE PUSH1 0x20 ADD PUSH1 0x0 KECCAK256 PUSH1 0x0 ADD PUSH1 0x0 DUP4 PUSH20 0xFFFFFFFFFFFFFFFFFFFFFFFFFFFFFFFFFFFFFFFF AND PUSH20 0xFFFFFFFFFFFFFFFFFFFFFFFFFFFFFFFFFFFFFFFF AND DUP2 MSTORE PUSH1 0x20 ADD SWAP1 DUP2 MSTORE PUSH1 0x20 ADD PUSH1 0x0 KECCAK256 PUSH1 0x0 PUSH2 0x100 EXP DUP2 SLOAD DUP2 PUSH1 0xFF MUL NOT AND SWAP1 DUP4 ISZERO ISZERO MUL OR SWAP1 SSTORE POP PUSH2 0x159C PUSH2 0x1511 JUMP JUMPDEST PUSH20 0xFFFFFFFFFFFFFFFFFFFFFFFFFFFFFFFFFFFFFFFF AND DUP2 PUSH20 0xFFFFFFFFFFFFFFFFFFFFFFFFFFFFFFFFFFFFFFFF AND DUP4 PUSH32 0xF6391F5C32D9C69D2A47EA670B442974B53935D1EDC7FD64EB21E047A839171B PUSH1 0x40 MLOAD PUSH1 0x40 MLOAD DUP1 SWAP2 SUB SWAP1 LOG4 JUMPDEST POP POP JUMP JUMPDEST PUSH2 0x1603 PUSH2 0x1A71 JUMP JUMPDEST PUSH1 0x0 PUSH1 0x67 PUSH1 0x0 PUSH2 0x100 EXP DUP2 SLOAD DUP2 PUSH1 0xFF MUL NOT AND SWAP1 DUP4 ISZERO ISZERO MUL OR SWAP1 SSTORE POP PUSH32 0x5DB9EE0A495BF2E6FF9C91A7834C1BA4FDD244A5E8AA4E537BD38AEAE4B073AA PUSH2 0x1647 PUSH2 0x1511 JUMP JUMPDEST PUSH1 0x40 MLOAD PUSH2 0x1654 SWAP2 SWAP1 PUSH2 0x2977 JUMP JUMPDEST PUSH1 0x40 MLOAD DUP1 SWAP2 SUB SWAP1 LOG1 JUMP JUMPDEST PUSH1 0x0 DUP1 DUP3 PUSH20 0xFFFFFFFFFFFFFFFFFFFFFFFFFFFFFFFFFFFFFFFF AND EXTCODESIZE GT SWAP1 POP SWAP2 SWAP1 POP JUMP JUMPDEST PUSH1 0x0 DUP1 PUSH1 0x1 SWAP1 SLOAD SWAP1 PUSH2 0x100 EXP SWAP1 DIV PUSH1 0xFF AND ISZERO SWAP1 POP DUP1 DUP1 ISZERO PUSH2 0x16B2 JUMPI POP PUSH1 0x1 PUSH1 0x0 DUP1 SLOAD SWAP1 PUSH2 0x100 EXP SWAP1 DIV PUSH1 0xFF AND PUSH1 0xFF AND LT JUMPDEST DUP1 PUSH2 0x16DF JUMPI POP PUSH2 0x16C1 ADDRESS PUSH2 0x165E JUMP JUMPDEST ISZERO DUP1 ISZERO PUSH2 0x16DE JUMPI POP PUSH1 0x1 PUSH1 0x0 DUP1 SLOAD SWAP1 PUSH2 0x100 EXP SWAP1 DIV PUSH1 0xFF AND PUSH1 0xFF AND EQ JUMPDEST JUMPDEST PUSH2 0x171E JUMPI PUSH1 0x40 MLOAD PUSH32 0x8C379A000000000000000000000000000000000000000000000000000000000 DUP2 MSTORE PUSH1 0x4 ADD PUSH2 0x1715 SWAP1 PUSH2 0x2D6E JUMP JUMPDEST PUSH1 0x40 MLOAD DUP1 SWAP2 SUB SWAP1 REVERT JUMPDEST PUSH1 0x1 PUSH1 0x0 DUP1 PUSH2 0x100 EXP DUP2 SLOAD DUP2 PUSH1 0xFF MUL NOT AND SWAP1 DUP4 PUSH1 0xFF AND MUL OR SWAP1 SSTORE POP DUP1 ISZERO PUSH2 0x175B JUMPI PUSH1 0x1 PUSH1 0x0 PUSH1 0x1 PUSH2 0x100 EXP DUP2 SLOAD DUP2 PUSH1 0xFF MUL NOT AND SWAP1 DUP4 ISZERO ISZERO MUL OR SWAP1 SSTORE POP JUMPDEST PUSH2 0x1763 PUSH2 0x1ABA JUMP JUMPDEST PUSH2 0x176B PUSH2 0x1B0B JUMP JUMPDEST PUSH2 0x1773 PUSH2 0x1B5C JUMP JUMPDEST PUSH2 0x177C DUP3 PUSH2 0x1BC8 JUMP JUMPDEST PUSH1 0x64 PUSH1 0xFD DUP2 SWAP1 SSTORE POP DUP1 ISZERO PUSH2 0x17DD JUMPI PUSH1 0x0 DUP1 PUSH1 0x1 PUSH2 0x100 EXP DUP2 SLOAD DUP2 PUSH1 0xFF MUL NOT AND SWAP1 DUP4 ISZERO ISZERO MUL OR SWAP1 SSTORE POP PUSH32 0x7F26B83FF96E1F2B6A682F133852F6798A09C465DA95921460CEFB3847402498 PUSH1 0x1 PUSH1 0x40 MLOAD PUSH2 0x17D4 SWAP2 SWAP1 PUSH2 0x3325 JUMP JUMPDEST PUSH1 0x40 MLOAD DUP1 SWAP2 SUB SWAP1 LOG1 JUMPDEST POP POP JUMP JUMPDEST PUSH1 0x0 PUSH1 0x1 SWAP1 SLOAD SWAP1 PUSH2 0x100 EXP SWAP1 DIV PUSH1 0xFF AND PUSH2 0x1830 JUMPI PUSH1 0x40 MLOAD PUSH32 0x8C379A000000000000000000000000000000000000000000000000000000000 DUP2 MSTORE PUSH1 0x4 ADD PUSH2 0x1827 SWAP1 PUSH2 0x377B JUMP JUMPDEST PUSH1 0x40 MLOAD DUP1 SWAP2 SUB SWAP1 REVERT JUMPDEST PUSH2 0x183A DUP3 DUP3 PUSH2 0x1D36 JUMP JUMPDEST POP POP JUMP JUMPDEST PUSH1 0x0 DUP1 PUSH1 0x0 PUSH2 0x184D DUP6 DUP6 PUSH2 0x1DCB JUMP JUMPDEST SWAP2 POP SWAP2 POP PUSH2 0x185A DUP2 PUSH2 0x1E1D JUMP JUMPDEST DUP2 SWAP3 POP POP POP SWAP3 SWAP2 POP POP JUMP JUMPDEST PUSH2 0x186D PUSH2 0x1F8B JUMP JUMPDEST PUSH1 0x1 PUSH1 0x67 PUSH1 0x0 PUSH2 0x100 EXP DUP2 SLOAD DUP2 PUSH1 0xFF MUL NOT AND SWAP1 DUP4 ISZERO ISZERO MUL OR SWAP1 SSTORE POP PUSH32 0x62E78CEA01BEE320CD4E420270B5EA74000D11B0C9F74754EBDBFC544B05A258 PUSH2 0x18B1 PUSH2 0x1511 JUMP JUMPDEST PUSH1 0x40 MLOAD PUSH2 0x18BE SWAP2 SWAP1 PUSH2 0x2977 JUMP JUMPDEST PUSH1 0x40 MLOAD DUP1 SWAP2 SUB SWAP1 LOG1 JUMP JUMPDEST PUSH1 0x60 PUSH1 0x3 DUP1 SLOAD PUSH2 0x18D7 SWAP1 PUSH2 0x2B60 JUMP JUMPDEST DUP1 PUSH1 0x1F ADD PUSH1 0x20 DUP1 SWAP2 DIV MUL PUSH1 0x20 ADD PUSH1 0x40 MLOAD SWAP1 DUP2 ADD PUSH1 0x40 MSTORE DUP1 SWAP3 SWAP2 SWAP1 DUP2 DUP2 MSTORE PUSH1 0x20 ADD DUP3 DUP1 SLOAD PUSH2 0x1903 SWAP1 PUSH2 0x2B60 JUMP JUMPDEST DUP1 ISZERO PUSH2 0x1950 JUMPI DUP1 PUSH1 0x1F LT PUSH2 0x1925 JUMPI PUSH2 0x100 DUP1 DUP4 SLOAD DIV MUL DUP4 MSTORE SWAP2 PUSH1 0x20 ADD SWAP2 PUSH2 0x1950 JUMP JUMPDEST DUP3 ADD SWAP2 SWAP1 PUSH1 0x0 MSTORE PUSH1 0x20 PUSH1 0x0 KECCAK256 SWAP1 JUMPDEST DUP2 SLOAD DUP2 MSTORE SWAP1 PUSH1 0x1 ADD SWAP1 PUSH1 0x20 ADD DUP1 DUP4 GT PUSH2 0x1933 JUMPI DUP3 SWAP1 SUB PUSH1 0x1F AND DUP3 ADD SWAP2 JUMPDEST POP POP POP POP POP SWAP1 POP SWAP1 JUMP JUMPDEST PUSH1 0x60 PUSH1 0x4 DUP1 SLOAD PUSH2 0x1969 SWAP1 PUSH2 0x2B60 JUMP JUMPDEST DUP1 PUSH1 0x1F ADD PUSH1 0x20 DUP1 SWAP2 DIV MUL PUSH1 0x20 ADD PUSH1 0x40 MLOAD SWAP1 DUP2 ADD PUSH1 0x40 MSTORE DUP1 SWAP3 SWAP2 SWAP1 DUP2 DUP2 MSTORE PUSH1 0x20 ADD DUP3 DUP1 SLOAD PUSH2 0x1995 SWAP1 PUSH2 0x2B60 JUMP JUMPDEST DUP1 ISZERO PUSH2 0x19E2 JUMPI DUP1 PUSH1 0x1F LT PUSH2 0x19B7 JUMPI PUSH2 0x100 DUP1 DUP4 SLOAD DIV MUL DUP4 MSTORE SWAP2 PUSH1 0x20 ADD SWAP2 PUSH2 0x19E2 JUMP JUMPDEST DUP3 ADD SWAP2 SWAP1 PUSH1 0x0 MSTORE PUSH1 0x20 PUSH1 0x0 KECCAK256 SWAP1 JUMPDEST DUP2 SLOAD DUP2 MSTORE SWAP1 PUSH1 0x1 ADD SWAP1 PUSH1 0x20 ADD DUP1 DUP4 GT PUSH2 0x19C5 JUMPI DUP3 SWAP1 SUB PUSH1 0x1F AND DUP3 ADD SWAP2 JUMPDEST POP POP POP POP POP SWAP1 POP SWAP1 JUMP JUMPDEST PUSH2 0x19F6 DUP3 DUP3 PUSH2 0x1246 JUMP JUMPDEST PUSH2 0x1A6D JUMPI PUSH2 0x1A03 DUP2 PUSH2 0x1FD5 JUMP JUMPDEST PUSH2 0x1A11 DUP4 PUSH1 0x0 SHR PUSH1 0x20 PUSH2 0x2002 JUMP JUMPDEST PUSH1 0x40 MLOAD PUSH1 0x20 ADD PUSH2 0x1A22 SWAP3 SWAP2 SWAP1 PUSH2 0x3864 JUMP JUMPDEST PUSH1 0x40 MLOAD PUSH1 0x20 DUP2 DUP4 SUB SUB DUP2 MSTORE SWAP1 PUSH1 0x40 MSTORE PUSH1 0x40 MLOAD PUSH32 0x8C379A000000000000000000000000000000000000000000000000000000000 DUP2 MSTORE PUSH1 0x4 ADD PUSH2 0x1A64 SWAP2 SWAP1 PUSH2 0x2B0F JUMP JUMPDEST PUSH1 0x40 MLOAD DUP1 SWAP2 SUB SWAP1 REVERT JUMPDEST POP POP JUMP JUMPDEST PUSH2 0x1A79 PUSH2 0x97B JUMP JUMPDEST PUSH2 0x1AB8 JUMPI PUSH1 0x40 MLOAD PUSH32 0x8C379A000000000000000000000000000000000000000000000000000000000 DUP2 MSTORE PUSH1 0x4 ADD PUSH2 0x1AAF SWAP1 PUSH2 0x38EA JUMP JUMPDEST PUSH1 0x40 MLOAD DUP1 SWAP2 SUB SWAP1 REVERT JUMPDEST JUMP JUMPDEST PUSH1 0x0 PUSH1 0x1 SWAP1 SLOAD SWAP1 PUSH2 0x100 EXP SWAP1 DIV PUSH1 0xFF AND PUSH2 0x1B09 JUMPI PUSH1 0x40 MLOAD PUSH32 0x8C379A000000000000000000000000000000000000000000000000000000000 DUP2 MSTORE PUSH1 0x4 ADD PUSH2 0x1B00 SWAP1 PUSH2 0x377B JUMP JUMPDEST PUSH1 0x40 MLOAD DUP1 SWAP2 SUB SWAP1 REVERT JUMPDEST JUMP JUMPDEST PUSH1 0x0 PUSH1 0x1 SWAP1 SLOAD SWAP1 PUSH2 0x100 EXP SWAP1 DIV PUSH1 0xFF AND PUSH2 0x1B5A JUMPI PUSH1 0x40 MLOAD PUSH32 0x8C379A000000000000000000000000000000000000000000000000000000000 DUP2 MSTORE PUSH1 0x4 ADD PUSH2 0x1B51 SWAP1 PUSH2 0x377B JUMP JUMPDEST PUSH1 0x40 MLOAD DUP1 SWAP2 SUB SWAP1 REVERT JUMPDEST JUMP JUMPDEST PUSH1 0x0 PUSH1 0x1 SWAP1 SLOAD SWAP1 PUSH2 0x100 EXP SWAP1 DIV PUSH1 0xFF AND PUSH2 0x1BAB JUMPI PUSH1 0x40 MLOAD PUSH32 0x8C379A000000000000000000000000000000000000000000000000000000000 DUP2 MSTORE PUSH1 0x4 ADD PUSH2 0x1BA2 SWAP1 PUSH2 0x377B JUMP JUMPDEST PUSH1 0x40 MLOAD DUP1 SWAP2 SUB SWAP1 REVERT JUMPDEST PUSH1 0x0 PUSH1 0x67 PUSH1 0x0 PUSH2 0x100 EXP DUP2 SLOAD DUP2 PUSH1 0xFF MUL NOT AND SWAP1 DUP4 ISZERO ISZERO MUL OR SWAP1 SSTORE POP JUMP JUMPDEST PUSH1 0x0 DUP1 PUSH1 0x1 SWAP1 SLOAD SWAP1 PUSH2 0x100 EXP SWAP1 DIV PUSH1 0xFF AND ISZERO SWAP1 POP DUP1 DUP1 ISZERO PUSH2 0x1BF9 JUMPI POP PUSH1 0x1 PUSH1 0x0 DUP1 SLOAD SWAP1 PUSH2 0x100 EXP SWAP1 DIV PUSH1 0xFF AND PUSH1 0xFF AND LT JUMPDEST DUP1 PUSH2 0x1C26 JUMPI POP PUSH2 0x1C08 ADDRESS PUSH2 0x165E JUMP JUMPDEST ISZERO DUP1 ISZERO PUSH2 0x1C25 JUMPI POP PUSH1 0x1 PUSH1 0x0 DUP1 SLOAD SWAP1 PUSH2 0x100 EXP SWAP1 DIV PUSH1 0xFF AND PUSH1 0xFF AND EQ JUMPDEST JUMPDEST PUSH2 0x1C65 JUMPI PUSH1 0x40 MLOAD PUSH32 0x8C379A000000000000000000000000000000000000000000000000000000000 DUP2 MSTORE PUSH1 0x4 ADD PUSH2 0x1C5C SWAP1 PUSH2 0x2D6E JUMP JUMPDEST PUSH1 0x40 MLOAD DUP1 SWAP2 SUB SWAP1 REVERT JUMPDEST PUSH1 0x1 PUSH1 0x0 DUP1 PUSH2 0x100 EXP DUP2 SLOAD DUP2 PUSH1 0xFF MUL NOT AND SWAP1 DUP4 PUSH1 0xFF AND MUL OR SWAP1 SSTORE POP DUP1 ISZERO PUSH2 0x1CA2 JUMPI PUSH1 0x1 PUSH1 0x0 PUSH1 0x1 PUSH2 0x100 EXP DUP2 SLOAD DUP2 PUSH1 0xFF MUL NOT AND SWAP1 DUP4 ISZERO ISZERO MUL OR SWAP1 SSTORE POP JUMPDEST PUSH2 0x1CAF PUSH1 0x0 DUP1 SHL DUP4 PUSH2 0x223E JUMP JUMPDEST PUSH2 0x1CD9 PUSH32 0x65D7A28E3265B37A6474929F336521B332C1681B933F6CB9F3376673440D862A DUP4 PUSH2 0x223E JUMP JUMPDEST DUP1 ISZERO PUSH2 0x1D32 JUMPI PUSH1 0x0 DUP1 PUSH1 0x1 PUSH2 0x100 EXP DUP2 SLOAD DUP2 PUSH1 0xFF MUL NOT AND SWAP1 DUP4 ISZERO ISZERO MUL OR SWAP1 SSTORE POP PUSH32 0x7F26B83FF96E1F2B6A682F133852F6798A09C465DA95921460CEFB3847402498 PUSH1 0x1 PUSH1 0x40 MLOAD PUSH2 0x1D29 SWAP2 SWAP1 PUSH2 0x3325 JUMP JUMPDEST PUSH1 0x40 MLOAD DUP1 SWAP2 SUB SWAP1 LOG1 JUMPDEST POP POP JUMP JUMPDEST PUSH1 0x0 PUSH1 0x1 SWAP1 SLOAD SWAP1 PUSH2 0x100 EXP SWAP1 DIV PUSH1 0xFF AND PUSH2 0x1D85 JUMPI PUSH1 0x40 MLOAD PUSH32 0x8C379A000000000000000000000000000000000000000000000000000000000 DUP2 MSTORE PUSH1 0x4 ADD PUSH2 0x1D7C SWAP1 PUSH2 0x377B JUMP JUMPDEST PUSH1 0x40 MLOAD DUP1 SWAP2 SUB SWAP1 REVERT JUMPDEST DUP2 PUSH1 0x3 SWAP1 DUP1 MLOAD SWAP1 PUSH1 0x20 ADD SWAP1 PUSH2 0x1D9B SWAP3 SWAP2 SWAP1 PUSH2 0x232F JUMP JUMPDEST POP DUP1 PUSH1 0x4 SWAP1 DUP1 MLOAD SWAP1 PUSH1 0x20 ADD SWAP1 PUSH2 0x1DB2 SWAP3 SWAP2 SWAP1 PUSH2 0x232F JUMP JUMPDEST POP PUSH1 0x0 DUP1 SHL PUSH1 0x1 DUP2 SWAP1 SSTORE POP PUSH1 0x0 DUP1 SHL PUSH1 0x2 DUP2 SWAP1 SSTORE POP POP POP JUMP JUMPDEST PUSH1 0x0 DUP1 PUSH1 0x41 DUP4 MLOAD EQ ISZERO PUSH2 0x1E0D JUMPI PUSH1 0x0 DUP1 PUSH1 0x0 PUSH1 0x20 DUP7 ADD MLOAD SWAP3 POP PUSH1 0x40 DUP7 ADD MLOAD SWAP2 POP PUSH1 0x60 DUP7 ADD MLOAD PUSH1 0x0 BYTE SWAP1 POP PUSH2 0x1E01 DUP8 DUP3 DUP6 DUP6 PUSH2 0x224C JUMP JUMPDEST SWAP5 POP SWAP5 POP POP POP POP PUSH2 0x1E16 JUMP JUMPDEST PUSH1 0x0 PUSH1 0x2 SWAP2 POP SWAP2 POP JUMPDEST SWAP3 POP SWAP3 SWAP1 POP JUMP JUMPDEST PUSH1 0x0 PUSH1 0x4 DUP2 GT ISZERO PUSH2 0x1E31 JUMPI PUSH2 0x1E30 PUSH2 0x390A JUMP JUMPDEST JUMPDEST DUP2 PUSH1 0x4 DUP2 GT ISZERO PUSH2 0x1E44 JUMPI PUSH2 0x1E43 PUSH2 0x390A JUMP JUMPDEST JUMPDEST EQ ISZERO PUSH2 0x1E4F JUMPI PUSH2 0x1F88 JUMP JUMPDEST PUSH1 0x1 PUSH1 0x4 DUP2 GT ISZERO PUSH2 0x1E63 JUMPI PUSH2 0x1E62 PUSH2 0x390A JUMP JUMPDEST JUMPDEST DUP2 PUSH1 0x4 DUP2 GT ISZERO PUSH2 0x1E76 JUMPI PUSH2 0x1E75 PUSH2 0x390A JUMP JUMPDEST JUMPDEST EQ ISZERO PUSH2 0x1EB7 JUMPI PUSH1 0x40 MLOAD PUSH32 0x8C379A000000000000000000000000000000000000000000000000000000000 DUP2 MSTORE PUSH1 0x4 ADD PUSH2 0x1EAE SWAP1 PUSH2 0x3985 JUMP JUMPDEST PUSH1 0x40 MLOAD DUP1 SWAP2 SUB SWAP1 REVERT JUMPDEST PUSH1 0x2 PUSH1 0x4 DUP2 GT ISZERO PUSH2 0x1ECB JUMPI PUSH2 0x1ECA PUSH2 0x390A JUMP JUMPDEST JUMPDEST DUP2 PUSH1 0x4 DUP2 GT ISZERO PUSH2 0x1EDE JUMPI PUSH2 0x1EDD PUSH2 0x390A JUMP JUMPDEST JUMPDEST EQ ISZERO PUSH2 0x1F1F JUMPI PUSH1 0x40 MLOAD PUSH32 0x8C379A000000000000000000000000000000000000000000000000000000000 DUP2 MSTORE PUSH1 0x4 ADD PUSH2 0x1F16 SWAP1 PUSH2 0x39F1 JUMP JUMPDEST PUSH1 0x40 MLOAD DUP1 SWAP2 SUB SWAP1 REVERT JUMPDEST PUSH1 0x3 PUSH1 0x4 DUP2 GT ISZERO PUSH2 0x1F33 JUMPI PUSH2 0x1F32 PUSH2 0x390A JUMP JUMPDEST JUMPDEST DUP2 PUSH1 0x4 DUP2 GT ISZERO PUSH2 0x1F46 JUMPI PUSH2 0x1F45 PUSH2 0x390A JUMP JUMPDEST JUMPDEST EQ ISZERO PUSH2 0x1F87 JUMPI PUSH1 0x40 MLOAD PUSH32 0x8C379A000000000000000000000000000000000000000000000000000000000 DUP2 MSTORE PUSH1 0x4 ADD PUSH2 0x1F7E SWAP1 PUSH2 0x3A83 JUMP JUMPDEST PUSH1 0x40 MLOAD DUP1 SWAP2 SUB SWAP1 REVERT JUMPDEST JUMPDEST POP JUMP JUMPDEST PUSH2 0x1F93 PUSH2 0x97B JUMP JUMPDEST ISZERO PUSH2 0x1FD3 JUMPI PUSH1 0x40 MLOAD PUSH32 0x8C379A000000000000000000000000000000000000000000000000000000000 DUP2 MSTORE PUSH1 0x4 ADD PUSH2 0x1FCA SWAP1 PUSH2 0x3AEF JUMP JUMPDEST PUSH1 0x40 MLOAD DUP1 SWAP2 SUB SWAP1 REVERT JUMPDEST JUMP JUMPDEST PUSH1 0x60 PUSH2 0x1FFB DUP3 PUSH20 0xFFFFFFFFFFFFFFFFFFFFFFFFFFFFFFFFFFFFFFFF AND PUSH1 0x14 PUSH1 0xFF AND PUSH2 0x2002 JUMP JUMPDEST SWAP1 POP SWAP2 SWAP1 POP JUMP JUMPDEST PUSH1 0x60 PUSH1 0x0 PUSH1 0x2 DUP4 PUSH1 0x2 PUSH2 0x2015 SWAP2 SWAP1 PUSH2 0x350C JUMP JUMPDEST PUSH2 0x201F SWAP2 SWAP1 PUSH2 0x3B0F JUMP JUMPDEST PUSH8 0xFFFFFFFFFFFFFFFF DUP2 GT ISZERO PUSH2 0x2038 JUMPI PUSH2 0x2037 PUSH2 0x2ECE JUMP JUMPDEST JUMPDEST PUSH1 0x40 MLOAD SWAP1 DUP1 DUP3 MSTORE DUP1 PUSH1 0x1F ADD PUSH1 0x1F NOT AND PUSH1 0x20 ADD DUP3 ADD PUSH1 0x40 MSTORE DUP1 ISZERO PUSH2 0x206A JUMPI DUP2 PUSH1 0x20 ADD PUSH1 0x1 DUP3 MUL DUP1 CALLDATASIZE DUP4 CALLDATACOPY DUP1 DUP3 ADD SWAP2 POP POP SWAP1 POP JUMPDEST POP SWAP1 POP PUSH32 0x3000000000000000000000000000000000000000000000000000000000000000 DUP2 PUSH1 0x0 DUP2 MLOAD DUP2 LT PUSH2 0x20A2 JUMPI PUSH2 0x20A1 PUSH2 0x2DFA JUMP JUMPDEST JUMPDEST PUSH1 0x20 ADD ADD SWAP1 PUSH31 0xFFFFFFFFFFFFFFFFFFFFFFFFFFFFFFFFFFFFFFFFFFFFFFFFFFFFFFFFFFFFFF NOT AND SWAP1 DUP2 PUSH1 0x0 BYTE SWAP1 MSTORE8 POP PUSH32 0x7800000000000000000000000000000000000000000000000000000000000000 DUP2 PUSH1 0x1 DUP2 MLOAD DUP2 LT PUSH2 0x2106 JUMPI PUSH2 0x2105 PUSH2 0x2DFA JUMP JUMPDEST JUMPDEST PUSH1 0x20 ADD ADD SWAP1 PUSH31 0xFFFFFFFFFFFFFFFFFFFFFFFFFFFFFFFFFFFFFFFFFFFFFFFFFFFFFFFFFFFFFF NOT AND SWAP1 DUP2 PUSH1 0x0 BYTE SWAP1 MSTORE8 POP PUSH1 0x0 PUSH1 0x1 DUP5 PUSH1 0x2 PUSH2 0x2146 SWAP2 SWAP1 PUSH2 0x350C JUMP JUMPDEST PUSH2 0x2150 SWAP2 SWAP1 PUSH2 0x3B0F JUMP JUMPDEST SWAP1 POP JUMPDEST PUSH1 0x1 DUP2 GT ISZERO PUSH2 0x21F0 JUMPI PUSH32 0x3031323334353637383961626364656600000000000000000000000000000000 PUSH1 0xF DUP7 AND PUSH1 0x10 DUP2 LT PUSH2 0x2192 JUMPI PUSH2 0x2191 PUSH2 0x2DFA JUMP JUMPDEST JUMPDEST BYTE PUSH1 0xF8 SHL DUP3 DUP3 DUP2 MLOAD DUP2 LT PUSH2 0x21A9 JUMPI PUSH2 0x21A8 PUSH2 0x2DFA JUMP JUMPDEST JUMPDEST PUSH1 0x20 ADD ADD SWAP1 PUSH31 0xFFFFFFFFFFFFFFFFFFFFFFFFFFFFFFFFFFFFFFFFFFFFFFFFFFFFFFFFFFFFFF NOT AND SWAP1 DUP2 PUSH1 0x0 BYTE SWAP1 MSTORE8 POP PUSH1 0x4 DUP6 SWAP1 SHR SWAP5 POP DUP1 PUSH2 0x21E9 SWAP1 PUSH2 0x3B65 JUMP JUMPDEST SWAP1 POP PUSH2 0x2153 JUMP JUMPDEST POP PUSH1 0x0 DUP5 EQ PUSH2 0x2234 JUMPI PUSH1 0x40 MLOAD PUSH32 0x8C379A000000000000000000000000000000000000000000000000000000000 DUP2 MSTORE PUSH1 0x4 ADD PUSH2 0x222B SWAP1 PUSH2 0x3BDB JUMP JUMPDEST PUSH1 0x40 MLOAD DUP1 SWAP2 SUB SWAP1 REVERT JUMPDEST DUP1 SWAP2 POP POP SWAP3 SWAP2 POP POP JUMP JUMPDEST PUSH2 0x2248 DUP3 DUP3 PUSH2 0x1430 JUMP JUMPDEST POP POP JUMP JUMPDEST PUSH1 0x0 DUP1 PUSH32 0x7FFFFFFFFFFFFFFFFFFFFFFFFFFFFFFF5D576E7357A4501DDFE92F46681B20A0 DUP4 PUSH1 0x0 SHR GT ISZERO PUSH2 0x2287 JUMPI PUSH1 0x0 PUSH1 0x3 SWAP2 POP SWAP2 POP PUSH2 0x2326 JUMP JUMPDEST PUSH1 0x0 PUSH1 0x1 DUP8 DUP8 DUP8 DUP8 PUSH1 0x40 MLOAD PUSH1 0x0 DUP2 MSTORE PUSH1 0x20 ADD PUSH1 0x40 MSTORE PUSH1 0x40 MLOAD PUSH2 0x22AC SWAP5 SWAP4 SWAP3 SWAP2 SWAP1 PUSH2 0x3C0A JUMP JUMPDEST PUSH1 0x20 PUSH1 0x40 MLOAD PUSH1 0x20 DUP2 SUB SWAP1 DUP1 DUP5 SUB SWAP1 DUP6 GAS STATICCALL ISZERO DUP1 ISZERO PUSH2 0x22CE JUMPI RETURNDATASIZE PUSH1 0x0 DUP1 RETURNDATACOPY RETURNDATASIZE PUSH1 0x0 REVERT JUMPDEST POP POP POP PUSH1 0x20 PUSH1 0x40 MLOAD SUB MLOAD SWAP1 POP PUSH1 0x0 PUSH20 0xFFFFFFFFFFFFFFFFFFFFFFFFFFFFFFFFFFFFFFFF AND DUP2 PUSH20 0xFFFFFFFFFFFFFFFFFFFFFFFFFFFFFFFFFFFFFFFF AND EQ ISZERO PUSH2 0x231D JUMPI PUSH1 0x0 PUSH1 0x1 SWAP3 POP SWAP3 POP POP PUSH2 0x2326 JUMP JUMPDEST DUP1 PUSH1 0x0 SWAP3 POP SWAP3 POP POP JUMPDEST SWAP5 POP SWAP5 SWAP3 POP POP POP JUMP JUMPDEST DUP3 DUP1 SLOAD PUSH2 0x233B SWAP1 PUSH2 0x2B60 JUMP JUMPDEST SWAP1 PUSH1 0x0 MSTORE PUSH1 0x20 PUSH1 0x0 KECCAK256 SWAP1 PUSH1 0x1F ADD PUSH1 0x20 SWAP1 DIV DUP2 ADD SWAP3 DUP3 PUSH2 0x235D JUMPI PUSH1 0x0 DUP6 SSTORE PUSH2 0x23A4 JUMP JUMPDEST DUP3 PUSH1 0x1F LT PUSH2 0x2376 JUMPI DUP1 MLOAD PUSH1 0xFF NOT AND DUP4 DUP1 ADD OR DUP6 SSTORE PUSH2 0x23A4 JUMP JUMPDEST DUP3 DUP1 ADD PUSH1 0x1 ADD DUP6 SSTORE DUP3 ISZERO PUSH2 0x23A4 JUMPI SWAP2 DUP3 ADD JUMPDEST DUP3 DUP2 GT ISZERO PUSH2 0x23A3 JUMPI DUP3 MLOAD DUP3 SSTORE SWAP2 PUSH1 0x20 ADD SWAP2 SWAP1 PUSH1 0x1 ADD SWAP1 PUSH2 0x2388 JUMP JUMPDEST JUMPDEST POP SWAP1 POP PUSH2 0x23B1 SWAP2 SWAP1 PUSH2 0x23B5 JUMP JUMPDEST POP SWAP1 JUMP JUMPDEST JUMPDEST DUP1 DUP3 GT ISZERO PUSH2 0x23CE JUMPI PUSH1 0x0 DUP2 PUSH1 0x0 SWAP1 SSTORE POP PUSH1 0x1 ADD PUSH2 0x23B6 JUMP JUMPDEST POP SWAP1 JUMP JUMPDEST PUSH1 0x0 DUP1 REVERT JUMPDEST PUSH1 0x0 DUP1 REVERT JUMPDEST PUSH1 0x0 PUSH32 0xFFFFFFFF00000000000000000000000000000000000000000000000000000000 DUP3 AND SWAP1 POP SWAP2 SWAP1 POP JUMP JUMPDEST PUSH2 0x2411 DUP2 PUSH2 0x23DC JUMP JUMPDEST DUP2 EQ PUSH2 0x241C JUMPI PUSH1 0x0 DUP1 REVERT JUMPDEST POP JUMP JUMPDEST PUSH1 0x0 DUP2 CALLDATALOAD SWAP1 POP PUSH2 0x242E DUP2 PUSH2 0x2408 JUMP JUMPDEST SWAP3 SWAP2 POP POP JUMP JUMPDEST PUSH1 0x0 PUSH1 0x20 DUP3 DUP5 SUB SLT ISZERO PUSH2 0x244A JUMPI PUSH2 0x2449 PUSH2 0x23D2 JUMP JUMPDEST JUMPDEST PUSH1 0x0 PUSH2 0x2458 DUP5 DUP3 DUP6 ADD PUSH2 0x241F JUMP JUMPDEST SWAP2 POP POP SWAP3 SWAP2 POP POP JUMP JUMPDEST PUSH1 0x0 DUP2 ISZERO ISZERO SWAP1 POP SWAP2 SWAP1 POP JUMP JUMPDEST PUSH2 0x2476 DUP2 PUSH2 0x2461 JUMP JUMPDEST DUP3 MSTORE POP POP JUMP JUMPDEST PUSH1 0x0 PUSH1 0x20 DUP3 ADD SWAP1 POP PUSH2 0x2491 PUSH1 0x0 DUP4 ADD DUP5 PUSH2 0x246D JUMP JUMPDEST SWAP3 SWAP2 POP POP JUMP JUMPDEST PUSH1 0x0 DUP2 SWAP1 POP SWAP2 SWAP1 POP JUMP JUMPDEST PUSH2 0x24AA DUP2 PUSH2 0x2497 JUMP JUMPDEST DUP2 EQ PUSH2 0x24B5 JUMPI PUSH1 0x0 DUP1 REVERT JUMPDEST POP JUMP JUMPDEST PUSH1 0x0 DUP2 CALLDATALOAD SWAP1 POP PUSH2 0x24C7 DUP2 PUSH2 0x24A1 JUMP JUMPDEST SWAP3 SWAP2 POP POP JUMP JUMPDEST PUSH1 0x0 PUSH1 0x20 DUP3 DUP5 SUB SLT ISZERO PUSH2 0x24E3 JUMPI PUSH2 0x24E2 PUSH2 0x23D2 JUMP JUMPDEST JUMPDEST PUSH1 0x0 PUSH2 0x24F1 DUP5 DUP3 DUP6 ADD PUSH2 0x24B8 JUMP JUMPDEST SWAP2 POP POP SWAP3 SWAP2 POP POP JUMP JUMPDEST PUSH1 0x0 DUP2 MLOAD SWAP1 POP SWAP2 SWAP1 POP JUMP JUMPDEST PUSH1 0x0 DUP3 DUP3 MSTORE PUSH1 0x20 DUP3 ADD SWAP1 POP SWAP3 SWAP2 POP POP JUMP JUMPDEST PUSH1 0x0 JUMPDEST DUP4 DUP2 LT ISZERO PUSH2 0x2534 JUMPI DUP1 DUP3 ADD MLOAD DUP2 DUP5 ADD MSTORE PUSH1 0x20 DUP2 ADD SWAP1 POP PUSH2 0x2519 JUMP JUMPDEST DUP4 DUP2 GT ISZERO PUSH2 0x2543 JUMPI PUSH1 0x0 DUP5 DUP5 ADD MSTORE JUMPDEST POP POP POP POP JUMP JUMPDEST PUSH1 0x0 PUSH1 0x1F NOT PUSH1 0x1F DUP4 ADD AND SWAP1 POP SWAP2 SWAP1 POP JUMP JUMPDEST PUSH1 0x0 PUSH2 0x2565 DUP3 PUSH2 0x24FA JUMP JUMPDEST PUSH2 0x256F DUP2 DUP6 PUSH2 0x2505 JUMP JUMPDEST SWAP4 POP PUSH2 0x257F DUP2 DUP6 PUSH1 0x20 DUP7 ADD PUSH2 0x2516 JUMP JUMPDEST PUSH2 0x2588 DUP2 PUSH2 0x2549 JUMP JUMPDEST DUP5 ADD SWAP2 POP POP SWAP3 SWAP2 POP POP JUMP JUMPDEST PUSH2 0x259C DUP2 PUSH2 0x2497 JUMP JUMPDEST DUP3 MSTORE POP POP JUMP JUMPDEST PUSH1 0x0 PUSH1 0x40 DUP3 ADD SWAP1 POP DUP2 DUP2 SUB PUSH1 0x0 DUP4 ADD MSTORE PUSH2 0x25BC DUP2 DUP6 PUSH2 0x255A JUMP JUMPDEST SWAP1 POP PUSH2 0x25CB PUSH1 0x20 DUP4 ADD DUP5 PUSH2 0x2593 JUMP JUMPDEST SWAP4 SWAP3 POP POP POP JUMP JUMPDEST PUSH1 0x0 PUSH20 0xFFFFFFFFFFFFFFFFFFFFFFFFFFFFFFFFFFFFFFFF DUP3 AND SWAP1 POP SWAP2 SWAP1 POP JUMP JUMPDEST PUSH1 0x0 PUSH2 0x25FD DUP3 PUSH2 0x25D2 JUMP JUMPDEST SWAP1 POP SWAP2 SWAP1 POP JUMP JUMPDEST PUSH2 0x260D DUP2 PUSH2 0x25F2 JUMP JUMPDEST DUP2 EQ PUSH2 0x2618 JUMPI PUSH1 0x0 DUP1 REVERT JUMPDEST POP JUMP JUMPDEST PUSH1 0x0 DUP2 CALLDATALOAD SWAP1 POP PUSH2 0x262A DUP2 PUSH2 0x2604 JUMP JUMPDEST SWAP3 SWAP2 POP POP JUMP JUMPDEST PUSH1 0x0 PUSH1 0x20 DUP3 DUP5 SUB SLT ISZERO PUSH2 0x2646 JUMPI PUSH2 0x2645 PUSH2 0x23D2 JUMP JUMPDEST JUMPDEST PUSH1 0x0 PUSH2 0x2654 DUP5 DUP3 DUP6 ADD PUSH2 0x261B JUMP JUMPDEST SWAP2 POP POP SWAP3 SWAP2 POP POP JUMP JUMPDEST PUSH1 0x0 DUP2 SWAP1 POP SWAP2 SWAP1 POP JUMP JUMPDEST PUSH2 0x2670 DUP2 PUSH2 0x265D JUMP JUMPDEST DUP2 EQ PUSH2 0x267B JUMPI PUSH1 0x0 DUP1 REVERT JUMPDEST POP JUMP JUMPDEST PUSH1 0x0 DUP2 CALLDATALOAD SWAP1 POP PUSH2 0x268D DUP2 PUSH2 0x2667 JUMP JUMPDEST SWAP3 SWAP2 POP POP JUMP JUMPDEST PUSH1 0x0 PUSH1 0x20 DUP3 DUP5 SUB SLT ISZERO PUSH2 0x26A9 JUMPI PUSH2 0x26A8 PUSH2 0x23D2 JUMP JUMPDEST JUMPDEST PUSH1 0x0 PUSH2 0x26B7 DUP5 DUP3 DUP6 ADD PUSH2 0x267E JUMP JUMPDEST SWAP2 POP POP SWAP3 SWAP2 POP POP JUMP JUMPDEST PUSH2 0x26C9 DUP2 PUSH2 0x265D JUMP JUMPDEST DUP3 MSTORE POP POP JUMP JUMPDEST PUSH1 0x0 PUSH1 0x20 DUP3 ADD SWAP1 POP PUSH2 0x26E4 PUSH1 0x0 DUP4 ADD DUP5 PUSH2 0x26C0 JUMP JUMPDEST SWAP3 SWAP2 POP POP JUMP JUMPDEST PUSH1 0x0 DUP1 PUSH1 0x40 DUP4 DUP6 SUB SLT ISZERO PUSH2 0x2701 JUMPI PUSH2 0x2700 PUSH2 0x23D2 JUMP JUMPDEST JUMPDEST PUSH1 0x0 PUSH2 0x270F DUP6 DUP3 DUP7 ADD PUSH2 0x267E JUMP JUMPDEST SWAP3 POP POP PUSH1 0x20 PUSH2 0x2720 DUP6 DUP3 DUP7 ADD PUSH2 0x261B JUMP JUMPDEST SWAP2 POP POP SWAP3 POP SWAP3 SWAP1 POP JUMP JUMPDEST PUSH1 0x0 PUSH1 0x20 DUP3 ADD SWAP1 POP PUSH2 0x273F PUSH1 0x0 DUP4 ADD DUP5 PUSH2 0x2593 JUMP JUMPDEST SWAP3 SWAP2 POP POP JUMP JUMPDEST PUSH1 0x0 DUP1 REVERT JUMPDEST PUSH1 0x0 DUP1 REVERT JUMPDEST PUSH1 0x0 DUP1 REVERT JUMPDEST PUSH1 0x0 DUP1 DUP4 PUSH1 0x1F DUP5 ADD SLT PUSH2 0x276A JUMPI PUSH2 0x2769 PUSH2 0x2745 JUMP JUMPDEST JUMPDEST DUP3 CALLDATALOAD SWAP1 POP PUSH8 0xFFFFFFFFFFFFFFFF DUP2 GT ISZERO PUSH2 0x2787 JUMPI PUSH2 0x2786 PUSH2 0x274A JUMP JUMPDEST JUMPDEST PUSH1 0x20 DUP4 ADD SWAP2 POP DUP4 PUSH1 0x20 DUP3 MUL DUP4 ADD GT ISZERO PUSH2 0x27A3 JUMPI PUSH2 0x27A2 PUSH2 0x274F JUMP JUMPDEST JUMPDEST SWAP3 POP SWAP3 SWAP1 POP JUMP JUMPDEST PUSH1 0x0 DUP1 PUSH1 0x0 DUP1 PUSH1 0x60 DUP6 DUP8 SUB SLT ISZERO PUSH2 0x27C4 JUMPI PUSH2 0x27C3 PUSH2 0x23D2 JUMP JUMPDEST JUMPDEST PUSH1 0x0 PUSH2 0x27D2 DUP8 DUP3 DUP9 ADD PUSH2 0x261B JUMP JUMPDEST SWAP5 POP POP PUSH1 0x20 PUSH2 0x27E3 DUP8 DUP3 DUP9 ADD PUSH2 0x261B JUMP JUMPDEST SWAP4 POP POP PUSH1 0x40 DUP6 ADD CALLDATALOAD PUSH8 0xFFFFFFFFFFFFFFFF DUP2 GT ISZERO PUSH2 0x2804 JUMPI PUSH2 0x2803 PUSH2 0x23D7 JUMP JUMPDEST JUMPDEST PUSH2 0x2810 DUP8 DUP3 DUP9 ADD PUSH2 0x2754 JUMP JUMPDEST SWAP3 POP SWAP3 POP POP SWAP3 SWAP6 SWAP2 SWAP5 POP SWAP3 POP JUMP JUMPDEST PUSH1 0x0 DUP1 REVERT JUMPDEST PUSH1 0x0 PUSH1 0x40 DUP3 DUP5 SUB SLT ISZERO PUSH2 0x2839 JUMPI PUSH2 0x2838 PUSH2 0x281E JUMP JUMPDEST JUMPDEST DUP2 SWAP1 POP SWAP3 SWAP2 POP POP JUMP JUMPDEST PUSH1 0x0 DUP1 PUSH1 0x40 DUP4 DUP6 SUB SLT ISZERO PUSH2 0x2859 JUMPI PUSH2 0x2858 PUSH2 0x23D2 JUMP JUMPDEST JUMPDEST PUSH1 0x0 PUSH2 0x2867 DUP6 DUP3 DUP7 ADD PUSH2 0x24B8 JUMP JUMPDEST SWAP3 POP POP PUSH1 0x20 DUP4 ADD CALLDATALOAD PUSH8 0xFFFFFFFFFFFFFFFF DUP2 GT ISZERO PUSH2 0x2888 JUMPI PUSH2 0x2887 PUSH2 0x23D7 JUMP JUMPDEST JUMPDEST PUSH2 0x2894 DUP6 DUP3 DUP7 ADD PUSH2 0x2823 JUMP JUMPDEST SWAP2 POP POP SWAP3 POP SWAP3 SWAP1 POP JUMP JUMPDEST PUSH1 0x0 DUP1 DUP4 PUSH1 0x1F DUP5 ADD SLT PUSH2 0x28B4 JUMPI PUSH2 0x28B3 PUSH2 0x2745 JUMP JUMPDEST JUMPDEST DUP3 CALLDATALOAD SWAP1 POP PUSH8 0xFFFFFFFFFFFFFFFF DUP2 GT ISZERO PUSH2 0x28D1 JUMPI PUSH2 0x28D0 PUSH2 0x274A JUMP JUMPDEST JUMPDEST PUSH1 0x20 DUP4 ADD SWAP2 POP DUP4 PUSH1 0x1 DUP3 MUL DUP4 ADD GT ISZERO PUSH2 0x28ED JUMPI PUSH2 0x28EC PUSH2 0x274F JUMP JUMPDEST JUMPDEST SWAP3 POP SWAP3 SWAP1 POP JUMP JUMPDEST PUSH1 0x0 DUP1 PUSH1 0x0 DUP1 PUSH1 0x60 DUP6 DUP8 SUB SLT ISZERO PUSH2 0x290E JUMPI PUSH2 0x290D PUSH2 0x23D2 JUMP JUMPDEST JUMPDEST PUSH1 0x0 PUSH2 0x291C DUP8 DUP3 DUP9 ADD PUSH2 0x24B8 JUMP JUMPDEST SWAP5 POP POP PUSH1 0x20 PUSH2 0x292D DUP8 DUP3 DUP9 ADD PUSH2 0x24B8 JUMP JUMPDEST SWAP4 POP POP PUSH1 0x40 DUP6 ADD CALLDATALOAD PUSH8 0xFFFFFFFFFFFFFFFF DUP2 GT ISZERO PUSH2 0x294E JUMPI PUSH2 0x294D PUSH2 0x23D7 JUMP JUMPDEST JUMPDEST PUSH2 0x295A DUP8 DUP3 DUP9 ADD PUSH2 0x289E JUMP JUMPDEST SWAP3 POP SWAP3 POP POP SWAP3 SWAP6 SWAP2 SWAP5 POP SWAP3 POP JUMP JUMPDEST PUSH2 0x2971 DUP2 PUSH2 0x25F2 JUMP JUMPDEST DUP3 MSTORE POP POP JUMP JUMPDEST PUSH1 0x0 PUSH1 0x20 DUP3 ADD SWAP1 POP PUSH2 0x298C PUSH1 0x0 DUP4 ADD DUP5 PUSH2 0x2968 JUMP JUMPDEST SWAP3 SWAP2 POP POP JUMP JUMPDEST PUSH1 0x0 PUSH32 0xFF00000000000000000000000000000000000000000000000000000000000000 DUP3 AND SWAP1 POP SWAP2 SWAP1 POP JUMP JUMPDEST PUSH2 0x29C7 DUP2 PUSH2 0x2992 JUMP JUMPDEST DUP3 MSTORE POP POP JUMP JUMPDEST PUSH1 0x0 DUP2 MLOAD SWAP1 POP SWAP2 SWAP1 POP JUMP JUMPDEST PUSH1 0x0 DUP3 DUP3 MSTORE PUSH1 0x20 DUP3 ADD SWAP1 POP SWAP3 SWAP2 POP POP JUMP JUMPDEST PUSH1 0x0 DUP2 SWAP1 POP PUSH1 0x20 DUP3 ADD SWAP1 POP SWAP2 SWAP1 POP JUMP JUMPDEST PUSH2 0x2A02 DUP2 PUSH2 0x2497 JUMP JUMPDEST DUP3 MSTORE POP POP JUMP JUMPDEST PUSH1 0x0 PUSH2 0x2A14 DUP4 DUP4 PUSH2 0x29F9 JUMP JUMPDEST PUSH1 0x20 DUP4 ADD SWAP1 POP SWAP3 SWAP2 POP POP JUMP JUMPDEST PUSH1 0x0 PUSH1 0x20 DUP3 ADD SWAP1 POP SWAP2 SWAP1 POP JUMP JUMPDEST PUSH1 0x0 PUSH2 0x2A38 DUP3 PUSH2 0x29CD JUMP JUMPDEST PUSH2 0x2A42 DUP2 DUP6 PUSH2 0x29D8 JUMP JUMPDEST SWAP4 POP PUSH2 0x2A4D DUP4 PUSH2 0x29E9 JUMP JUMPDEST DUP1 PUSH1 0x0 JUMPDEST DUP4 DUP2 LT ISZERO PUSH2 0x2A7E JUMPI DUP2 MLOAD PUSH2 0x2A65 DUP9 DUP3 PUSH2 0x2A08 JUMP JUMPDEST SWAP8 POP PUSH2 0x2A70 DUP4 PUSH2 0x2A20 JUMP JUMPDEST SWAP3 POP POP PUSH1 0x1 DUP2 ADD SWAP1 POP PUSH2 0x2A51 JUMP JUMPDEST POP DUP6 SWAP4 POP POP POP POP SWAP3 SWAP2 POP POP JUMP JUMPDEST PUSH1 0x0 PUSH1 0xE0 DUP3 ADD SWAP1 POP PUSH2 0x2AA0 PUSH1 0x0 DUP4 ADD DUP11 PUSH2 0x29BE JUMP JUMPDEST DUP2 DUP2 SUB PUSH1 0x20 DUP4 ADD MSTORE PUSH2 0x2AB2 DUP2 DUP10 PUSH2 0x255A JUMP JUMPDEST SWAP1 POP DUP2 DUP2 SUB PUSH1 0x40 DUP4 ADD MSTORE PUSH2 0x2AC6 DUP2 DUP9 PUSH2 0x255A JUMP JUMPDEST SWAP1 POP PUSH2 0x2AD5 PUSH1 0x60 DUP4 ADD DUP8 PUSH2 0x2593 JUMP JUMPDEST PUSH2 0x2AE2 PUSH1 0x80 DUP4 ADD DUP7 PUSH2 0x2968 JUMP JUMPDEST PUSH2 0x2AEF PUSH1 0xA0 DUP4 ADD DUP6 PUSH2 0x26C0 JUMP JUMPDEST DUP2 DUP2 SUB PUSH1 0xC0 DUP4 ADD MSTORE PUSH2 0x2B01 DUP2 DUP5 PUSH2 0x2A2D JUMP JUMPDEST SWAP1 POP SWAP9 SWAP8 POP POP POP POP POP POP POP POP JUMP JUMPDEST PUSH1 0x0 PUSH1 0x20 DUP3 ADD SWAP1 POP DUP2 DUP2 SUB PUSH1 0x0 DUP4 ADD MSTORE PUSH2 0x2B29 DUP2 DUP5 PUSH2 0x255A JUMP JUMPDEST SWAP1 POP SWAP3 SWAP2 POP POP JUMP JUMPDEST PUSH32 0x4E487B7100000000000000000000000000000000000000000000000000000000 PUSH1 0x0 MSTORE PUSH1 0x22 PUSH1 0x4 MSTORE PUSH1 0x24 PUSH1 0x0 REVERT JUMPDEST PUSH1 0x0 PUSH1 0x2 DUP3 DIV SWAP1 POP PUSH1 0x1 DUP3 AND DUP1 PUSH2 0x2B78 JUMPI PUSH1 0x7F DUP3 AND SWAP2 POP JUMPDEST PUSH1 0x20 DUP3 LT DUP2 EQ ISZERO PUSH2 0x2B8C JUMPI PUSH2 0x2B8B PUSH2 0x2B31 JUMP JUMPDEST JUMPDEST POP SWAP2 SWAP1 POP JUMP JUMPDEST PUSH32 0x4F776E61626C655061757361626C653A206163636573732064656E6965640000 PUSH1 0x0 DUP3 ADD MSTORE POP JUMP JUMPDEST PUSH1 0x0 PUSH2 0x2BC8 PUSH1 0x1E DUP4 PUSH2 0x2505 JUMP JUMPDEST SWAP2 POP PUSH2 0x2BD3 DUP3 PUSH2 0x2B92 JUMP JUMPDEST PUSH1 0x20 DUP3 ADD SWAP1 POP SWAP2 SWAP1 POP JUMP JUMPDEST PUSH1 0x0 PUSH1 0x20 DUP3 ADD SWAP1 POP DUP2 DUP2 SUB PUSH1 0x0 DUP4 ADD MSTORE PUSH2 0x2BF7 DUP2 PUSH2 0x2BBB JUMP JUMPDEST SWAP1 POP SWAP2 SWAP1 POP JUMP JUMPDEST PUSH32 0x496E76616C69642044414F207472656173757279206164647265737300000000 PUSH1 0x0 DUP3 ADD MSTORE POP JUMP JUMPDEST PUSH1 0x0 PUSH2 0x2C34 PUSH1 0x1C DUP4 PUSH2 0x2505 JUMP JUMPDEST SWAP2 POP PUSH2 0x2C3F DUP3 PUSH2 0x2BFE JUMP JUMPDEST PUSH1 0x20 DUP3 ADD SWAP1 POP SWAP2 SWAP1 POP JUMP JUMPDEST PUSH1 0x0 PUSH1 0x20 DUP3 ADD SWAP1 POP DUP2 DUP2 SUB PUSH1 0x0 DUP4 ADD MSTORE PUSH2 0x2C63 DUP2 PUSH2 0x2C27 JUMP JUMPDEST SWAP1 POP SWAP2 SWAP1 POP JUMP JUMPDEST PUSH32 0x416363657373436F6E74726F6C3A2063616E206F6E6C792072656E6F756E6365 PUSH1 0x0 DUP3 ADD MSTORE PUSH32 0x20726F6C657320666F722073656C660000000000000000000000000000000000 PUSH1 0x20 DUP3 ADD MSTORE POP JUMP JUMPDEST PUSH1 0x0 PUSH2 0x2CC6 PUSH1 0x2F DUP4 PUSH2 0x2505 JUMP JUMPDEST SWAP2 POP PUSH2 0x2CD1 DUP3 PUSH2 0x2C6A JUMP JUMPDEST PUSH1 0x40 DUP3 ADD SWAP1 POP SWAP2 SWAP1 POP JUMP JUMPDEST PUSH1 0x0 PUSH1 0x20 DUP3 ADD SWAP1 POP DUP2 DUP2 SUB PUSH1 0x0 DUP4 ADD MSTORE PUSH2 0x2CF5 DUP2 PUSH2 0x2CB9 JUMP JUMPDEST SWAP1 POP SWAP2 SWAP1 POP JUMP JUMPDEST PUSH32 0x496E697469616C697A61626C653A20636F6E747261637420697320616C726561 PUSH1 0x0 DUP3 ADD MSTORE PUSH32 0x647920696E697469616C697A6564000000000000000000000000000000000000 PUSH1 0x20 DUP3 ADD MSTORE POP JUMP JUMPDEST PUSH1 0x0 PUSH2 0x2D58 PUSH1 0x2E DUP4 PUSH2 0x2505 JUMP JUMPDEST SWAP2 POP PUSH2 0x2D63 DUP3 PUSH2 0x2CFC JUMP JUMPDEST PUSH1 0x40 DUP3 ADD SWAP1 POP SWAP2 SWAP1 POP JUMP JUMPDEST PUSH1 0x0 PUSH1 0x20 DUP3 ADD SWAP1 POP DUP2 DUP2 SUB PUSH1 0x0 DUP4 ADD MSTORE PUSH2 0x2D87 DUP2 PUSH2 0x2D4B JUMP JUMPDEST SWAP1 POP SWAP2 SWAP1 POP JUMP JUMPDEST PUSH32 0x496E76616C69642053756273637269626520706C616E73000000000000000000 PUSH1 0x0 DUP3 ADD MSTORE POP JUMP JUMPDEST PUSH1 0x0 PUSH2 0x2DC4 PUSH1 0x17 DUP4 PUSH2 0x2505 JUMP JUMPDEST SWAP2 POP PUSH2 0x2DCF DUP3 PUSH2 0x2D8E JUMP JUMPDEST PUSH1 0x20 DUP3 ADD SWAP1 POP SWAP2 SWAP1 POP JUMP JUMPDEST PUSH1 0x0 PUSH1 0x20 DUP3 ADD SWAP1 POP DUP2 DUP2 SUB PUSH1 0x0 DUP4 ADD MSTORE PUSH2 0x2DF3 DUP2 PUSH2 0x2DB7 JUMP JUMPDEST SWAP1 POP SWAP2 SWAP1 POP JUMP JUMPDEST PUSH32 0x4E487B7100000000000000000000000000000000000000000000000000000000 PUSH1 0x0 MSTORE PUSH1 0x32 PUSH1 0x4 MSTORE PUSH1 0x24 PUSH1 0x0 REVERT JUMPDEST PUSH1 0x0 DUP1 REVERT JUMPDEST PUSH1 0x0 DUP1 REVERT JUMPDEST PUSH1 0x0 DUP1 REVERT JUMPDEST PUSH1 0x0 DUP3 CALLDATALOAD PUSH1 0x1 PUSH1 0x40 SUB DUP4 CALLDATASIZE SUB SUB DUP2 SLT PUSH2 0x2E54 JUMPI PUSH2 0x2E53 PUSH2 0x2E29 JUMP JUMPDEST JUMPDEST DUP1 DUP4 ADD SWAP2 POP POP SWAP3 SWAP2 POP POP JUMP JUMPDEST PUSH1 0x0 DUP1 DUP4 CALLDATALOAD PUSH1 0x1 PUSH1 0x20 SUB DUP5 CALLDATASIZE SUB SUB DUP2 SLT PUSH2 0x2E7D JUMPI PUSH2 0x2E7C PUSH2 0x2E29 JUMP JUMPDEST JUMPDEST DUP1 DUP5 ADD SWAP3 POP DUP3 CALLDATALOAD SWAP2 POP PUSH8 0xFFFFFFFFFFFFFFFF DUP3 GT ISZERO PUSH2 0x2E9F JUMPI PUSH2 0x2E9E PUSH2 0x2E2E JUMP JUMPDEST JUMPDEST PUSH1 0x20 DUP4 ADD SWAP3 POP PUSH1 0x1 DUP3 MUL CALLDATASIZE SUB DUP4 SGT ISZERO PUSH2 0x2EBB JUMPI PUSH2 0x2EBA PUSH2 0x2E33 JUMP JUMPDEST JUMPDEST POP SWAP3 POP SWAP3 SWAP1 POP JUMP JUMPDEST PUSH1 0x0 DUP3 SWAP1 POP SWAP3 SWAP2 POP POP JUMP JUMPDEST PUSH32 0x4E487B7100000000000000000000000000000000000000000000000000000000 PUSH1 0x0 MSTORE PUSH1 0x41 PUSH1 0x4 MSTORE PUSH1 0x24 PUSH1 0x0 REVERT JUMPDEST PUSH1 0x0 DUP2 SWAP1 POP DUP2 PUSH1 0x0 MSTORE PUSH1 0x20 PUSH1 0x0 KECCAK256 SWAP1 POP SWAP2 SWAP1 POP JUMP JUMPDEST PUSH1 0x0 PUSH1 0x20 PUSH1 0x1F DUP4 ADD DIV SWAP1 POP SWAP2 SWAP1 POP JUMP JUMPDEST PUSH1 0x0 DUP3 DUP3 SHL SWAP1 POP SWAP3 SWAP2 POP POP JUMP JUMPDEST PUSH1 0x0 PUSH1 0x8 DUP4 MUL PUSH2 0x2F5F PUSH32 0xFFFFFFFFFFFFFFFFFFFFFFFFFFFFFFFFFFFFFFFFFFFFFFFFFFFFFFFFFFFFFFFF DUP3 PUSH2 0x2F22 JUMP JUMPDEST PUSH2 0x2F69 DUP7 DUP4 PUSH2 0x2F22 JUMP JUMPDEST SWAP6 POP DUP1 NOT DUP5 AND SWAP4 POP DUP1 DUP7 AND DUP5 OR SWAP3 POP POP POP SWAP4 SWAP3 POP POP POP JUMP JUMPDEST PUSH1 0x0 DUP2 SWAP1 POP SWAP2 SWAP1 POP JUMP JUMPDEST PUSH1 0x0 PUSH2 0x2FA6 PUSH2 0x2FA1 PUSH2 0x2F9C DUP5 PUSH2 0x2497 JUMP JUMPDEST PUSH2 0x2F81 JUMP JUMPDEST PUSH2 0x2497 JUMP JUMPDEST SWAP1 POP SWAP2 SWAP1 POP JUMP JUMPDEST PUSH1 0x0 DUP2 SWAP1 POP SWAP2 SWAP1 POP JUMP JUMPDEST PUSH2 0x2FC0 DUP4 PUSH2 0x2F8B JUMP JUMPDEST PUSH2 0x2FD4 PUSH2 0x2FCC DUP3 PUSH2 0x2FAD JUMP JUMPDEST DUP5 DUP5 SLOAD PUSH2 0x2F2F JUMP JUMPDEST DUP3 SSTORE POP POP POP POP JUMP JUMPDEST PUSH1 0x0 SWAP1 JUMP JUMPDEST PUSH2 0x2FE9 PUSH2 0x2FDC JUMP JUMPDEST PUSH2 0x2FF4 DUP2 DUP5 DUP5 PUSH2 0x2FB7 JUMP JUMPDEST POP POP POP JUMP JUMPDEST JUMPDEST DUP2 DUP2 LT ISZERO PUSH2 0x3018 JUMPI PUSH2 0x300D PUSH1 0x0 DUP3 PUSH2 0x2FE1 JUMP JUMPDEST PUSH1 0x1 DUP2 ADD SWAP1 POP PUSH2 0x2FFA JUMP JUMPDEST POP POP JUMP JUMPDEST PUSH1 0x1F DUP3 GT ISZERO PUSH2 0x305D JUMPI PUSH2 0x302E DUP2 PUSH2 0x2EFD JUMP JUMPDEST PUSH2 0x3037 DUP5 PUSH2 0x2F12 JUMP JUMPDEST DUP2 ADD PUSH1 0x20 DUP6 LT ISZERO PUSH2 0x3046 JUMPI DUP2 SWAP1 POP JUMPDEST PUSH2 0x305A PUSH2 0x3052 DUP6 PUSH2 0x2F12 JUMP JUMPDEST DUP4 ADD DUP3 PUSH2 0x2FF9 JUMP JUMPDEST POP POP JUMPDEST POP POP POP JUMP JUMPDEST PUSH1 0x0 DUP3 DUP3 SHR SWAP1 POP SWAP3 SWAP2 POP POP JUMP JUMPDEST PUSH1 0x0 PUSH2 0x3080 PUSH1 0x0 NOT DUP5 PUSH1 0x8 MUL PUSH2 0x3062 JUMP JUMPDEST NOT DUP1 DUP4 AND SWAP2 POP POP SWAP3 SWAP2 POP POP JUMP JUMPDEST PUSH1 0x0 PUSH2 0x3099 DUP4 DUP4 PUSH2 0x306F JUMP JUMPDEST SWAP2 POP DUP3 PUSH1 0x2 MUL DUP3 OR SWAP1 POP SWAP3 SWAP2 POP POP JUMP JUMPDEST PUSH2 0x30B3 DUP4 DUP4 PUSH2 0x2EC3 JUMP JUMPDEST PUSH8 0xFFFFFFFFFFFFFFFF DUP2 GT ISZERO PUSH2 0x30CC JUMPI PUSH2 0x30CB PUSH2 0x2ECE JUMP JUMPDEST JUMPDEST PUSH2 0x30D6 DUP3 SLOAD PUSH2 0x2B60 JUMP JUMPDEST PUSH2 0x30E1 DUP3 DUP3 DUP6 PUSH2 0x301C JUMP JUMPDEST PUSH1 0x0 PUSH1 0x1F DUP4 GT PUSH1 0x1 DUP2 EQ PUSH2 0x3110 JUMPI PUSH1 0x0 DUP5 ISZERO PUSH2 0x30FE JUMPI DUP3 DUP8 ADD CALLDATALOAD SWAP1 POP JUMPDEST PUSH2 0x3108 DUP6 DUP3 PUSH2 0x308D JUMP JUMPDEST DUP7 SSTORE POP PUSH2 0x3170 JUMP JUMPDEST PUSH1 0x1F NOT DUP5 AND PUSH2 0x311E DUP7 PUSH2 0x2EFD JUMP JUMPDEST PUSH1 0x0 JUMPDEST DUP3 DUP2 LT ISZERO PUSH2 0x3146 JUMPI DUP5 DUP10 ADD CALLDATALOAD DUP3 SSTORE PUSH1 0x1 DUP3 ADD SWAP2 POP PUSH1 0x20 DUP6 ADD SWAP5 POP PUSH1 0x20 DUP2 ADD SWAP1 POP PUSH2 0x3121 JUMP JUMPDEST DUP7 DUP4 LT ISZERO PUSH2 0x3163 JUMPI DUP5 DUP10 ADD CALLDATALOAD PUSH2 0x315F PUSH1 0x1F DUP10 AND DUP3 PUSH2 0x306F JUMP JUMPDEST DUP4 SSTORE POP JUMPDEST PUSH1 0x1 PUSH1 0x2 DUP9 MUL ADD DUP9 SSTORE POP POP POP JUMPDEST POP POP POP POP POP POP POP JUMP JUMPDEST PUSH2 0x3184 DUP4 DUP4 DUP4 PUSH2 0x30A9 JUMP JUMPDEST POP POP POP JUMP JUMPDEST PUSH1 0x0 DUP2 CALLDATALOAD PUSH2 0x3196 DUP2 PUSH2 0x24A1 JUMP JUMPDEST DUP1 SWAP2 POP POP SWAP2 SWAP1 POP JUMP JUMPDEST PUSH1 0x0 DUP2 PUSH1 0x0 SHL SWAP1 POP SWAP2 SWAP1 POP JUMP JUMPDEST PUSH1 0x0 PUSH32 0xFFFFFFFFFFFFFFFFFFFFFFFFFFFFFFFFFFFFFFFFFFFFFFFFFFFFFFFFFFFFFFFF PUSH2 0x31D8 DUP5 PUSH2 0x319F JUMP JUMPDEST SWAP4 POP DUP1 NOT DUP4 AND SWAP3 POP DUP1 DUP5 AND DUP4 OR SWAP2 POP POP SWAP3 SWAP2 POP POP JUMP JUMPDEST PUSH2 0x31F7 DUP3 PUSH2 0x2F8B JUMP JUMPDEST PUSH2 0x320A PUSH2 0x3203 DUP3 PUSH2 0x2FAD JUMP JUMPDEST DUP4 SLOAD PUSH2 0x31AC JUMP JUMPDEST DUP3 SSTORE POP POP POP JUMP JUMPDEST PUSH1 0x0 DUP2 ADD PUSH1 0x0 DUP4 ADD PUSH2 0x3223 DUP2 DUP6 PUSH2 0x2E60 JUMP JUMPDEST PUSH2 0x322E DUP2 DUP4 DUP7 PUSH2 0x3179 JUMP JUMPDEST POP POP POP POP PUSH1 0x1 DUP2 ADD PUSH1 0x20 DUP4 ADD DUP1 PUSH2 0x3244 DUP2 PUSH2 0x3189 JUMP JUMPDEST SWAP1 POP PUSH2 0x3250 DUP2 DUP5 PUSH2 0x31EE JUMP JUMPDEST POP POP POP POP POP JUMP JUMPDEST PUSH2 0x3261 DUP3 DUP3 PUSH2 0x3211 JUMP JUMPDEST POP POP JUMP JUMPDEST PUSH32 0x4E487B7100000000000000000000000000000000000000000000000000000000 PUSH1 0x0 MSTORE PUSH1 0x11 PUSH1 0x4 MSTORE PUSH1 0x24 PUSH1 0x0 REVERT JUMPDEST PUSH1 0x0 PUSH2 0x329F DUP3 PUSH2 0x2497 JUMP JUMPDEST SWAP2 POP PUSH32 0xFFFFFFFFFFFFFFFFFFFFFFFFFFFFFFFFFFFFFFFFFFFFFFFFFFFFFFFFFFFFFFFF DUP3 EQ ISZERO PUSH2 0x32D2 JUMPI PUSH2 0x32D1 PUSH2 0x3265 JUMP JUMPDEST JUMPDEST PUSH1 0x1 DUP3 ADD SWAP1 POP SWAP2 SWAP1 POP JUMP JUMPDEST PUSH1 0x0 DUP2 SWAP1 POP SWAP2 SWAP1 POP JUMP JUMPDEST PUSH1 0x0 PUSH1 0xFF DUP3 AND SWAP1 POP SWAP2 SWAP1 POP JUMP JUMPDEST PUSH1 0x0 PUSH2 0x330F PUSH2 0x330A PUSH2 0x3305 DUP5 PUSH2 0x32DD JUMP JUMPDEST PUSH2 0x2F81 JUMP JUMPDEST PUSH2 0x32E7 JUMP JUMPDEST SWAP1 POP SWAP2 SWAP1 POP JUMP JUMPDEST PUSH2 0x331F DUP2 PUSH2 0x32F4 JUMP JUMPDEST DUP3 MSTORE POP POP JUMP JUMPDEST PUSH1 0x0 PUSH1 0x20 DUP3 ADD SWAP1 POP PUSH2 0x333A PUSH1 0x0 DUP4 ADD DUP5 PUSH2 0x3316 JUMP JUMPDEST SWAP3 SWAP2 POP POP JUMP JUMPDEST PUSH32 0x496E73756666696369656E74207061796D656E74000000000000000000000000 PUSH1 0x0 DUP3 ADD MSTORE POP JUMP JUMPDEST PUSH1 0x0 PUSH2 0x3376 PUSH1 0x14 DUP4 PUSH2 0x2505 JUMP JUMPDEST SWAP2 POP PUSH2 0x3381 DUP3 PUSH2 0x3340 JUMP JUMPDEST PUSH1 0x20 DUP3 ADD SWAP1 POP SWAP2 SWAP1 POP JUMP JUMPDEST PUSH1 0x0 PUSH1 0x20 DUP3 ADD SWAP1 POP DUP2 DUP2 SUB PUSH1 0x0 DUP4 ADD MSTORE PUSH2 0x33A5 DUP2 PUSH2 0x3369 JUMP JUMPDEST SWAP1 POP SWAP2 SWAP1 POP JUMP JUMPDEST PUSH1 0x0 PUSH1 0x80 DUP3 ADD SWAP1 POP PUSH2 0x33C1 PUSH1 0x0 DUP4 ADD DUP8 PUSH2 0x26C0 JUMP JUMPDEST PUSH2 0x33CE PUSH1 0x20 DUP4 ADD DUP7 PUSH2 0x2968 JUMP JUMPDEST PUSH2 0x33DB PUSH1 0x40 DUP4 ADD DUP6 PUSH2 0x2593 JUMP JUMPDEST PUSH2 0x33E8 PUSH1 0x60 DUP4 ADD DUP5 PUSH2 0x2593 JUMP JUMPDEST SWAP6 SWAP5 POP POP POP POP POP JUMP JUMPDEST PUSH1 0x0 DUP2 SWAP1 POP SWAP3 SWAP2 POP POP JUMP JUMPDEST PUSH32 0x1901000000000000000000000000000000000000000000000000000000000000 PUSH1 0x0 DUP3 ADD MSTORE POP JUMP JUMPDEST PUSH1 0x0 PUSH2 0x3432 PUSH1 0x2 DUP4 PUSH2 0x33F1 JUMP JUMPDEST SWAP2 POP PUSH2 0x343D DUP3 PUSH2 0x33FC JUMP JUMPDEST PUSH1 0x2 DUP3 ADD SWAP1 POP SWAP2 SWAP1 POP JUMP JUMPDEST PUSH1 0x0 DUP2 SWAP1 POP SWAP2 SWAP1 POP JUMP JUMPDEST PUSH2 0x3463 PUSH2 0x345E DUP3 PUSH2 0x265D JUMP JUMPDEST PUSH2 0x3448 JUMP JUMPDEST DUP3 MSTORE POP POP JUMP JUMPDEST PUSH1 0x0 PUSH2 0x3474 DUP3 PUSH2 0x3425 JUMP JUMPDEST SWAP2 POP PUSH2 0x3480 DUP3 DUP6 PUSH2 0x3452 JUMP JUMPDEST PUSH1 0x20 DUP3 ADD SWAP2 POP PUSH2 0x3490 DUP3 DUP5 PUSH2 0x3452 JUMP JUMPDEST PUSH1 0x20 DUP3 ADD SWAP2 POP DUP2 SWAP1 POP SWAP4 SWAP3 POP POP POP JUMP JUMPDEST PUSH32 0x496E76616C6964207369676E6174757265000000000000000000000000000000 PUSH1 0x0 DUP3 ADD MSTORE POP JUMP JUMPDEST PUSH1 0x0 PUSH2 0x34D6 PUSH1 0x11 DUP4 PUSH2 0x2505 JUMP JUMPDEST SWAP2 POP PUSH2 0x34E1 DUP3 PUSH2 0x34A0 JUMP JUMPDEST PUSH1 0x20 DUP3 ADD SWAP1 POP SWAP2 SWAP1 POP JUMP JUMPDEST PUSH1 0x0 PUSH1 0x20 DUP3 ADD SWAP1 POP DUP2 DUP2 SUB PUSH1 0x0 DUP4 ADD MSTORE PUSH2 0x3505 DUP2 PUSH2 0x34C9 JUMP JUMPDEST SWAP1 POP SWAP2 SWAP1 POP JUMP JUMPDEST PUSH1 0x0 PUSH2 0x3517 DUP3 PUSH2 0x2497 JUMP JUMPDEST SWAP2 POP PUSH2 0x3522 DUP4 PUSH2 0x2497 JUMP JUMPDEST SWAP3 POP DUP2 PUSH32 0xFFFFFFFFFFFFFFFFFFFFFFFFFFFFFFFFFFFFFFFFFFFFFFFFFFFFFFFFFFFFFFFF DIV DUP4 GT DUP3 ISZERO ISZERO AND ISZERO PUSH2 0x355B JUMPI PUSH2 0x355A PUSH2 0x3265 JUMP JUMPDEST JUMPDEST DUP3 DUP3 MUL SWAP1 POP SWAP3 SWAP2 POP POP JUMP JUMPDEST PUSH32 0x4E487B7100000000000000000000000000000000000000000000000000000000 PUSH1 0x0 MSTORE PUSH1 0x12 PUSH1 0x4 MSTORE PUSH1 0x24 PUSH1 0x0 REVERT JUMPDEST PUSH1 0x0 PUSH2 0x35A0 DUP3 PUSH2 0x2497 JUMP JUMPDEST SWAP2 POP PUSH2 0x35AB DUP4 PUSH2 0x2497 JUMP JUMPDEST SWAP3 POP DUP3 PUSH2 0x35BB JUMPI PUSH2 0x35BA PUSH2 0x3566 JUMP JUMPDEST JUMPDEST DUP3 DUP3 DIV SWAP1 POP SWAP3 SWAP2 POP POP JUMP JUMPDEST PUSH1 0x0 PUSH2 0x35D1 DUP3 PUSH2 0x2497 JUMP JUMPDEST SWAP2 POP PUSH2 0x35DC DUP4 PUSH2 0x2497 JUMP JUMPDEST SWAP3 POP DUP3 DUP3 LT ISZERO PUSH2 0x35EF JUMPI PUSH2 0x35EE PUSH2 0x3265 JUMP JUMPDEST JUMPDEST DUP3 DUP3 SUB SWAP1 POP SWAP3 SWAP2 POP POP JUMP JUMPDEST PUSH1 0x0 PUSH1 0x60 DUP3 ADD SWAP1 POP PUSH2 0x360F PUSH1 0x0 DUP4 ADD DUP7 PUSH2 0x2593 JUMP JUMPDEST PUSH2 0x361C PUSH1 0x20 DUP4 ADD DUP6 PUSH2 0x2593 JUMP JUMPDEST PUSH2 0x3629 PUSH1 0x40 DUP4 ADD DUP5 PUSH2 0x2593 JUMP JUMPDEST SWAP5 SWAP4 POP POP POP POP JUMP JUMPDEST PUSH32 0x4549503731323A20556E696E697469616C697A65640000000000000000000000 PUSH1 0x0 DUP3 ADD MSTORE POP JUMP JUMPDEST PUSH1 0x0 PUSH2 0x3667 PUSH1 0x15 DUP4 PUSH2 0x2505 JUMP JUMPDEST SWAP2 POP PUSH2 0x3672 DUP3 PUSH2 0x3631 JUMP JUMPDEST PUSH1 0x20 DUP3 ADD SWAP1 POP SWAP2 SWAP1 POP JUMP JUMPDEST PUSH1 0x0 PUSH1 0x20 DUP3 ADD SWAP1 POP DUP2 DUP2 SUB PUSH1 0x0 DUP4 ADD MSTORE PUSH2 0x3696 DUP2 PUSH2 0x365A JUMP JUMPDEST SWAP1 POP SWAP2 SWAP1 POP JUMP JUMPDEST PUSH32 0x4D6F726967696E4170703A20696E76616C69642076616C756521000000000000 PUSH1 0x0 DUP3 ADD MSTORE POP JUMP JUMPDEST PUSH1 0x0 PUSH2 0x36D3 PUSH1 0x1A DUP4 PUSH2 0x2505 JUMP JUMPDEST SWAP2 POP PUSH2 0x36DE DUP3 PUSH2 0x369D JUMP JUMPDEST PUSH1 0x20 DUP3 ADD SWAP1 POP SWAP2 SWAP1 POP JUMP JUMPDEST PUSH1 0x0 PUSH1 0x20 DUP3 ADD SWAP1 POP DUP2 DUP2 SUB PUSH1 0x0 DUP4 ADD MSTORE PUSH2 0x3702 DUP2 PUSH2 0x36C6 JUMP JUMPDEST SWAP1 POP SWAP2 SWAP1 POP JUMP JUMPDEST PUSH32 0x496E697469616C697A61626C653A20636F6E7472616374206973206E6F742069 PUSH1 0x0 DUP3 ADD MSTORE PUSH32 0x6E697469616C697A696E67000000000000000000000000000000000000000000 PUSH1 0x20 DUP3 ADD MSTORE POP JUMP JUMPDEST PUSH1 0x0 PUSH2 0x3765 PUSH1 0x2B DUP4 PUSH2 0x2505 JUMP JUMPDEST SWAP2 POP PUSH2 0x3770 DUP3 PUSH2 0x3709 JUMP JUMPDEST PUSH1 0x40 DUP3 ADD SWAP1 POP SWAP2 SWAP1 POP JUMP JUMPDEST PUSH1 0x0 PUSH1 0x20 DUP3 ADD SWAP1 POP DUP2 DUP2 SUB PUSH1 0x0 DUP4 ADD MSTORE PUSH2 0x3794 DUP2 PUSH2 0x3758 JUMP JUMPDEST SWAP1 POP SWAP2 SWAP1 POP JUMP JUMPDEST PUSH32 0x416363657373436F6E74726F6C3A206163636F756E7420000000000000000000 PUSH1 0x0 DUP3 ADD MSTORE POP JUMP JUMPDEST PUSH1 0x0 PUSH2 0x37D1 PUSH1 0x17 DUP4 PUSH2 0x33F1 JUMP JUMPDEST SWAP2 POP PUSH2 0x37DC DUP3 PUSH2 0x379B JUMP JUMPDEST PUSH1 0x17 DUP3 ADD SWAP1 POP SWAP2 SWAP1 POP JUMP JUMPDEST PUSH1 0x0 PUSH2 0x37F2 DUP3 PUSH2 0x24FA JUMP JUMPDEST PUSH2 0x37FC DUP2 DUP6 PUSH2 0x33F1 JUMP JUMPDEST SWAP4 POP PUSH2 0x380C DUP2 DUP6 PUSH1 0x20 DUP7 ADD PUSH2 0x2516 JUMP JUMPDEST DUP1 DUP5 ADD SWAP2 POP POP SWAP3 SWAP2 POP POP JUMP JUMPDEST PUSH32 0x206973206D697373696E6720726F6C6520000000000000000000000000000000 PUSH1 0x0 DUP3 ADD MSTORE POP JUMP JUMPDEST PUSH1 0x0 PUSH2 0x384E PUSH1 0x11 DUP4 PUSH2 0x33F1 JUMP JUMPDEST SWAP2 POP PUSH2 0x3859 DUP3 PUSH2 0x3818 JUMP JUMPDEST PUSH1 0x11 DUP3 ADD SWAP1 POP SWAP2 SWAP1 POP JUMP JUMPDEST PUSH1 0x0 PUSH2 0x386F DUP3 PUSH2 0x37C4 JUMP JUMPDEST SWAP2 POP PUSH2 0x387B DUP3 DUP6 PUSH2 0x37E7 JUMP JUMPDEST SWAP2 POP PUSH2 0x3886 DUP3 PUSH2 0x3841 JUMP JUMPDEST SWAP2 POP PUSH2 0x3892 DUP3 DUP5 PUSH2 0x37E7 JUMP JUMPDEST SWAP2 POP DUP2 SWAP1 POP SWAP4 SWAP3 POP POP POP JUMP JUMPDEST PUSH32 0x5061757361626C653A206E6F7420706175736564000000000000000000000000 PUSH1 0x0 DUP3 ADD MSTORE POP JUMP JUMPDEST PUSH1 0x0 PUSH2 0x38D4 PUSH1 0x14 DUP4 PUSH2 0x2505 JUMP JUMPDEST SWAP2 POP PUSH2 0x38DF DUP3 PUSH2 0x389E JUMP JUMPDEST PUSH1 0x20 DUP3 ADD SWAP1 POP SWAP2 SWAP1 POP JUMP JUMPDEST PUSH1 0x0 PUSH1 0x20 DUP3 ADD SWAP1 POP DUP2 DUP2 SUB PUSH1 0x0 DUP4 ADD MSTORE PUSH2 0x3903 DUP2 PUSH2 0x38C7 JUMP JUMPDEST SWAP1 POP SWAP2 SWAP1 POP JUMP JUMPDEST PUSH32 0x4E487B7100000000000000000000000000000000000000000000000000000000 PUSH1 0x0 MSTORE PUSH1 0x21 PUSH1 0x4 MSTORE PUSH1 0x24 PUSH1 0x0 REVERT JUMPDEST PUSH32 0x45434453413A20696E76616C6964207369676E61747572650000000000000000 PUSH1 0x0 DUP3 ADD MSTORE POP JUMP JUMPDEST PUSH1 0x0 PUSH2 0x396F PUSH1 0x18 DUP4 PUSH2 0x2505 JUMP JUMPDEST SWAP2 POP PUSH2 0x397A DUP3 PUSH2 0x3939 JUMP JUMPDEST PUSH1 0x20 DUP3 ADD SWAP1 POP SWAP2 SWAP1 POP JUMP JUMPDEST PUSH1 0x0 PUSH1 0x20 DUP3 ADD SWAP1 POP DUP2 DUP2 SUB PUSH1 0x0 DUP4 ADD MSTORE PUSH2 0x399E DUP2 PUSH2 0x3962 JUMP JUMPDEST SWAP1 POP SWAP2 SWAP1 POP JUMP JUMPDEST PUSH32 0x45434453413A20696E76616C6964207369676E6174757265206C656E67746800 PUSH1 0x0 DUP3 ADD MSTORE POP JUMP JUMPDEST PUSH1 0x0 PUSH2 0x39DB PUSH1 0x1F DUP4 PUSH2 0x2505 JUMP JUMPDEST SWAP2 POP PUSH2 0x39E6 DUP3 PUSH2 0x39A5 JUMP JUMPDEST PUSH1 0x20 DUP3 ADD SWAP1 POP SWAP2 SWAP1 POP JUMP JUMPDEST PUSH1 0x0 PUSH1 0x20 DUP3 ADD SWAP1 POP DUP2 DUP2 SUB PUSH1 0x0 DUP4 ADD MSTORE PUSH2 0x3A0A DUP2 PUSH2 0x39CE JUMP JUMPDEST SWAP1 POP SWAP2 SWAP1 POP JUMP JUMPDEST PUSH32 0x45434453413A20696E76616C6964207369676E6174757265202773272076616C PUSH1 0x0 DUP3 ADD MSTORE PUSH32 0x7565000000000000000000000000000000000000000000000000000000000000 PUSH1 0x20 DUP3 ADD MSTORE POP JUMP JUMPDEST PUSH1 0x0 PUSH2 0x3A6D PUSH1 0x22 DUP4 PUSH2 0x2505 JUMP JUMPDEST SWAP2 POP PUSH2 0x3A78 DUP3 PUSH2 0x3A11 JUMP JUMPDEST PUSH1 0x40 DUP3 ADD SWAP1 POP SWAP2 SWAP1 POP JUMP JUMPDEST PUSH1 0x0 PUSH1 0x20 DUP3 ADD SWAP1 POP DUP2 DUP2 SUB PUSH1 0x0 DUP4 ADD MSTORE PUSH2 0x3A9C DUP2 PUSH2 0x3A60 JUMP JUMPDEST SWAP1 POP SWAP2 SWAP1 POP JUMP JUMPDEST PUSH32 0x5061757361626C653A2070617573656400000000000000000000000000000000 PUSH1 0x0 DUP3 ADD MSTORE POP JUMP JUMPDEST PUSH1 0x0 PUSH2 0x3AD9 PUSH1 0x10 DUP4 PUSH2 0x2505 JUMP JUMPDEST SWAP2 POP PUSH2 0x3AE4 DUP3 PUSH2 0x3AA3 JUMP JUMPDEST PUSH1 0x20 DUP3 ADD SWAP1 POP SWAP2 SWAP1 POP JUMP JUMPDEST PUSH1 0x0 PUSH1 0x20 DUP3 ADD SWAP1 POP DUP2 DUP2 SUB PUSH1 0x0 DUP4 ADD MSTORE PUSH2 0x3B08 DUP2 PUSH2 0x3ACC JUMP JUMPDEST SWAP1 POP SWAP2 SWAP1 POP JUMP JUMPDEST PUSH1 0x0 PUSH2 0x3B1A DUP3 PUSH2 0x2497 JUMP JUMPDEST SWAP2 POP PUSH2 0x3B25 DUP4 PUSH2 0x2497 JUMP JUMPDEST SWAP3 POP DUP3 PUSH32 0xFFFFFFFFFFFFFFFFFFFFFFFFFFFFFFFFFFFFFFFFFFFFFFFFFFFFFFFFFFFFFFFF SUB DUP3 GT ISZERO PUSH2 0x3B5A JUMPI PUSH2 0x3B59 PUSH2 0x3265 JUMP JUMPDEST JUMPDEST DUP3 DUP3 ADD SWAP1 POP SWAP3 SWAP2 POP POP JUMP JUMPDEST PUSH1 0x0 PUSH2 0x3B70 DUP3 PUSH2 0x2497 JUMP JUMPDEST SWAP2 POP PUSH1 0x0 DUP3 EQ ISZERO PUSH2 0x3B84 JUMPI PUSH2 0x3B83 PUSH2 0x3265 JUMP JUMPDEST JUMPDEST PUSH1 0x1 DUP3 SUB SWAP1 POP SWAP2 SWAP1 POP JUMP JUMPDEST PUSH32 0x537472696E67733A20686578206C656E67746820696E73756666696369656E74 PUSH1 0x0 DUP3 ADD MSTORE POP JUMP JUMPDEST PUSH1 0x0 PUSH2 0x3BC5 PUSH1 0x20 DUP4 PUSH2 0x2505 JUMP JUMPDEST SWAP2 POP PUSH2 0x3BD0 DUP3 PUSH2 0x3B8F JUMP JUMPDEST PUSH1 0x20 DUP3 ADD SWAP1 POP SWAP2 SWAP1 POP JUMP JUMPDEST PUSH1 0x0 PUSH1 0x20 DUP3 ADD SWAP1 POP DUP2 DUP2 SUB PUSH1 0x0 DUP4 ADD MSTORE PUSH2 0x3BF4 DUP2 PUSH2 0x3BB8 JUMP JUMPDEST SWAP1 POP SWAP2 SWAP1 POP JUMP JUMPDEST PUSH2 0x3C04 DUP2 PUSH2 0x32E7 JUMP JUMPDEST DUP3 MSTORE POP POP JUMP JUMPDEST PUSH1 0x0 PUSH1 0x80 DUP3 ADD SWAP1 POP PUSH2 0x3C1F PUSH1 0x0 DUP4 ADD DUP8 PUSH2 0x26C0 JUMP JUMPDEST PUSH2 0x3C2C PUSH1 0x20 DUP4 ADD DUP7 PUSH2 0x3BFB JUMP JUMPDEST PUSH2 0x3C39 PUSH1 0x40 DUP4 ADD DUP6 PUSH2 0x26C0 JUMP JUMPDEST PUSH2 0x3C46 PUSH1 0x60 DUP4 ADD DUP5 PUSH2 0x26C0 JUMP JUMPDEST SWAP6 SWAP5 POP POP POP POP POP JUMP INVALID GASLIMIT 0x49 POP CALLDATACOPY BALANCE ORIGIN DIFFICULTY PUSH16 0x6D61696E28737472696E67206E616D65 0x2C PUSH20 0x7472696E672076657273696F6E2C75696E743235 CALLDATASIZE KECCAK256 PUSH4 0x6861696E 0x49 PUSH5 0x2C61646472 PUSH6 0x737320766572 PUSH10 0x6679696E67436F6E7472 PUSH2 0x6374 0x29 LOG2 PUSH5 0x6970667358 0x22 SLT KECCAK256 0xF7 0x4B 0xBF SHR SWAP6 MLOAD INVALID 0xEC JUMP 0x4B 0xEA DELEGATECALL 0x1E SWAP4 PUSH20 0xEB6888C05775B51507370509A0AFC206C664736F PUSH13 0x63430008090033000000000000 "},"methodIdentifiers":{"DEFAULT_ADMIN_ROLE()":"a217fddf","DOMAIN_SEPARATOR()":"3644e515","EIP712_DOMAIN_TYPEHASH()":"c7977be7","PAUSER_ROLE()":"e63ab1e9","PAYMENT_TYPEHASH()":"6d3298cb","addAdmin(address)":"70480275","addPauser(address)":"82dc1ec4","daoTreasury()":"79022a9f","eip712Domain()":"84b0196e","getRoleAdmin(bytes32)":"248a9ca3","grantRole(bytes32,address)":"2f2ff15d","hasRole(bytes32,address)":"91d14854","initialize(address,address,(string,uint256)[])":"5f429c1b","isAdmin(address)":"24d7806c","isPauser(address)":"46fbf68e","nonces(address)":"7ecebe00","paginationSize()":"3d538ecf","pause()":"8456cb59","paused()":"5c975abb","payWithSignature(uint256,uint256,bytes)":"76fe8ead","removeAdmin(address)":"1785f53c","removePauser(address)":"6b2c0f55","renounceRole(bytes32,address)":"36568abe","revokeRole(bytes32,address)":"d547741f","setDAOTreasury(address)":"2978dc3c","setPaginationSize(uint256)":"f2407ca4","setTierPrice(uint256,(string,uint256))":"73c76980","supportsInterface(bytes4)":"01ffc9a7","tiers(uint256)":"039af9eb","unpause()":"3f4ba83a"}},"storageLayout":{"storage":[{"astId":440,"contract":"contracts/ScopePayment.sol:BlockscopePayment","label":"_initialized","offset":0,"slot":"0","type":"t_uint8"},{"astId":443,"contract":"contracts/ScopePayment.sol:BlockscopePayment","label":"_initializing","offset":1,"slot":"0","type":"t_bool"},{"astId":1714,"contract":"contracts/ScopePayment.sol:BlockscopePayment","label":"_hashedName","offset":0,"slot":"1","type":"t_bytes32"},{"astId":1717,"contract":"contracts/ScopePayment.sol:BlockscopePayment","label":"_hashedVersion","offset":0,"slot":"2","type":"t_bytes32"},{"astId":1719,"contract":"contracts/ScopePayment.sol:BlockscopePayment","label":"_name","offset":0,"slot":"3","type":"t_string_storage"},{"astId":1721,"contract":"contracts/ScopePayment.sol:BlockscopePayment","label":"_version","offset":0,"slot":"4","type":"t_string_storage"},{"astId":1979,"contract":"contracts/ScopePayment.sol:BlockscopePayment","label":"__gap","offset":0,"slot":"5","type":"t_array(t_uint256)48_storage"},{"astId":1100,"contract":"contracts/ScopePayment.sol:BlockscopePayment","label":"__gap","offset":0,"slot":"53","type":"t_array(t_uint256)50_storage"},{"astId":623,"contract":"contracts/ScopePayment.sol:BlockscopePayment","label":"_paused","offset":0,"slot":"103","type":"t_bool"},{"astId":728,"contract":"contracts/ScopePayment.sol:BlockscopePayment","label":"__gap","offset":0,"slot":"104","type":"t_array(t_uint256)49_storage"},{"astId":2026,"contract":"contracts/ScopePayment.sol:BlockscopePayment","label":"__gap","offset":0,"slot":"153","type":"t_array(t_uint256)50_storage"},{"astId":39,"contract":"contracts/ScopePayment.sol:BlockscopePayment","label":"_roles","offset":0,"slot":"203","type":"t_mapping(t_bytes32,t_struct(RoleData)34_storage)"},{"astId":334,"contract":"contracts/ScopePayment.sol:BlockscopePayment","label":"__gap","offset":0,"slot":"204","type":"t_array(t_uint256)49_storage"},{"astId":4395,"contract":"contracts/ScopePayment.sol:BlockscopePayment","label":"paginationSize","offset":0,"slot":"253","type":"t_uint256"},{"astId":3855,"contract":"contracts/ScopePayment.sol:BlockscopePayment","label":"daoTreasury","offset":0,"slot":"254","type":"t_address"},{"astId":3859,"contract":"contracts/ScopePayment.sol:BlockscopePayment","label":"tiers","offset":0,"slot":"255","type":"t_array(t_struct(Tier)4304_storage)dyn_storage"},{"astId":3861,"contract":"contracts/ScopePayment.sol:BlockscopePayment","label":"DOMAIN_SEPARATOR","offset":0,"slot":"256","type":"t_bytes32"},{"astId":3873,"contract":"contracts/ScopePayment.sol:BlockscopePayment","label":"nonces","offset":0,"slot":"257","type":"t_mapping(t_address,t_uint256)"}],"types":{"t_address":{"encoding":"inplace","label":"address","numberOfBytes":"20"},"t_array(t_struct(Tier)4304_storage)dyn_storage":{"base":"t_struct(Tier)4304_storage","encoding":"dynamic_array","label":"struct IBlockscopePayment.Tier[]","numberOfBytes":"32"},"t_array(t_uint256)48_storage":{"base":"t_uint256","encoding":"inplace","label":"uint256[48]","numberOfBytes":"1536"},"t_array(t_uint256)49_storage":{"base":"t_uint256","encoding":"inplace","label":"uint256[49]","numberOfBytes":"1568"},"t_array(t_uint256)50_storage":{"base":"t_uint256","encoding":"inplace","label":"uint256[50]","numberOfBytes":"1600"},"t_bool":{"encoding":"inplace","label":"bool","numberOfBytes":"1"},"t_bytes32":{"encoding":"inplace","label":"bytes32","numberOfBytes":"32"},"t_mapping(t_address,t_bool)":{"encoding":"mapping","key":"t_address","label":"mapping(address => bool)","numberOfBytes":"32","value":"t_bool"},"t_mapping(t_address,t_uint256)":{"encoding":"mapping","key":"t_address","label":"mapping(address => uint256)","numberOfBytes":"32","value":"t_uint256"},"t_mapping(t_bytes32,t_struct(RoleData)34_storage)":{"encoding":"mapping","key":"t_bytes32","label":"mapping(bytes32 => struct AccessControlUpgradeable.RoleData)","numberOfBytes":"32","value":"t_struct(RoleData)34_storage"},"t_string_storage":{"encoding":"bytes","label":"string","numberOfBytes":"32"},"t_struct(RoleData)34_storage":{"encoding":"inplace","label":"struct AccessControlUpgradeable.RoleData","members":[{"astId":31,"contract":"contracts/ScopePayment.sol:BlockscopePayment","label":"members","offset":0,"slot":"0","type":"t_mapping(t_address,t_bool)"},{"astId":33,"contract":"contracts/ScopePayment.sol:BlockscopePayment","label":"adminRole","offset":0,"slot":"1","type":"t_bytes32"}],"numberOfBytes":"64"},"t_struct(Tier)4304_storage":{"encoding":"inplace","label":"struct IBlockscopePayment.Tier","members":[{"astId":4301,"contract":"contracts/ScopePayment.sol:BlockscopePayment","label":"name","offset":0,"slot":"0","type":"t_string_storage"},{"astId":4303,"contract":"contracts/ScopePayment.sol:BlockscopePayment","label":"price","offset":0,"slot":"1","type":"t_uint256"}],"numberOfBytes":"64"},"t_uint256":{"encoding":"inplace","label":"uint256","numberOfBytes":"32"},"t_uint8":{"encoding":"inplace","label":"uint8","numberOfBytes":"1"}}}}}}