{
  "_format": "hh-sol-artifact-1",
  "contractName": "BlockScopePaymentV2",
  "sourceName": "contracts/v2/BlockScopePaymentV2.sol",
  "abi": [
    {
      "anonymous": false,
      "inputs": [
        {
          "indexed": false,
          "internalType": "string",
          "name": "msg",
          "type": "string"
        }
      ],
      "name": "ASSERT",
      "type": "event"
    },
    {
      "anonymous": false,
      "inputs": [
        {
          "indexed": false,
          "internalType": "address",
          "name": "previousAdmin",
          "type": "address"
        },
        {
          "indexed": false,
          "internalType": "address",
          "name": "newAdmin",
          "type": "address"
        }
      ],
      "name": "AdminChanged",
      "type": "event"
    },
    {
      "anonymous": false,
      "inputs": [
        {
          "indexed": true,
          "internalType": "address",
          "name": "beacon",
          "type": "address"
        }
      ],
      "name": "BeaconUpgraded",
      "type": "event"
    },
    {
      "anonymous": false,
      "inputs": [],
      "name": "EIP712DomainChanged",
      "type": "event"
    },
    {
      "anonymous": false,
      "inputs": [
        {
          "indexed": false,
          "internalType": "uint8",
          "name": "version",
          "type": "uint8"
        }
      ],
      "name": "Initialized",
      "type": "event"
    },
    {
      "anonymous": false,
      "inputs": [
        {
          "indexed": false,
          "internalType": "address",
          "name": "account",
          "type": "address"
        }
      ],
      "name": "Paused",
      "type": "event"
    },
    {
      "anonymous": false,
      "inputs": [
        {
          "indexed": true,
          "internalType": "address",
          "name": "payer",
          "type": "address"
        },
        {
          "indexed": false,
          "internalType": "uint256",
          "name": "amount",
          "type": "uint256"
        },
        {
          "indexed": false,
          "internalType": "uint256",
          "name": "daoShare",
          "type": "uint256"
        },
        {
          "indexed": false,
          "internalType": "uint256",
          "name": "burned",
          "type": "uint256"
        }
      ],
      "name": "PaymentReceived",
      "type": "event"
    },
    {
      "anonymous": false,
      "inputs": [
        {
          "indexed": true,
          "internalType": "bytes32",
          "name": "role",
          "type": "bytes32"
        },
        {
          "indexed": true,
          "internalType": "bytes32",
          "name": "previousAdminRole",
          "type": "bytes32"
        },
        {
          "indexed": true,
          "internalType": "bytes32",
          "name": "newAdminRole",
          "type": "bytes32"
        }
      ],
      "name": "RoleAdminChanged",
      "type": "event"
    },
    {
      "anonymous": false,
      "inputs": [
        {
          "indexed": true,
          "internalType": "bytes32",
          "name": "role",
          "type": "bytes32"
        },
        {
          "indexed": true,
          "internalType": "address",
          "name": "account",
          "type": "address"
        },
        {
          "indexed": true,
          "internalType": "address",
          "name": "sender",
          "type": "address"
        }
      ],
      "name": "RoleGranted",
      "type": "event"
    },
    {
      "anonymous": false,
      "inputs": [
        {
          "indexed": true,
          "internalType": "bytes32",
          "name": "role",
          "type": "bytes32"
        },
        {
          "indexed": true,
          "internalType": "address",
          "name": "account",
          "type": "address"
        },
        {
          "indexed": true,
          "internalType": "address",
          "name": "sender",
          "type": "address"
        }
      ],
      "name": "RoleRevoked",
      "type": "event"
    },
    {
      "anonymous": false,
      "inputs": [
        {
          "indexed": false,
          "internalType": "address",
          "name": "account",
          "type": "address"
        }
      ],
      "name": "Unpaused",
      "type": "event"
    },
    {
      "anonymous": false,
      "inputs": [
        {
          "indexed": true,
          "internalType": "address",
          "name": "implementation",
          "type": "address"
        }
      ],
      "name": "Upgraded",
      "type": "event"
    },
    {
      "inputs": [],
      "name": "DEFAULT_ADMIN_ROLE",
      "outputs": [
        {
          "internalType": "bytes32",
          "name": "",
          "type": "bytes32"
        }
      ],
      "stateMutability": "view",
      "type": "function"
    },
    {
      "inputs": [],
      "name": "DOMAIN_SEPARATOR",
      "outputs": [
        {
          "internalType": "bytes32",
          "name": "",
          "type": "bytes32"
        }
      ],
      "stateMutability": "view",
      "type": "function"
    },
    {
      "inputs": [],
      "name": "EIP712_DOMAIN_TYPEHASH",
      "outputs": [
        {
          "internalType": "string",
          "name": "",
          "type": "string"
        }
      ],
      "stateMutability": "view",
      "type": "function"
    },
    {
      "inputs": [],
      "name": "PAUSER_ROLE",
      "outputs": [
        {
          "internalType": "bytes32",
          "name": "",
          "type": "bytes32"
        }
      ],
      "stateMutability": "view",
      "type": "function"
    },
    {
      "inputs": [],
      "name": "PAYMENT_TYPEHASH",
      "outputs": [
        {
          "internalType": "bytes32",
          "name": "",
          "type": "bytes32"
        }
      ],
      "stateMutability": "view",
      "type": "function"
    },
    {
      "inputs": [
        {
          "internalType": "address",
          "name": "_account",
          "type": "address"
        }
      ],
      "name": "addAdmin",
      "outputs": [],
      "stateMutability": "nonpayable",
      "type": "function"
    },
    {
      "inputs": [
        {
          "internalType": "address",
          "name": "_account",
          "type": "address"
        }
      ],
      "name": "addPauser",
      "outputs": [],
      "stateMutability": "nonpayable",
      "type": "function"
    },
    {
      "inputs": [],
      "name": "daoTreasury",
      "outputs": [
        {
          "internalType": "address",
          "name": "",
          "type": "address"
        }
      ],
      "stateMutability": "view",
      "type": "function"
    },
    {
      "inputs": [],
      "name": "eip712Domain",
      "outputs": [
        {
          "internalType": "bytes1",
          "name": "fields",
          "type": "bytes1"
        },
        {
          "internalType": "string",
          "name": "name",
          "type": "string"
        },
        {
          "internalType": "string",
          "name": "version",
          "type": "string"
        },
        {
          "internalType": "uint256",
          "name": "chainId",
          "type": "uint256"
        },
        {
          "internalType": "address",
          "name": "verifyingContract",
          "type": "address"
        },
        {
          "internalType": "bytes32",
          "name": "salt",
          "type": "bytes32"
        },
        {
          "internalType": "uint256[]",
          "name": "extensions",
          "type": "uint256[]"
        }
      ],
      "stateMutability": "view",
      "type": "function"
    },
    {
      "inputs": [
        {
          "internalType": "bytes32",
          "name": "role",
          "type": "bytes32"
        }
      ],
      "name": "getRoleAdmin",
      "outputs": [
        {
          "internalType": "bytes32",
          "name": "",
          "type": "bytes32"
        }
      ],
      "stateMutability": "view",
      "type": "function"
    },
    {
      "inputs": [],
      "name": "getTiers",
      "outputs": [
        {
          "components": [
            {
              "internalType": "string",
              "name": "name",
              "type": "string"
            },
            {
              "internalType": "uint256",
              "name": "price",
              "type": "uint256"
            }
          ],
          "internalType": "struct IBlockScopePayment.Tier[]",
          "name": "",
          "type": "tuple[]"
        }
      ],
      "stateMutability": "view",
      "type": "function"
    },
    {
      "inputs": [
        {
          "internalType": "bytes32",
          "name": "role",
          "type": "bytes32"
        },
        {
          "internalType": "address",
          "name": "account",
          "type": "address"
        }
      ],
      "name": "grantRole",
      "outputs": [],
      "stateMutability": "nonpayable",
      "type": "function"
    },
    {
      "inputs": [
        {
          "internalType": "bytes32",
          "name": "role",
          "type": "bytes32"
        },
        {
          "internalType": "address",
          "name": "account",
          "type": "address"
        }
      ],
      "name": "hasRole",
      "outputs": [
        {
          "internalType": "bool",
          "name": "",
          "type": "bool"
        }
      ],
      "stateMutability": "view",
      "type": "function"
    },
    {
      "inputs": [
        {
          "internalType": "address",
          "name": "_admin",
          "type": "address"
        },
        {
          "internalType": "address",
          "name": "_daoTreasury",
          "type": "address"
        },
        {
          "components": [
            {
              "internalType": "string",
              "name": "name",
              "type": "string"
            },
            {
              "internalType": "uint256",
              "name": "price",
              "type": "uint256"
            }
          ],
          "internalType": "struct IBlockScopePayment.Tier[]",
          "name": "_tiers",
          "type": "tuple[]"
        }
      ],
      "name": "initialize",
      "outputs": [],
      "stateMutability": "nonpayable",
      "type": "function"
    },
    {
      "inputs": [
        {
          "internalType": "address",
          "name": "_account",
          "type": "address"
        }
      ],
      "name": "isAdmin",
      "outputs": [
        {
          "internalType": "bool",
          "name": "",
          "type": "bool"
        }
      ],
      "stateMutability": "view",
      "type": "function"
    },
    {
      "inputs": [
        {
          "internalType": "address",
          "name": "_account",
          "type": "address"
        }
      ],
      "name": "isPauser",
      "outputs": [
        {
          "internalType": "bool",
          "name": "",
          "type": "bool"
        }
      ],
      "stateMutability": "view",
      "type": "function"
    },
    {
      "inputs": [
        {
          "internalType": "address",
          "name": "",
          "type": "address"
        }
      ],
      "name": "nonces",
      "outputs": [
        {
          "internalType": "uint256",
          "name": "",
          "type": "uint256"
        }
      ],
      "stateMutability": "view",
      "type": "function"
    },
    {
      "inputs": [],
      "name": "paginationSize",
      "outputs": [
        {
          "internalType": "uint256",
          "name": "",
          "type": "uint256"
        }
      ],
      "stateMutability": "view",
      "type": "function"
    },
    {
      "inputs": [],
      "name": "pause",
      "outputs": [],
      "stateMutability": "nonpayable",
      "type": "function"
    },
    {
      "inputs": [],
      "name": "paused",
      "outputs": [
        {
          "internalType": "bool",
          "name": "",
          "type": "bool"
        }
      ],
      "stateMutability": "view",
      "type": "function"
    },
    {
      "inputs": [
        {
          "internalType": "uint256",
          "name": "amount",
          "type": "uint256"
        },
        {
          "internalType": "uint256",
          "name": "tierIndex",
          "type": "uint256"
        },
        {
          "internalType": "bytes",
          "name": "signature",
          "type": "bytes"
        }
      ],
      "name": "payWithSignature",
      "outputs": [],
      "stateMutability": "nonpayable",
      "type": "function"
    },
    {
      "inputs": [],
      "name": "proxiableUUID",
      "outputs": [
        {
          "internalType": "bytes32",
          "name": "",
          "type": "bytes32"
        }
      ],
      "stateMutability": "view",
      "type": "function"
    },
    {
      "inputs": [
        {
          "internalType": "address",
          "name": "_account",
          "type": "address"
        }
      ],
      "name": "removeAdmin",
      "outputs": [],
      "stateMutability": "nonpayable",
      "type": "function"
    },
    {
      "inputs": [
        {
          "internalType": "address",
          "name": "_account",
          "type": "address"
        }
      ],
      "name": "removePauser",
      "outputs": [],
      "stateMutability": "nonpayable",
      "type": "function"
    },
    {
      "inputs": [
        {
          "internalType": "bytes32",
          "name": "role",
          "type": "bytes32"
        },
        {
          "internalType": "address",
          "name": "account",
          "type": "address"
        }
      ],
      "name": "renounceRole",
      "outputs": [],
      "stateMutability": "nonpayable",
      "type": "function"
    },
    {
      "inputs": [
        {
          "internalType": "bytes32",
          "name": "role",
          "type": "bytes32"
        },
        {
          "internalType": "address",
          "name": "account",
          "type": "address"
        }
      ],
      "name": "revokeRole",
      "outputs": [],
      "stateMutability": "nonpayable",
      "type": "function"
    },
    {
      "inputs": [
        {
          "internalType": "address",
          "name": "_newDAOTreasury",
          "type": "address"
        }
      ],
      "name": "setDAOTreasury",
      "outputs": [],
      "stateMutability": "nonpayable",
      "type": "function"
    },
    {
      "inputs": [
        {
          "internalType": "uint256",
          "name": "_paginationSize",
          "type": "uint256"
        }
      ],
      "name": "setPaginationSize",
      "outputs": [],
      "stateMutability": "nonpayable",
      "type": "function"
    },
    {
      "inputs": [
        {
          "internalType": "uint256",
          "name": "_tierIndex",
          "type": "uint256"
        },
        {
          "components": [
            {
              "internalType": "string",
              "name": "name",
              "type": "string"
            },
            {
              "internalType": "uint256",
              "name": "price",
              "type": "uint256"
            }
          ],
          "internalType": "struct IBlockScopePayment.Tier",
          "name": "newTier",
          "type": "tuple"
        }
      ],
      "name": "setTierPrice",
      "outputs": [],
      "stateMutability": "nonpayable",
      "type": "function"
    },
    {
      "inputs": [
        {
          "internalType": "bytes4",
          "name": "interfaceId",
          "type": "bytes4"
        }
      ],
      "name": "supportsInterface",
      "outputs": [
        {
          "internalType": "bool",
          "name": "",
          "type": "bool"
        }
      ],
      "stateMutability": "view",
      "type": "function"
    },
    {
      "inputs": [
        {
          "internalType": "uint256",
          "name": "",
          "type": "uint256"
        }
      ],
      "name": "tiers",
      "outputs": [
        {
          "internalType": "string",
          "name": "name",
          "type": "string"
        },
        {
          "internalType": "uint256",
          "name": "price",
          "type": "uint256"
        }
      ],
      "stateMutability": "view",
      "type": "function"
    },
    {
      "inputs": [],
      "name": "unpause",
      "outputs": [],
      "stateMutability": "nonpayable",
      "type": "function"
    },
    {
      "inputs": [
        {
          "internalType": "address",
          "name": "newImplementation",
          "type": "address"
        }
      ],
      "name": "upgradeTo",
      "outputs": [],
      "stateMutability": "nonpayable",
      "type": "function"
    },
    {
      "inputs": [
        {
          "internalType": "address",
          "name": "newImplementation",
          "type": "address"
        },
        {
          "internalType": "bytes",
          "name": "data",
          "type": "bytes"
        }
      ],
      "name": "upgradeToAndCall",
      "outputs": [],
      "stateMutability": "payable",
      "type": "function"
    }
  ],
  "bytecode": "0x60a06040523073ffffffffffffffffffffffffffffffffffffffff1660809073ffffffffffffffffffffffffffffffffffffffff1681525034801561004357600080fd5b50608051614ff561007b60003960008181610b1401528181610ba301528181610d4a01528181610dd90152610e890152614ff56000f3fe6080604052600436106101f95760003560e01c80636b2c0f551161010d5780638456cb59116100a0578063c7977be71161006f578063c7977be714610715578063d547741f14610740578063de17057014610769578063e63ab1e914610794578063f2407ca4146107bf576101f9565b80638456cb591461066557806384b0196e1461067c57806391d14854146106ad578063a217fddf146106ea576101f9565b806376fe8ead116100dc57806376fe8ead146105ab57806379022a9f146105d45780637ecebe00146105ff57806382dc1ec41461063c576101f9565b80636b2c0f55146105055780636d3298cb1461052e578063704802751461055957806373c7698014610582576101f9565b806336568abe1161019057806346fbf68e1161015f57806346fbf68e1461042d5780634f1ef2861461046a57806352d1902d146104865780635c975abb146104b15780635f429c1b146104dc576101f9565b806336568abe146103995780633659cfe6146103c25780633d538ecf146103eb5780633f4ba83a14610416576101f9565b806324d7806c116101cc57806324d7806c146102df5780632978dc3c1461031c5780632f2ff15d146103455780633644e5151461036e576101f9565b806301ffc9a7146101fe578063039af9eb1461023b5780631785f53c14610279578063248a9ca3146102a2575b600080fd5b34801561020a57600080fd5b5061022560048036038101906102209190612feb565b6107e8565b6040516102329190613033565b60405180910390f35b34801561024757600080fd5b50610262600480360381019061025d9190613084565b610862565b604051610270929190613159565b60405180910390f35b34801561028557600080fd5b506102a0600480360381019061029b91906131e7565b61091f565b005b3480156102ae57600080fd5b506102c960048036038101906102c4919061324a565b61092f565b6040516102d69190613286565b60405180910390f35b3480156102eb57600080fd5b50610306600480360381019061030191906131e7565b610950565b6040516103139190613033565b60405180910390f35b34801561032857600080fd5b50610343600480360381019061033e91906131e7565b610966565b005b34801561035157600080fd5b5061036c600480360381019061036791906132a1565b610a67565b005b34801561037a57600080fd5b50610383610a88565b6040516103909190613286565b60405180910390f35b3480156103a557600080fd5b506103c060048036038101906103bb91906132a1565b610a8f565b005b3480156103ce57600080fd5b506103e960048036038101906103e491906131e7565b610b12565b005b3480156103f757600080fd5b50610400610c9b565b60405161040d91906132e1565b60405180910390f35b34801561042257600080fd5b5061042b610ca2565b005b34801561043957600080fd5b50610454600480360381019061044f91906131e7565b610d15565b6040516104619190613033565b60405180910390f35b610484600480360381019061047f9190613431565b610d48565b005b34801561049257600080fd5b5061049b610e85565b6040516104a89190613286565b60405180910390f35b3480156104bd57600080fd5b506104c6610f3e565b6040516104d39190613033565b60405180910390f35b3480156104e857600080fd5b5061050360048036038101906104fe91906134ed565b610f55565b005b34801561051157600080fd5b5061052c600480360381019061052791906131e7565b611285565b005b34801561053a57600080fd5b506105436112b2565b6040516105509190613286565b60405180910390f35b34801561056557600080fd5b50610580600480360381019061057b91906131e7565b6112d6565b005b34801561058e57600080fd5b506105a960048036038101906105a49190613585565b6112e6565b005b3480156105b757600080fd5b506105d260048036038101906105cd9190613637565b611369565b005b3480156105e057600080fd5b506105e961162d565b6040516105f691906136ba565b60405180910390f35b34801561060b57600080fd5b50610626600480360381019061062191906131e7565b611654565b60405161063391906132e1565b60405180910390f35b34801561064857600080fd5b50610663600480360381019061065e91906131e7565b61166d565b005b34801561067157600080fd5b5061067a61169a565b005b34801561068857600080fd5b5061069161170d565b6040516106a497969594939291906137ce565b60405180910390f35b3480156106b957600080fd5b506106d460048036038101906106cf91906132a1565b61180e565b6040516106e19190613033565b60405180910390f35b3480156106f657600080fd5b506106ff61187a565b60405161070c9190613286565b60405180910390f35b34801561072157600080fd5b5061072a611881565b6040516107379190613852565b60405180910390f35b34801561074c57600080fd5b50610767600480360381019061076291906132a1565b61189d565b005b34801561077557600080fd5b5061077e6118be565b60405161078b91906139bd565b60405180910390f35b3480156107a057600080fd5b506107a96119ba565b6040516107b69190613286565b60405180910390f35b3480156107cb57600080fd5b506107e660048036038101906107e19190613084565b6119de565b005b60007f7965db0b000000000000000000000000000000000000000000000000000000007bffffffffffffffffffffffffffffffffffffffffffffffffffffffff1916827bffffffffffffffffffffffffffffffffffffffffffffffffffffffff1916148061085b575061085a82611a78565b5b9050919050565b610163818154811061087357600080fd5b906000526020600020906002020160009150905080600001805461089690613a0e565b80601f01602080910402602001604051908101604052809291908181526020018280546108c290613a0e565b801561090f5780601f106108e45761010080835404028352916020019161090f565b820191906000526020600020905b8154815290600101906020018083116108f257829003601f168201915b5050505050908060010154905082565b61092c6000801b8261189d565b50565b600061012f6000838152602001908152602001600020600101549050919050565b600061095f6000801b8361180e565b9050919050565b6109736000801b3361180e565b6109b2576040517f08c379a00000000000000000000000000000000000000000000000000000000081526004016109a990613a8c565b60405180910390fd5b600073ffffffffffffffffffffffffffffffffffffffff168173ffffffffffffffffffffffffffffffffffffffff161415610a22576040517f08c379a0000000000000000000000000000000000000000000000000000000008152600401610a1990613af8565b60405180910390fd5b8061016260006101000a81548173ffffffffffffffffffffffffffffffffffffffff021916908373ffffffffffffffffffffffffffffffffffffffff16021790555050565b610a708261092f565b610a7981611ae2565b610a838383611af6565b505050565b6101645481565b610a97611bd8565b73ffffffffffffffffffffffffffffffffffffffff168173ffffffffffffffffffffffffffffffffffffffff1614610b04576040517f08c379a0000000000000000000000000000000000000000000000000000000008152600401610afb90613b8a565b60405180910390fd5b610b0e8282611be0565b5050565b7f000000000000000000000000000000000000000000000000000000000000000073ffffffffffffffffffffffffffffffffffffffff163073ffffffffffffffffffffffffffffffffffffffff161415610ba1576040517f08c379a0000000000000000000000000000000000000000000000000000000008152600401610b9890613c1c565b60405180910390fd5b7f000000000000000000000000000000000000000000000000000000000000000073ffffffffffffffffffffffffffffffffffffffff16610be0611cc3565b73ffffffffffffffffffffffffffffffffffffffff1614610c36576040517f08c379a0000000000000000000000000000000000000000000000000000000008152600401610c2d90613cae565b60405180910390fd5b610c3f81611d1a565b610c9881600067ffffffffffffffff811115610c5e57610c5d613306565b5b6040519080825280601f01601f191660200182016040528015610c905781602001600182028036833780820191505090505b506000611d69565b50565b6101615481565b610ccc7f65d7a28e3265b37a6474929f336521b332c1681b933f6cb9f3376673440d862a3361180e565b610d0b576040517f08c379a0000000000000000000000000000000000000000000000000000000008152600401610d0290613a8c565b60405180910390fd5b610d13611ee6565b565b6000610d417f65d7a28e3265b37a6474929f336521b332c1681b933f6cb9f3376673440d862a8361180e565b9050919050565b7f000000000000000000000000000000000000000000000000000000000000000073ffffffffffffffffffffffffffffffffffffffff163073ffffffffffffffffffffffffffffffffffffffff161415610dd7576040517f08c379a0000000000000000000000000000000000000000000000000000000008152600401610dce90613c1c565b60405180910390fd5b7f000000000000000000000000000000000000000000000000000000000000000073ffffffffffffffffffffffffffffffffffffffff16610e16611cc3565b73ffffffffffffffffffffffffffffffffffffffff1614610e6c576040517f08c379a0000000000000000000000000000000000000000000000000000000008152600401610e6390613cae565b60405180910390fd5b610e7582611d1a565b610e8182826001611d69565b5050565b60007f000000000000000000000000000000000000000000000000000000000000000073ffffffffffffffffffffffffffffffffffffffff163073ffffffffffffffffffffffffffffffffffffffff1614610f15576040517f08c379a0000000000000000000000000000000000000000000000000000000008152600401610f0c90613d40565b60405180910390fd5b7f360894a13ba1a3210667c828492db98dca3e2076cc3735a920a3ca505d382bbc60001b905090565b600060cb60009054906101000a900460ff16905090565b60008060019054906101000a900460ff16159050808015610f865750600160008054906101000a900460ff1660ff16105b80610fb35750610f9530611f49565b158015610fb25750600160008054906101000a900460ff1660ff16145b5b610ff2576040517f08c379a0000000000000000000000000000000000000000000000000000000008152600401610fe990613dd2565b60405180910390fd5b60016000806101000a81548160ff021916908360ff160217905550801561102f576001600060016101000a81548160ff0219169083151502179055505b600073ffffffffffffffffffffffffffffffffffffffff168473ffffffffffffffffffffffffffffffffffffffff16141561109f576040517f08c379a000000000000000000000000000000000000000000000000000000000815260040161109690613af8565b60405180910390fd5b600183839050116110e5576040517f08c379a00000000000000000000000000000000000000000000000000000000081526004016110dc90613e3e565b60405180910390fd5b6110ee85611f6c565b6111626040518060400160405280601181526020017f426c6f636b73636f70655061796d656e740000000000000000000000000000008152506040518060400160405280600181526020017f31000000000000000000000000000000000000000000000000000000000000008152506120cd565b8361016260006101000a81548173ffffffffffffffffffffffffffffffffffffffff021916908373ffffffffffffffffffffffffffffffffffffffff16021790555060005b83839050811015611224576101638484838181106111c8576111c7613e5e565b5b90506020028101906111da9190613e9c565b9080600181540180825580915050600190039060005260206000209060020201600090919091909150818161120f919061428c565b5050808061121c906142c9565b9150506111a7565b50801561127e5760008060016101000a81548160ff0219169083151502179055507f7f26b83ff96e1f2b6a682f133852f6798a09c465da95921460cefb38474024986001604051611275919061435a565b60405180910390a15b5050505050565b6112af7f65d7a28e3265b37a6474929f336521b332c1681b933f6cb9f3376673440d862a8261189d565b50565b7fc3dc13d682bb4baf646a38a970d2b8630ee8847786806b062c7ead58f976df8181565b6112e36000801b82610a67565b50565b6112f36000801b3361180e565b611332576040517f08c379a000000000000000000000000000000000000000000000000000000000815260040161132990613a8c565b60405180910390fd5b80610163838154811061134857611347613e5e565b5b90600052602060002090600202018181611362919061428c565b9050505050565b610163838154811061137e5761137d613e5e565b5b9060005260206000209060020201600101548410156113d2576040517f08c379a00000000000000000000000000000000000000000000000000000000081526004016113c9906143c1565b60405180910390fd5b6000610164547fc3dc13d682bb4baf646a38a970d2b8630ee8847786806b062c7ead58f976df81338761016560003373ffffffffffffffffffffffffffffffffffffffff1673ffffffffffffffffffffffffffffffffffffffff168152602001908152602001600020600081548092919061144c906142c9565b9190505560405160200161146394939291906143e1565b6040516020818303038152906040528051906020012060405160200161148a92919061449e565b60405160208183030381529060405280519060200120905060006114fb84848080601f016020809104026020016040519081016040528093929190818152602001838380828437600081840152601f19601f820116905080830192505050505050508361212a90919063ffffffff16565b9050600073ffffffffffffffffffffffffffffffffffffffff168173ffffffffffffffffffffffffffffffffffffffff161415801561156557503373ffffffffffffffffffffffffffffffffffffffff168173ffffffffffffffffffffffffffffffffffffffff16145b6115a4576040517f08c379a000000000000000000000000000000000000000000000000000000000815260040161159b90614521565b60405180910390fd5b600060646055886115b59190614541565b6115bf91906145ca565b9050600081886115cf91906145fb565b90503373ffffffffffffffffffffffffffffffffffffffff167f750e6bbedd4312ada35caa75e07fc0b85f1a6fc9c675e6962aef84691871109789848460405161161b9392919061462f565b60405180910390a25050505050505050565b61016260009054906101000a900473ffffffffffffffffffffffffffffffffffffffff1681565b6101656020528060005260406000206000915090505481565b6116977f65d7a28e3265b37a6474929f336521b332c1681b933f6cb9f3376673440d862a82610a67565b50565b6116c47f65d7a28e3265b37a6474929f336521b332c1681b933f6cb9f3376673440d862a3361180e565b611703576040517f08c379a00000000000000000000000000000000000000000000000000000000081526004016116fa90613a8c565b60405180910390fd5b61170b612151565b565b6000606080600080600060606000801b60655414801561173157506000801b606654145b611770576040517f08c379a0000000000000000000000000000000000000000000000000000000008152600401611767906146b2565b60405180910390fd5b6117786121b4565b611780612246565b46306000801b600067ffffffffffffffff8111156117a1576117a0613306565b5b6040519080825280602002602001820160405280156117cf5781602001602082028036833780820191505090505b507f0f00000000000000000000000000000000000000000000000000000000000000959493929190965096509650965096509650965090919293949596565b600061012f600084815260200190815260200160002060000160008373ffffffffffffffffffffffffffffffffffffffff1673ffffffffffffffffffffffffffffffffffffffff16815260200190815260200160002060009054906101000a900460ff16905092915050565b6000801b81565b604051806080016040528060528152602001614f476052913981565b6118a68261092f565b6118af81611ae2565b6118b98383611be0565b505050565b6060610163805480602002602001604051908101604052809291908181526020016000905b828210156119b1578382906000526020600020906002020160405180604001604052908160008201805461191690613a0e565b80601f016020809104026020016040519081016040528092919081815260200182805461194290613a0e565b801561198f5780601f106119645761010080835404028352916020019161198f565b820191906000526020600020905b81548152906001019060200180831161197257829003601f168201915b50505050508152602001600182015481525050815260200190600101906118e3565b50505050905090565b7f65d7a28e3265b37a6474929f336521b332c1681b933f6cb9f3376673440d862a81565b6119eb6000801b3361180e565b611a2a576040517f08c379a0000000000000000000000000000000000000000000000000000000008152600401611a2190613a8c565b60405180910390fd5b60008111611a6d576040517f08c379a0000000000000000000000000000000000000000000000000000000008152600401611a649061471e565b60405180910390fd5b806101618190555050565b60007f01ffc9a7000000000000000000000000000000000000000000000000000000007bffffffffffffffffffffffffffffffffffffffffffffffffffffffff1916827bffffffffffffffffffffffffffffffffffffffffffffffffffffffff1916149050919050565b611af381611aee611bd8565b6122d8565b50565b611b00828261180e565b611bd457600161012f600084815260200190815260200160002060000160008373ffffffffffffffffffffffffffffffffffffffff1673ffffffffffffffffffffffffffffffffffffffff16815260200190815260200160002060006101000a81548160ff021916908315150217905550611b79611bd8565b73ffffffffffffffffffffffffffffffffffffffff168173ffffffffffffffffffffffffffffffffffffffff16837f2f8788117e7eff1d82e926ec794901d17c78024a50270940304540a733656f0d60405160405180910390a45b5050565b600033905090565b611bea828261180e565b15611cbf57600061012f600084815260200190815260200160002060000160008373ffffffffffffffffffffffffffffffffffffffff1673ffffffffffffffffffffffffffffffffffffffff16815260200190815260200160002060006101000a81548160ff021916908315150217905550611c64611bd8565b73ffffffffffffffffffffffffffffffffffffffff168173ffffffffffffffffffffffffffffffffffffffff16837ff6391f5c32d9c69d2a47ea670b442974b53935d1edc7fd64eb21e047a839171b60405160405180910390a45b5050565b6000611cf17f360894a13ba1a3210667c828492db98dca3e2076cc3735a920a3ca505d382bbc60001b61235d565b60000160009054906101000a900473ffffffffffffffffffffffffffffffffffffffff16905090565b611d276000801b3361180e565b611d66576040517f08c379a0000000000000000000000000000000000000000000000000000000008152600401611d5d90613a8c565b60405180910390fd5b50565b611d957f4910fdfa16fed3260ed0e7147f7cc6da11a60208b5b9406d12a635614ffd914360001b612367565b60000160009054906101000a900460ff1615611db957611db483612371565b611ee1565b8273ffffffffffffffffffffffffffffffffffffffff166352d1902d6040518163ffffffff1660e01b815260040160206040518083038186803b158015611dff57600080fd5b505afa925050508015611e3057506040513d601f19601f82011682018060405250810190611e2d9190614753565b60015b611e6f576040517f08c379a0000000000000000000000000000000000000000000000000000000008152600401611e66906147f2565b60405180910390fd5b7f360894a13ba1a3210667c828492db98dca3e2076cc3735a920a3ca505d382bbc60001b8114611ed4576040517f08c379a0000000000000000000000000000000000000000000000000000000008152600401611ecb90614884565b60405180910390fd5b50611ee083838361242a565b5b505050565b611eee612456565b600060cb60006101000a81548160ff0219169083151502179055507f5db9ee0a495bf2e6ff9c91a7834c1ba4fdd244a5e8aa4e537bd38aeae4b073aa611f32611bd8565b604051611f3f91906136ba565b60405180910390a1565b6000808273ffffffffffffffffffffffffffffffffffffffff163b119050919050565b60008060019054906101000a900460ff16159050808015611f9d5750600160008054906101000a900460ff1660ff16105b80611fca5750611fac30611f49565b158015611fc95750600160008054906101000a900460ff1660ff16145b5b612009576040517f08c379a000000000000000000000000000000000000000000000000000000000815260040161200090613dd2565b60405180910390fd5b60016000806101000a81548160ff021916908360ff1602179055508015612046576001600060016101000a81548160ff0219169083151502179055505b61204e61249f565b6120566124f0565b61205e612541565b612067826125ad565b60646101618190555080156120c95760008060016101000a81548160ff0219169083151502179055507f7f26b83ff96e1f2b6a682f133852f6798a09c465da95921460cefb384740249860016040516120c0919061435a565b60405180910390a15b5050565b600060019054906101000a900460ff1661211c576040517f08c379a000000000000000000000000000000000000000000000000000000000815260040161211390614916565b60405180910390fd5b612126828261271b565b5050565b600080600061213985856127b0565b9150915061214681612802565b819250505092915050565b612159612970565b600160cb60006101000a81548160ff0219169083151502179055507f62e78cea01bee320cd4e420270b5ea74000d11b0c9f74754ebdbfc544b05a25861219d611bd8565b6040516121aa91906136ba565b60405180910390a1565b6060606780546121c390613a0e565b80601f01602080910402602001604051908101604052809291908181526020018280546121ef90613a0e565b801561223c5780601f106122115761010080835404028352916020019161223c565b820191906000526020600020905b81548152906001019060200180831161221f57829003601f168201915b5050505050905090565b60606068805461225590613a0e565b80601f016020809104026020016040519081016040528092919081815260200182805461228190613a0e565b80156122ce5780601f106122a3576101008083540402835291602001916122ce565b820191906000526020600020905b8154815290600101906020018083116122b157829003601f168201915b5050505050905090565b6122e2828261180e565b612359576122ef816129ba565b6122fd8360001c60206129e7565b60405160200161230e9291906149ff565b6040516020818303038152906040526040517f08c379a00000000000000000000000000000000000000000000000000000000081526004016123509190613852565b60405180910390fd5b5050565b6000819050919050565b6000819050919050565b61237a81611f49565b6123b9576040517f08c379a00000000000000000000000000000000000000000000000000000000081526004016123b090614aab565b60405180910390fd5b806123e67f360894a13ba1a3210667c828492db98dca3e2076cc3735a920a3ca505d382bbc60001b61235d565b60000160006101000a81548173ffffffffffffffffffffffffffffffffffffffff021916908373ffffffffffffffffffffffffffffffffffffffff16021790555050565b61243383612c23565b6000825111806124405750805b156124515761244f8383612c72565b505b505050565b61245e610f3e565b61249d576040517f08c379a000000000000000000000000000000000000000000000000000000000815260040161249490614b17565b60405180910390fd5b565b600060019054906101000a900460ff166124ee576040517f08c379a00000000000000000000000000000000000000000000000000000000081526004016124e590614916565b60405180910390fd5b565b600060019054906101000a900460ff1661253f576040517f08c379a000000000000000000000000000000000000000000000000000000000815260040161253690614916565b60405180910390fd5b565b600060019054906101000a900460ff16612590576040517f08c379a000000000000000000000000000000000000000000000000000000000815260040161258790614916565b60405180910390fd5b600060cb60006101000a81548160ff021916908315150217905550565b60008060019054906101000a900460ff161590508080156125de5750600160008054906101000a900460ff1660ff16105b8061260b57506125ed30611f49565b15801561260a5750600160008054906101000a900460ff1660ff16145b5b61264a576040517f08c379a000000000000000000000000000000000000000000000000000000000815260040161264190613dd2565b60405180910390fd5b60016000806101000a81548160ff021916908360ff1602179055508015612687576001600060016101000a81548160ff0219169083151502179055505b6126946000801b83612c9f565b6126be7f65d7a28e3265b37a6474929f336521b332c1681b933f6cb9f3376673440d862a83612c9f565b80156127175760008060016101000a81548160ff0219169083151502179055507f7f26b83ff96e1f2b6a682f133852f6798a09c465da95921460cefb3847402498600160405161270e919061435a565b60405180910390a15b5050565b600060019054906101000a900460ff1661276a576040517f08c379a000000000000000000000000000000000000000000000000000000000815260040161276190614916565b60405180910390fd5b8160679080519060200190612780929190612edc565b508060689080519060200190612797929190612edc565b506000801b6065819055506000801b6066819055505050565b6000806041835114156127f25760008060006020860151925060408601519150606086015160001a90506127e687828585612cad565b945094505050506127fb565b60006002915091505b9250929050565b6000600481111561281657612815614b37565b5b81600481111561282957612828614b37565b5b14156128345761296d565b6001600481111561284857612847614b37565b5b81600481111561285b5761285a614b37565b5b141561289c576040517f08c379a000000000000000000000000000000000000000000000000000000000815260040161289390614bb2565b60405180910390fd5b600260048111156128b0576128af614b37565b5b8160048111156128c3576128c2614b37565b5b1415612904576040517f08c379a00000000000000000000000000000000000000000000000000000000081526004016128fb90614c1e565b60405180910390fd5b6003600481111561291857612917614b37565b5b81600481111561292b5761292a614b37565b5b141561296c576040517f08c379a000000000000000000000000000000000000000000000000000000000815260040161296390614cb0565b60405180910390fd5b5b50565b612978610f3e565b156129b8576040517f08c379a00000000000000000000000000000000000000000000000000000000081526004016129af90614d1c565b60405180910390fd5b565b60606129e08273ffffffffffffffffffffffffffffffffffffffff16601460ff166129e7565b9050919050565b6060600060028360026129fa9190614541565b612a049190614d3c565b67ffffffffffffffff811115612a1d57612a1c613306565b5b6040519080825280601f01601f191660200182016040528015612a4f5781602001600182028036833780820191505090505b5090507f300000000000000000000000000000000000000000000000000000000000000081600081518110612a8757612a86613e5e565b5b60200101907effffffffffffffffffffffffffffffffffffffffffffffffffffffffffffff1916908160001a9053507f780000000000000000000000000000000000000000000000000000000000000081600181518110612aeb57612aea613e5e565b5b60200101907effffffffffffffffffffffffffffffffffffffffffffffffffffffffffffff1916908160001a90535060006001846002612b2b9190614541565b612b359190614d3c565b90505b6001811115612bd5577f3031323334353637383961626364656600000000000000000000000000000000600f861660108110612b7757612b76613e5e565b5b1a60f81b828281518110612b8e57612b8d613e5e565b5b60200101907effffffffffffffffffffffffffffffffffffffffffffffffffffffffffffff1916908160001a905350600485901c945080612bce90614d92565b9050612b38565b5060008414612c19576040517f08c379a0000000000000000000000000000000000000000000000000000000008152600401612c1090614e08565b60405180910390fd5b8091505092915050565b612c2c81612371565b8073ffffffffffffffffffffffffffffffffffffffff167fbc7cd75a20ee27fd9adebab32041f755214dbc6bffa90cc0225b39da2e5c2d3b60405160405180910390a250565b6060612c978383604051806060016040528060278152602001614f9960279139612d90565b905092915050565b612ca98282611af6565b5050565b6000807f7fffffffffffffffffffffffffffffff5d576e7357a4501ddfe92f46681b20a08360001c1115612ce8576000600391509150612d87565b600060018787878760405160008152602001604052604051612d0d9493929190614e37565b6020604051602081039080840390855afa158015612d2f573d6000803e3d6000fd5b505050602060405103519050600073ffffffffffffffffffffffffffffffffffffffff168173ffffffffffffffffffffffffffffffffffffffff161415612d7e57600060019250925050612d87565b80600092509250505b94509492505050565b60606000808573ffffffffffffffffffffffffffffffffffffffff1685604051612dba9190614ec3565b600060405180830381855af49150503d8060008114612df5576040519150601f19603f3d011682016040523d82523d6000602084013e612dfa565b606091505b5091509150612e0b86838387612e16565b925050509392505050565b60608315612e7957600083511415612e7157612e3185611f49565b612e70576040517f08c379a0000000000000000000000000000000000000000000000000000000008152600401612e6790614f26565b60405180910390fd5b5b829050612e84565b612e838383612e8c565b5b949350505050565b600082511115612e9f5781518083602001fd5b806040517f08c379a0000000000000000000000000000000000000000000000000000000008152600401612ed39190613852565b60405180910390fd5b828054612ee890613a0e565b90600052602060002090601f016020900481019282612f0a5760008555612f51565b82601f10612f2357805160ff1916838001178555612f51565b82800160010185558215612f51579182015b82811115612f50578251825591602001919060010190612f35565b5b509050612f5e9190612f62565b5090565b5b80821115612f7b576000816000905550600101612f63565b5090565b6000604051905090565b600080fd5b600080fd5b60007fffffffff0000000000000000000000000000000000000000000000000000000082169050919050565b612fc881612f93565b8114612fd357600080fd5b50565b600081359050612fe581612fbf565b92915050565b60006020828403121561300157613000612f89565b5b600061300f84828501612fd6565b91505092915050565b60008115159050919050565b61302d81613018565b82525050565b60006020820190506130486000830184613024565b92915050565b6000819050919050565b6130618161304e565b811461306c57600080fd5b50565b60008135905061307e81613058565b92915050565b60006020828403121561309a57613099612f89565b5b60006130a88482850161306f565b91505092915050565b600081519050919050565b600082825260208201905092915050565b60005b838110156130eb5780820151818401526020810190506130d0565b838111156130fa576000848401525b50505050565b6000601f19601f8301169050919050565b600061311c826130b1565b61312681856130bc565b93506131368185602086016130cd565b61313f81613100565b840191505092915050565b6131538161304e565b82525050565b600060408201905081810360008301526131738185613111565b9050613182602083018461314a565b9392505050565b600073ffffffffffffffffffffffffffffffffffffffff82169050919050565b60006131b482613189565b9050919050565b6131c4816131a9565b81146131cf57600080fd5b50565b6000813590506131e1816131bb565b92915050565b6000602082840312156131fd576131fc612f89565b5b600061320b848285016131d2565b91505092915050565b6000819050919050565b61322781613214565b811461323257600080fd5b50565b6000813590506132448161321e565b92915050565b6000602082840312156132605761325f612f89565b5b600061326e84828501613235565b91505092915050565b61328081613214565b82525050565b600060208201905061329b6000830184613277565b92915050565b600080604083850312156132b8576132b7612f89565b5b60006132c685828601613235565b92505060206132d7858286016131d2565b9150509250929050565b60006020820190506132f6600083018461314a565b92915050565b600080fd5b600080fd5b7f4e487b7100000000000000000000000000000000000000000000000000000000600052604160045260246000fd5b61333e82613100565b810181811067ffffffffffffffff8211171561335d5761335c613306565b5b80604052505050565b6000613370612f7f565b905061337c8282613335565b919050565b600067ffffffffffffffff82111561339c5761339b613306565b5b6133a582613100565b9050602081019050919050565b82818337600083830152505050565b60006133d46133cf84613381565b613366565b9050828152602081018484840111156133f0576133ef613301565b5b6133fb8482856133b2565b509392505050565b600082601f830112613418576134176132fc565b5b81356134288482602086016133c1565b91505092915050565b6000806040838503121561344857613447612f89565b5b6000613456858286016131d2565b925050602083013567ffffffffffffffff81111561347757613476612f8e565b5b61348385828601613403565b9150509250929050565b600080fd5b600080fd5b60008083601f8401126134ad576134ac6132fc565b5b8235905067ffffffffffffffff8111156134ca576134c961348d565b5b6020830191508360208202830111156134e6576134e5613492565b5b9250929050565b6000806000806060858703121561350757613506612f89565b5b6000613515878288016131d2565b9450506020613526878288016131d2565b935050604085013567ffffffffffffffff81111561354757613546612f8e565b5b61355387828801613497565b925092505092959194509250565b600080fd5b60006040828403121561357c5761357b613561565b5b81905092915050565b6000806040838503121561359c5761359b612f89565b5b60006135aa8582860161306f565b925050602083013567ffffffffffffffff8111156135cb576135ca612f8e565b5b6135d785828601613566565b9150509250929050565b60008083601f8401126135f7576135f66132fc565b5b8235905067ffffffffffffffff8111156136145761361361348d565b5b6020830191508360018202830111156136305761362f613492565b5b9250929050565b6000806000806060858703121561365157613650612f89565b5b600061365f8782880161306f565b94505060206136708782880161306f565b935050604085013567ffffffffffffffff81111561369157613690612f8e565b5b61369d878288016135e1565b925092505092959194509250565b6136b4816131a9565b82525050565b60006020820190506136cf60008301846136ab565b92915050565b60007fff0000000000000000000000000000000000000000000000000000000000000082169050919050565b61370a816136d5565b82525050565b600081519050919050565b600082825260208201905092915050565b6000819050602082019050919050565b6137458161304e565b82525050565b6000613757838361373c565b60208301905092915050565b6000602082019050919050565b600061377b82613710565b613785818561371b565b93506137908361372c565b8060005b838110156137c15781516137a8888261374b565b97506137b383613763565b925050600181019050613794565b5085935050505092915050565b600060e0820190506137e3600083018a613701565b81810360208301526137f58189613111565b905081810360408301526138098188613111565b9050613818606083018761314a565b61382560808301866136ab565b61383260a0830185613277565b81810360c08301526138448184613770565b905098975050505050505050565b6000602082019050818103600083015261386c8184613111565b905092915050565b600081519050919050565b600082825260208201905092915050565b6000819050602082019050919050565b600082825260208201905092915050565b60006138bc826130b1565b6138c681856138a0565b93506138d68185602086016130cd565b6138df81613100565b840191505092915050565b6000604083016000830151848203600086015261390782826138b1565b915050602083015161391c602086018261373c565b508091505092915050565b600061393383836138ea565b905092915050565b6000602082019050919050565b600061395382613874565b61395d818561387f565b93508360208202850161396f85613890565b8060005b858110156139ab578484038952815161398c8582613927565b94506139978361393b565b925060208a01995050600181019050613973565b50829750879550505050505092915050565b600060208201905081810360008301526139d78184613948565b905092915050565b7f4e487b7100000000000000000000000000000000000000000000000000000000600052602260045260246000fd5b60006002820490506001821680613a2657607f821691505b60208210811415613a3a57613a396139df565b5b50919050565b7f4f776e61626c655061757361626c653a206163636573732064656e6965640000600082015250565b6000613a76601e836130bc565b9150613a8182613a40565b602082019050919050565b60006020820190508181036000830152613aa581613a69565b9050919050565b7f496e76616c69642044414f207472656173757279206164647265737300000000600082015250565b6000613ae2601c836130bc565b9150613aed82613aac565b602082019050919050565b60006020820190508181036000830152613b1181613ad5565b9050919050565b7f416363657373436f6e74726f6c3a2063616e206f6e6c792072656e6f756e636560008201527f20726f6c657320666f722073656c660000000000000000000000000000000000602082015250565b6000613b74602f836130bc565b9150613b7f82613b18565b604082019050919050565b60006020820190508181036000830152613ba381613b67565b9050919050565b7f46756e6374696f6e206d7573742062652063616c6c6564207468726f7567682060008201527f64656c656761746563616c6c0000000000000000000000000000000000000000602082015250565b6000613c06602c836130bc565b9150613c1182613baa565b604082019050919050565b60006020820190508181036000830152613c3581613bf9565b9050919050565b7f46756e6374696f6e206d7573742062652063616c6c6564207468726f7567682060008201527f6163746976652070726f78790000000000000000000000000000000000000000602082015250565b6000613c98602c836130bc565b9150613ca382613c3c565b604082019050919050565b60006020820190508181036000830152613cc781613c8b565b9050919050565b7f555550535570677261646561626c653a206d757374206e6f742062652063616c60008201527f6c6564207468726f7567682064656c656761746563616c6c0000000000000000602082015250565b6000613d2a6038836130bc565b9150613d3582613cce565b604082019050919050565b60006020820190508181036000830152613d5981613d1d565b9050919050565b7f496e697469616c697a61626c653a20636f6e747261637420697320616c72656160008201527f647920696e697469616c697a6564000000000000000000000000000000000000602082015250565b6000613dbc602e836130bc565b9150613dc782613d60565b604082019050919050565b60006020820190508181036000830152613deb81613daf565b9050919050565b7f496e76616c69642053756273637269626520706c616e73000000000000000000600082015250565b6000613e286017836130bc565b9150613e3382613df2565b602082019050919050565b60006020820190508181036000830152613e5781613e1b565b9050919050565b7f4e487b7100000000000000000000000000000000000000000000000000000000600052603260045260246000fd5b600080fd5b600080fd5b600080fd5b600082356001604003833603038112613eb857613eb7613e8d565b5b80830191505092915050565b60008083356001602003843603038112613ee157613ee0613e8d565b5b80840192508235915067ffffffffffffffff821115613f0357613f02613e92565b5b602083019250600182023603831315613f1f57613f1e613e97565b5b509250929050565b600082905092915050565b60008190508160005260206000209050919050565b60006020601f8301049050919050565b600082821b905092915050565b600060088302613f947fffffffffffffffffffffffffffffffffffffffffffffffffffffffffffffffff82613f57565b613f9e8683613f57565b95508019841693508086168417925050509392505050565b6000819050919050565b6000613fdb613fd6613fd18461304e565b613fb6565b61304e565b9050919050565b6000819050919050565b613ff583613fc0565b61400961400182613fe2565b848454613f64565b825550505050565b600090565b61401e614011565b614029818484613fec565b505050565b5b8181101561404d57614042600082614016565b60018101905061402f565b5050565b601f8211156140925761406381613f32565b61406c84613f47565b8101602085101561407b578190505b61408f61408785613f47565b83018261402e565b50505b505050565b600082821c905092915050565b60006140b560001984600802614097565b1980831691505092915050565b60006140ce83836140a4565b9150826002028217905092915050565b6140e88383613f27565b67ffffffffffffffff81111561410157614100613306565b5b61410b8254613a0e565b614116828285614051565b6000601f8311600181146141455760008415614133578287013590505b61413d85826140c2565b8655506141a5565b601f19841661415386613f32565b60005b8281101561417b57848901358255600182019150602085019450602081019050614156565b868310156141985784890135614194601f8916826140a4565b8355505b6001600288020188555050505b50505050505050565b6141b98383836140de565b505050565b600081356141cb81613058565b80915050919050565b60008160001b9050919050565b60007fffffffffffffffffffffffffffffffffffffffffffffffffffffffffffffffff61420d846141d4565b9350801983169250808416831791505092915050565b61422c82613fc0565b61423f61423882613fe2565b83546141e1565b8255505050565b60008101600083016142588185613ec4565b6142638183866141ae565b50505050600181016020830180614279816141be565b90506142858184614223565b5050505050565b6142968282614246565b5050565b7f4e487b7100000000000000000000000000000000000000000000000000000000600052601160045260246000fd5b60006142d48261304e565b91507fffffffffffffffffffffffffffffffffffffffffffffffffffffffffffffffff8214156143075761430661429a565b5b600182019050919050565b6000819050919050565b600060ff82169050919050565b600061434461433f61433a84614312565b613fb6565b61431c565b9050919050565b61435481614329565b82525050565b600060208201905061436f600083018461434b565b92915050565b7f496e73756666696369656e74207061796d656e74000000000000000000000000600082015250565b60006143ab6014836130bc565b91506143b682614375565b602082019050919050565b600060208201905081810360008301526143da8161439e565b9050919050565b60006080820190506143f66000830187613277565b61440360208301866136ab565b614410604083018561314a565b61441d606083018461314a565b95945050505050565b600081905092915050565b7f1901000000000000000000000000000000000000000000000000000000000000600082015250565b6000614467600283614426565b915061447282614431565b600282019050919050565b6000819050919050565b61449861449382613214565b61447d565b82525050565b60006144a98261445a565b91506144b58285614487565b6020820191506144c58284614487565b6020820191508190509392505050565b7f496e76616c6964207369676e6174757265000000000000000000000000000000600082015250565b600061450b6011836130bc565b9150614516826144d5565b602082019050919050565b6000602082019050818103600083015261453a816144fe565b9050919050565b600061454c8261304e565b91506145578361304e565b9250817fffffffffffffffffffffffffffffffffffffffffffffffffffffffffffffffff04831182151516156145905761458f61429a565b5b828202905092915050565b7f4e487b7100000000000000000000000000000000000000000000000000000000600052601260045260246000fd5b60006145d58261304e565b91506145e08361304e565b9250826145f0576145ef61459b565b5b828204905092915050565b60006146068261304e565b91506146118361304e565b9250828210156146245761462361429a565b5b828203905092915050565b6000606082019050614644600083018661314a565b614651602083018561314a565b61465e604083018461314a565b949350505050565b7f4549503731323a20556e696e697469616c697a65640000000000000000000000600082015250565b600061469c6015836130bc565b91506146a782614666565b602082019050919050565b600060208201905081810360008301526146cb8161468f565b9050919050565b7f4d6f726967696e4170703a20696e76616c69642076616c756521000000000000600082015250565b6000614708601a836130bc565b9150614713826146d2565b602082019050919050565b60006020820190508181036000830152614737816146fb565b9050919050565b60008151905061474d8161321e565b92915050565b60006020828403121561476957614768612f89565b5b60006147778482850161473e565b91505092915050565b7f45524331393637557067726164653a206e657720696d706c656d656e7461746960008201527f6f6e206973206e6f742055555053000000000000000000000000000000000000602082015250565b60006147dc602e836130bc565b91506147e782614780565b604082019050919050565b6000602082019050818103600083015261480b816147cf565b9050919050565b7f45524331393637557067726164653a20756e737570706f727465642070726f7860008201527f6961626c65555549440000000000000000000000000000000000000000000000602082015250565b600061486e6029836130bc565b915061487982614812565b604082019050919050565b6000602082019050818103600083015261489d81614861565b9050919050565b7f496e697469616c697a61626c653a20636f6e7472616374206973206e6f74206960008201527f6e697469616c697a696e67000000000000000000000000000000000000000000602082015250565b6000614900602b836130bc565b915061490b826148a4565b604082019050919050565b6000602082019050818103600083015261492f816148f3565b9050919050565b7f416363657373436f6e74726f6c3a206163636f756e7420000000000000000000600082015250565b600061496c601783614426565b915061497782614936565b601782019050919050565b600061498d826130b1565b6149978185614426565b93506149a78185602086016130cd565b80840191505092915050565b7f206973206d697373696e6720726f6c6520000000000000000000000000000000600082015250565b60006149e9601183614426565b91506149f4826149b3565b601182019050919050565b6000614a0a8261495f565b9150614a168285614982565b9150614a21826149dc565b9150614a2d8284614982565b91508190509392505050565b7f455243313936373a206e657720696d706c656d656e746174696f6e206973206e60008201527f6f74206120636f6e747261637400000000000000000000000000000000000000602082015250565b6000614a95602d836130bc565b9150614aa082614a39565b604082019050919050565b60006020820190508181036000830152614ac481614a88565b9050919050565b7f5061757361626c653a206e6f7420706175736564000000000000000000000000600082015250565b6000614b016014836130bc565b9150614b0c82614acb565b602082019050919050565b60006020820190508181036000830152614b3081614af4565b9050919050565b7f4e487b7100000000000000000000000000000000000000000000000000000000600052602160045260246000fd5b7f45434453413a20696e76616c6964207369676e61747572650000000000000000600082015250565b6000614b9c6018836130bc565b9150614ba782614b66565b602082019050919050565b60006020820190508181036000830152614bcb81614b8f565b9050919050565b7f45434453413a20696e76616c6964207369676e6174757265206c656e67746800600082015250565b6000614c08601f836130bc565b9150614c1382614bd2565b602082019050919050565b60006020820190508181036000830152614c3781614bfb565b9050919050565b7f45434453413a20696e76616c6964207369676e6174757265202773272076616c60008201527f7565000000000000000000000000000000000000000000000000000000000000602082015250565b6000614c9a6022836130bc565b9150614ca582614c3e565b604082019050919050565b60006020820190508181036000830152614cc981614c8d565b9050919050565b7f5061757361626c653a2070617573656400000000000000000000000000000000600082015250565b6000614d066010836130bc565b9150614d1182614cd0565b602082019050919050565b60006020820190508181036000830152614d3581614cf9565b9050919050565b6000614d478261304e565b9150614d528361304e565b9250827fffffffffffffffffffffffffffffffffffffffffffffffffffffffffffffffff03821115614d8757614d8661429a565b5b828201905092915050565b6000614d9d8261304e565b91506000821415614db157614db061429a565b5b600182039050919050565b7f537472696e67733a20686578206c656e67746820696e73756666696369656e74600082015250565b6000614df26020836130bc565b9150614dfd82614dbc565b602082019050919050565b60006020820190508181036000830152614e2181614de5565b9050919050565b614e318161431c565b82525050565b6000608082019050614e4c6000830187613277565b614e596020830186614e28565b614e666040830185613277565b614e736060830184613277565b95945050505050565b600081519050919050565b600081905092915050565b6000614e9d82614e7c565b614ea78185614e87565b9350614eb78185602086016130cd565b80840191505092915050565b6000614ecf8284614e92565b915081905092915050565b7f416464726573733a2063616c6c20746f206e6f6e2d636f6e7472616374000000600082015250565b6000614f10601d836130bc565b9150614f1b82614eda565b602082019050919050565b60006020820190508181036000830152614f3f81614f03565b905091905056fe454950373132446f6d61696e28737472696e67206e616d652c737472696e672076657273696f6e2c75696e7432353620636861696e49642c6164647265737320766572696679696e67436f6e747261637429416464726573733a206c6f772d6c6576656c2064656c65676174652063616c6c206661696c6564a2646970667358221220b389487f99cf7ea712f70e00347e526d8ca946757104dd25783681a69af0fb5d64736f6c63430008090033",
  "linkReferences": {},
  "deployedLinkReferences": {}
}